S0110000436C65766572426F782E7372656389
S2140000000C94F0230C9421240C9421240C94212489
S2140000100C9421240C94C9B40C94D8B40C942124C8
S2140000200C9421240C9404B50C9428B50C9421242B
S2140000300C9421240C9421240C9421240C94212427
S2140000400C9421240C94186E0C9421240C942124D6
S2140000500C9421240C9421240C9421240C9454C335
S2140000600C9421240C946CBD0C94B6BD0C942124E5
S2140000700C9421240C9466B50C9421240C94212411
S2140000800C94446E0C9421240C9421240C9421246A
S2140000900C9421240C9421240C9421240C944ACAF8
S2140000A00C9421240C9421240C94706E0C9421241E
S2140000B00C9421240C9421240C9421240C949C6EE2
S2140000C00C9421240C9421240C9466B40C9415BE34
S2140000D00C945FBE0C9421240C94BEBE0C9408BFF6
S2140000E00C9421240D26492618261F2626262D2662
S2140000F0492634263B264226962899289C289F285F
S214000100A228A528A828AB28AE28C328C528CC280E
S214000110D228EC28D828DD28E328E6280A291B2937
S2140001203029522941296329742985299629B0291D
S214000130BD29CE29DF29F029012A122A232A342AAA
S214000140AE2A452A562A672A782A882AAE2AAE2A4E
S214000150AE2AAE2AAE2AAE2AAE2AAE2AAE2AAE2ADA
S214000160AE2AAE2AAE2AAE2AAE2A982AC83ACF3A85
S214000170D63ADD3AE43AFC3AEB3AFC3AF23A6E3BCF
S214000180723B763B7A3B7E3B823B863BDD80E18062
S214000190F080F080E580F080F080F080E980F080EC
S2140001A0DF80F080F080EE80F080F080E380D98001
S2140001B0F080F080E7800381018107810B81278131
S2140001C00F81138117811B811F812381948D978D49
S2140001D09A8D9D8DA08DA38DA68D488F4B8F518FA8
S2140001E0548F588F608F638F6A8F6F8F6090609088
S2140001F07E8FA78FE58FE88FEB8FEE8FF18FF48FD2
S214000200F78FFA8FFD8F00900390069009900C9060
S2140002102490279060904290FD9C229D259D289DCD
S2140002202B9D2E9D319D489D4B9D4E9D519D549DD1
S214000230A4A3B5A3C6A3D8A3E9A3FAA30CA41DA49C
S2140002402FA440A452A464A48FC492C481C485C4BD
S2140002508BC4C9C496C49AC4A0C4A4C4A8C4AEC45B
S214000260B2C4B6C4C9C4BCC4C0C4C4C400407A10B6
S214000270F35A00A0724E18090010A5D4E80000E852
S2140002807648170000E40B54020000CA9A3B0000B0
S21400029000E1F505000080969800000040420F003F
S2140002A00000A08601000000102700000000E80300
S2140002B0000000006400000000000A0000000000CB
S2140002C00100000000002C76D888DC674F0823DF8A
S2140002D0C1DFAE59E1B1B796E5E3E453C63AE6515D
S2140002E0997696E8E6C28426EB898C9B62ED407C84
S2140002F06FFCEFBC9C9F40F2BAA56FA5F490055A20
S2140003002AF75C936B6CF9676DC11BFCE0E40D4744
S214000310FEF520E6B500D0ED902E03009435770567
S2140003200080841E080000204E0A000000C80C331F
S2140003303333330F986E12831141EF8D2114893BAE
S214000340E65516CFFEE6DB18D1844B381BF77C1D2E
S214000350901DA4BBE424203284725E228100C9F181
S21400036024ECA1E53D27646F6E650009496E69744B
S21400037069616C697A696E6720576972652E2E2EE0
S21400038000307834622E2E2E00307834612E2E2ED9
S2140003900009496E697469616C697A696E67204DF7
S2140003A04158343430303920006572726F72006400
S2140003B06F6E650009496E697469616C697A696E69
S2140003C0672042483137353020307835432E2E2E80
S2140003D0006572726F7200646F6E650009496E691F
S2140003E07469616C697A696E6720424831373530C6
S2140003F020307832332E2E2E006572726F720064B3
S2140004006F6E6500094572726F7220616464726572
S21400041073730009496E697469616C697A696E67FD
S2140004202054534C3235363120307834392E2E2E27
S2140004300009496E697469616C697A696E6720544F
S214000440534C3235363120307832392E2E2E000974
S214000450496E697469616C697A696E672054534C99
S2140004603235363120307833392E2E2E00646F6EBA
S214000470650009496E697469616C697A696E6720FE
S214000480494E413231392E2E2E006572726F72003F
S214000490646F6E650009496E697469616C697A6992
S2140004A06E6720424D5032383020307837372E2E47
S2140004B02E0009496E697469616C697A696E6720F5
S2140004C0424D5032383020307837362E2E2E00648B
S2140004D06F6E65004854553231442C2053485432D0
S2140004E0312073656E736F72206973206661696C64
S2140004F06564206F72206E6F7420636F6E6E656326
S2140005007465640009496E697469616C697A696E1C
S21400051067204854553231442E2E2E006572726F75
S2140005207200646F6E650009496E697469616C6972
S2140005307A696E6720424D4532383020307837373A
S2140005402E2E2E0009496E697469616C697A696E8F
S2140005506720424D4532383020307837362E2E2EE2
S21400056000646F6E650009496E697469616C697A2A
S214000570696E6720445331384232302E2E2E0045A5
S2140005806E61626C65205374657070657220506F82
S214000590727400416E616C6F6720533500416E6166
S2140005A06C6F6720533400416E616C6F6720533365
S2140005B000416E616C6F6720533200416E616C6F54
S2140005C067205331004750494F2D38004750494F58
S2140005D02D37004750494F2D36004750494F2D358F
S2140005E0004750494F2D34004750494F2D330047A0
S2140005F050494F2D32004750494F2D310045585431
S2140006005F52554E5F5354455050455200506F72DE
S214000610742069736E277420636F6E6E65637465ED
S21400062064004558545F50494E5F39004558545F42
S21400063050494E5F38004558545F50494E5F37006A
S2140006404558545F50494E5F36004558545F5049F0
S2140006504E5F35004558545F50494E5F340045584C
S214000660545F50494E5F33004558545F50494E5FC3
S21400067032004558545F50494E5F31004572726FE4
S21400068072206461746100494E5055545F44494776
S2140006904954414C5F50494E5F3900494E505554BD
S2140006A05F4449474954414C5F50494E5F380049C2
S2140006B04E5055545F4449474954414C5F50494E4B
S2140006C05F3700494E5055545F4449474954414CA2
S2140006D05F50494E5F3600494E5055545F44494777
S2140006E04954414C5F50494E5F3500494E50555471
S2140006F05F4449474954414C5F50494E5F34004976
S2140007004E5055545F4449474954414C5F50494EFA
S2140007105F3300494E5055545F4449474954414C55
S2140007205F50494E5F3200494E5055545F4449472A
S2140007304954414C5F50494E5F31002000454550BA
S214000740524F4D20697320636C65616E00436F6E77
S214000750666967607320636F6E74726F6C6C657227
S214000760206F6E20454550524F4D20697320636CB4
S21400077065616E00436F6E666967607320657865B5
S21400078063206D6F64756C6573206F6E20454550F1
S214000790524F4D20697320636C65616E00436F6E27
S2140007A066696760732067726F75706073206F6E1E
S2140007B020454550524F4D20697320636C65616E2D
S2140007C000436F6E6669677360732073656E736F40
S2140007D0726073206F6E20454550524F4D206973EE
S2140007E020636C65616E004572726F726073206F75
S2140007F06E20454550524F4D20697320636C6561ED
S2140008006E00090909090909092E2E2E64726976F7
S21400081065722073746570706572206D6F746F7288
S2140008202069732073746F700009090909090909A2
S2140008302E2E2E4861726477617265207175616E26
S21400084074697479206F66207468652070617373AC
S21400085061626C65207374657073203D2000090921
S21400086009090909092E2E2E5061737361626C65A1
S214000870207175616E74697479206F662073746573
S2140008807073203D2000090909090909092E2E2E3A
S2140008905175616E74697479206F66207374657023
S2140008A073206F6620746865206D6F746F72203DCC
S2140008B02000090909090909092E2E2E55736520FD
S2140008C064656661756C74207365744D61785370E9
S2140008D0656564203D20353030000909090909099D
S2140008E0092E2E2E5573652064656661756C74201E
S2140008F0736574416363656C65726174696F6E20BD
S2140009003D203130303000636D00090909090909BE
S214000910092E2E2E53746570203D20002069742009
S21400092069732073746F7070656400206974206941
S21400093073207374617274656400090909090909F2
S214000940092E2E2E64726976657220737465707037
S2140009506572206D6F746F72206F6E20706F727488
S2140009602000293A2000090909090909092E2E2E16
S2140009705550207377697463682800293A20000967
S2140009800909090909092E2E2E444F574E20737760
S214000990697463682028002E00006F6E006F66661C
S2140009A00009090909092E2E2E54686520706F72F9
S2140009B0742069736E277420636F6E66696775723C
S2140009C065640009090909090909092E2E2E6D6FAB
S2140009D076656D656E74206973206572726F72211C
S2140009E021210009090909090909092E2E2E6D6F12
S2140009F076656D656E7420697320646F6E6521215F
S214000A00210009090909090909092E2E2E6D6F769C
S214000A10656D656E742069732073746172746564A5
S214000A200009090909090909092E2E2E706F72742A
S214000A3020697320696E697469616C697A696E678A
S214000A40002A002E20416E676C6520526F74617418
S214000A50696F6E3A20002900202800090909090953
S214000A6009092E2E2E52756E20536572766F206DF4
S214000A706F746F72206F6E20002A002E20536967F5
S214000A806E616C204C6576656C3A20000909090990
S214000A902E2E2E52756E2050574D206F6E20706F82
S214000AA07274200041542B435553443D300041544A
S214000AB0483000415448300047534D20696E7075E9
S214000AC0743A200054656D705F55503A20002C2013
S214000AD00054656D705F444F574E3A200074656D44
S214000AE0700054656D705F426F783A20002C2000CD
S214000AF054656D705F55503A20002C200054656D8B
S214000B00705F444F574E3A200054656D705F4C65D9
S214000B1066743A200054656D705F52696768743A6F
S214000B2020005643433A20005374617475730046A0
S214000B30616E2072756E005475726E696E67206FF6
S214000B406E206F6620746865206D6F64756C652E08
S214000B502E2E4F4B00496E636C7573696F6E205670
S214000B6043432E2E2E4F4B005265737461727420D1
S214000B7047534D206D6F64756C650041542B53418F
S214000B805042523D302C310041542B53415042527A
S214000B903D302C310041542B434D47443D3400D06A
S214000BA09AD0BED0BBD0B8D187D0B5D181D182D0B3
S214000BB0B2D0BE20D0BED188D0B8D0B1D0BED0BAC8
S214000BC020475052533A200047455420D0B7D0B063
S214000BD0D0BFD180D0BED18120D0BDD0B520D0BE70
S214000BE0D182D0BFD180D0B0D0B2D0BBD0B5D0BD2E
S214000BF00047455420D0B7D0B0D0BFD180D0BED1AA
S214000C008120D183D181D0BFD0B5D188D0BDD0BE10
S214000C1020D0BED182D0BFD180D0B0D0B2D0BBD091
S214000C20B5D0BD0041542B485454505445524D0045
S214000C3041542B48545450414354494F4E3D300084
S214000C4041542B48545450414354494F4E3D300074
S214000C5041542B48545450504152413D224349443C
S214000C60222C310041542B48545450494E495400CC
S214000C7047534D20D0BCD0BED0B4D183D0BBD18C8E
S214000C8020D0BDD0B520D0B7D0B0D180D0B5D0B3AD
S214000C90D0B8D181D182D180D0B8D180D0BED0B2E8
S214000CA0D0B0D0BD20D0B220D181D0B5D182D0B8BE
S214000CB00047534D20D0BCD0BED0B4D183D0BBD1DA
S214000CC08C20D0B7D0B0D180D0B5D0B3D0B8D18139
S214000CD0D182D180D0B8D180D0BED0B2D0B0D0BD75
S214000CE020D0B220D181D0B5D182D0B80041542BCB
S214000CF0435245473F00D09FD180D0BED0B2D0B53A
S214000D00D180D0BAD0B020D180D0B5D0B3D0B8D1B1
S214000D1081D182D180D0B0D186D0B8D0B83A200068
S214000D203D3D3D3D3D3D3D3D3D3D3D3D3D3D3D3DEE
S214000D303D20496E697469616C697A696E672063E3
S214000D406F6D706C657465203D3D3D3D3D3D3D3DA0
S214000D503D3D3D3D3D3D3D3D3D0041542B435343D0
S214000D604C4B3D31005765207265736F6C7665207D
S214000D70736C656570206D6F64652E2E2E4F4B006C
S214000D80416C6C6F7720636F6D6D756E696361740F
S214000D90696F6E207769746820746865206D6F646B
S214000DA0756C652E2E2E4F4B005475726E696E67ED
S214000DB0206F6E206F6620746865206D6F64756C9A
S214000DC0652E2E2E4F4B00496E636C7573696F6EE1
S214000DD0205643432E2E2E4F4B003D3D3D3D3D3D80
S214000DE03D3D3D3D3D3D3D3D3D3D3D2053746172A5
S214000DF07420696E697469616C697A696E672047E8
S214000E00534D206D6F64756C6520203D3D3D3D3D26
S214000E103D3D3D3D3D3D3D3D3D3D3D3D0041542B31
S214000E20434E4D493D322C320041542B43534353DD
S214000E303D2247534D220041542B434D47463D31FA
S214000E400041542B434C49503D31004154453156E6
S214000E50312B434D45453D323B26570041544530E6
S214000E60003D3D3D3D3D3D3D3D3D3D3D3D3D3D3DEA
S214000E703D3D20496E697469616C697A696E6720C8
S214000E80636F6D706C657465203D3D3D3D3D3D3D39
S214000E903D3D3D3D3D3D3D3D3D3D003D3D3D3D3DBA
S214000EA03D3D3D3D3D3D3D3D3D3D3D3D2053746119
S214000EB0727420696E697469616C697A696E6720FC
S214000EC047505253203D3D3D3D3D3D3D3D3D3D3D22
S214000ED03D3D3D3D3D3D0041542B53415042523D2A
S214000EE0312C310041542B48545450494E4954003B
S214000EF041542B53415042523D332C312C225057F3
S214000F0044222C226265656C696E65220041542B72
S214000F1053415042523D332C312C225553455222D8
S214000F202C226265656C696E65220041542B534124
S214000F305042523D332C312C2241504E222C2269F5
S214000F406E7465726E65742E6265656C696E652E6C
S214000F507275220041542B53415042523D332C317E
S214000F602C22434F4E54595045222C224750525360
S214000F702200373931333337373431343500373997
S214000F803133383936333438320037393133373540
S214000F903137303735003739313339303435393237
S214000FA03500323300323200323100004572726F43
S214000FB072206D656E7520202020202000202020C5
S214000FC02000493A002020005643433A004C696707
S214000FD068742050616E656C2020202020004F66CB
S214000FE06620200020004572726F720020202020AC
S214000FF02020202020202020202020200025002027
S21400100020200020202020202020202020202020FB
S21400101020202000430076002020202020202020B2
S2140010202020202020202020004D616E75616C005D
S21400103020202020202020202020202020202020AB
S214001040004175746F6D6174696300436F6E7472EE
S2140010506F6C6C65722052756E2020005B424831C2
S2140010603735305D20446576696365206973206E88
S2140010706F7420636F6E6669677572656421005BC6
S2140010804248313735305D204552524F523A20752E
S2140010906E646566696E6564206572726F72005B69
S2140010A04248313735305D204552524F523A206F14
S2140010B074686572206572726F72005B42483137E1
S2140010C035305D204552524F523A2072656365694D
S2140010D0766564204E41434B206F6E207472616EBD
S2140010E0736D6974206F662064617461005B4248AA
S2140010F0313735305D204552524F523A2072656383
S2140011006569766564204E41434B206F6E2074728D
S214001110616E736D6974206F6620616464726573B6
S21400112073005B4248313735305D204552524F528E
S2140011303A20746F6F206C6F6E6720666F72207433
S21400114072616E736D697420627566666572005BA7
S2140011504248313735305D204552524F523A204D85
S21400116054726567206F7574206F662072616E67B3
S21400117065005B4248313735305D204552524F524C
S2140011803A20756E646566696E6564206572726F76
S21400119072005B4248313735305D204552524F521F
S2140011A03A206F74686572206572726F72005B42D7
S2140011B048313735305D204552524F523A207265DD
S2140011C0636569766564204E41434B206F6E2074DC
S2140011D072616E736D6974206F662064617461005D
S2140011E05B4248313735305D204552524F523A20E7
S2140011F07265636569766564204E41434B206F6E69
S214001200207472616E736D6974206F662061646409
S21400121072657373005B4248313735305D20455246
S214001220524F523A20746F6F206C6F6E6720666F55
S21400123072207472616E736D69742062756666657D
S21400124072005B4248313735305D204552524F526E
S2140012503A20496E76616C6964206D6F64650000A3
S2140012605EBCE2613FDD83C29C7E20A3FD1F419DE4
S214001270C3217FFCA2401E5F01E3BD3E6082DC23EB
S2140012807D9FC1421CFEA0E1BF5D0380DE3C62BEC6
S214001290E0025CDF81633D7C22C09E1D43A1FF46C9
S2140012A018FAA427799BC584DA3866E5BB5907DBAC
S2140012B0856739BAE406581947A5FB7826C49A65A7
S2140012C03BD987045AB8E6A7F91B45C6987A24F88E
S2140012D0A6441A99C7257B3A6486D85B05E7B98C7D
S2140012E0D2306EEDB3510F4E10F2AC2F7193CD117C
S2140012F04FADF3702ECC92D38D6F31B2EC0E50AF53
S214001300F1134DCE90722C6D33D18F0C52B0EE325D
S2140013106C8ED0530DEFB1F0AE4C1291CF2D73CA38
S214001320947628ABF517490856B4EA6937D58B5733
S21400133009EBB536688AD495CB2977F4AA4816E91E
S214001340B7550B88D6346A2B7597C94A14F6A87415
S2140013502AC896154BA9F7B6E80A54D7896B357C88
S2140013603C3E5E2B3D3F2F5B5D3B2C2A225C0027DC
S214001370206973206E6F7420636F6E66696775727E
S2140013806564000909094D616E6167656D656E7477
S214001390206F662067726F75702027002900090984
S2140013A0094D616E6167656D656E74206F662067B6
S2140013B0726F75702069732073746172746564202F
S2140013C0696E205465726D6F73746174206D6F64FE
S2140013D065202800090909092E2E2ED09ED188D016
S2140013E0B8D0B1D0BAD0B020D0BFD0BED0BAD0B06E
S2140013F0D0B7D0B0D0BDD0B8D18F20D0B4D0B0D177
S21400140082D187D0B8D0BAD0B000090909092E2EEB
S2140014102ED09FD0BED0BAD0B0D0B7D0B0D0BDD02E
S214001420B8D0B520D0B4D0B0D182D187D0B8D0BA99
S214001430D0B020D0BDD0B520D0B8D0B7D0BCD0B5B5
S214001440D0BDD0B8D0BBD0BED181D18C000909099F
S214001450092E2E2E4D616E6167656D656E74206F68
S214001460662067726F75702069732073746F707072
S21400147065642E20546865726520617265206E6F03
S2140014802064617461206F66207468652073656EE1
S214001490736F72005468652076616C7565206F66A0
S2140014A02067726F7570200020697320686967680E
S2140014B06572207468616E206D6178696D756D0067
S2140014C05468652076616C7565206F662067726F5C
S2140014D075702000206973206C6F776572207468C1
S2140014E0616E206D696E696D756D000909090909DF
S2140014F02E2E2E4D616E6167656D656E74206F666B
S2140015002067726F75702069732073746F707065D2
S214001510642E204D6F64756C6573206973206E6F42
S2140015207420666F756E640029004D696E56616C96
S214001530756547726F757020280029203E200009C7
S2140015400909092E2E2E5265616C56616C75652050
S214001550280029004D696E56616C756547726F7577
S2140015607020280029203C200009090909092E2E90
S2140015702E5265616C56616C756520280029004DF9
S214001580696E56616C756547726F75702028002904
S214001590203C200009090909092E2E2E5265616C8F
S2140015A056616C756520280029004D696E56616C81
S2140015B0756547726F757020280029203E20000947
S2140015C0090909092E2E2E5265616C56616C7565E7
S2140015D0202800290029203C204D696E56616C7534
S2140015E06547726F757020280009090909092E2EB3
S2140015F02E56616C7565202800290029203E204D56
S214001600617856616C756547726F757020280009A1
S214001610090909092E2E2E56616C756520280009C9
S214001620090909092E2E2E5468652076616C7565A9
S214001630207374616E6473207374696C6C20000987
S214001640090909092E2E2E5468652076616C756589
S21400165020676F6573207570200009090909092E37
S2140016602E2E5468652076616C756520676F6573ED
S21400167020646F776E2000290029203C204D617879
S21400168056616C756547726F757020280056616CE0
S214001690756520280029203C200009090909092E23
S2140016A02E2E4D696E56616C756547726F7570208B
S2140016B02800090909092E2E2E4D616E61676520E6
S2140016C067726F75702D2D2D3E2000090909095689
S2140016D0616C75652073656E736F723A2000090938
S2140016E00909092E2E2E4D617856616C7565477274
S2140016F06F75703A200009090909092E2E2E4D69CA
S2140017006E56616C756547726F75703A20000909F0
S2140017100909426F756E646172792076616C756531
S21400172073206F662067726F75703A20000909098A
S21400173009092E2E2E69736E2774207072657365E4
S2140017406E7420746865206D6F64756C65206973AF
S21400175020636F6E6669677572656400090909091A
S2140017600909092E2E2E4D616E6167656D656E74D2
S214001770206F66206469676974616C20706F72748C
S21400178020646F6573206E6F7420776F726B2069AC
S2140017906E20746865206D6F646520696E207072B7
S2140017A06F706F7274696F6E206F66206D616E6108
S2140017B067656D656E74003A204C4F57003A2048B6
S2140017C049474800090909090909092E2E2E706F94
S2140017D0727420002E20497420697320726561643B
S2140017E079206173204469676974616C20706F7238
S2140017F074000909090909092E2E2E4578656375B6
S21400180074697665206D6F64756C653A20002E20CD
S214001810497420697320726561647920617320536E
S2140018206572766F000909090909092E2E2E45787A
S21400183065637574697665206D6F64756C653A20AE
S214001840000909090909092E2E2E54686520706FB3
S21400185072742069736E277420636F6E666967758D
S21400186072656420666F7220776F726B207769747A
S214001870682050574D002E204974206973207265E9
S2140018806164792061732050574D000909090909E0
S214001890092E2E2E457865637574697665206D6F02
S2140018A064756C653A20002E204974206973207296
S2140018B06561647920617320537465707065722069
S2140018C06D6F746F7220000909090909092E2E2E02
S2140018D0457865637574697665206D6F64756C65AB
S2140018E03A20003D3D3D3D3D3D3D3D3D3D3D3D3D80
S2140018F03D3D3D3D3D3D3D3D3D3D3D3D3D3D3D3D13
S2140019003D3D3D3D3D3D3D3D3D3D3D3D3D3D3D3D02
S2140019103D3D003D3D3D3D3D20D098D0B7D0BCD0AC
S214001920B5D180D0B5D0BDD0BDD18BD0B520D0BF7D
S214001930D0BED0BAD0B0D0B7D0B0D0BDD0B8D18F8E
S21400194020D0B2D181D0B5D18520D0B4D0B0D1824C
S214001950D187D0B8D0BAD0BED0B2203D3D3D3D3DB7
S2140019603D003D3D3D3D3D3D3D3D3D3D3D3D3D3DDF
S2140019703D3D3D3D3D3D3D3D3D3D3D3D3D3D3D3D92
S2140019803D3D3D3D3D3D3D3D3D3D3D3D3D3D3D3D82
S2140019903D0009D09ED0BFD180D0BED18120D0B42A
S2140019A0D0B0D182D187D0B8D0BAD0BED0B22E2E89
S2140019B02E000026535F313D0026535F323D002641
S2140019C0535F333D0026535F343D0026535F353D5D
S2140019D00026535F363D0026535F373D0026535F93
S2140019E0383D0026535F393D0026535F31303D00B9
S2140019F026535F31313D0026535F31323D0026537A
S214001A005F31333D0026535F31343D0026535F314E
S214001A10353D0026535F31363D00265643433D0094
S214001A202200D09DD0B0D0BFD180D18FD0B6D0B557
S214001A30D0BDD0B8D0B520D0BFD0B8D182D0B0D02D
S214001A40BDD0B8D18F3A20004F4B0009D092D0BEFF
S214001A50D181D181D182D0B0D0BDD0BED0B2D0BBE2
S214001A60D0B5D0BDD0B8D0B520D0B7D0BDD0B0D1CD
S214001A7087D0B5D0BDD0B8D0B920D180D0B0D0B145
S214001A80D0BED187D0B8D18520D0BFD0B5D180D038
S214001A90B5D0BCD0B5D0BDD0BDD18BD1852E2E2E25
S214001AA000D0A1D0BED185D180D0B0D0BDD0B5D029
S214001AB0BDD0B8D0B520D0B7D0BDD0B0D187D0B5C6
S214001AC0D0BDD0B8D0B920D180D0B0D0B1D0BED1A2
S214001AD087D0B8D18520D0BFD0B5D180D0B5D0BC06
S214001AE0D0B5D0BDD0BDD18BD18520D0B4D0BBD1A0
S214001AF08F20D0BFD0B5D180D0B5D0B7D0B0D0B3BE
S214001B00D180D183D0B7D0BAD0B82E2E2E00D0A098
S214001B10D0B5D0B6D0B8D0BC20D0BAD0BED0BDD10B
S214001B2084D0B8D0B3D183D180D0B8D180D0BED045
S214001B30B2D0B0D0BDD0B8D18F20D0B2D18BD0BA71
S214001B40D0BBD18ED187D0B5D0BD00D09AD0BED074
S214001B50BDD182D180D0BED0BBD0BBD0B5D1802085
S214001B60D0B220D180D0B5D0B6D0B8D0BCD0B520B9
S214001B70D0BAD0BED0BDD184D0B8D0B3D183D180B6
S214001B80D0B8D180D0BED0B2D0B0D0BDD0B8D18F72
S214001B9000312000702000D0A0D0B5D0B6D0B8D08C
S214001BA0BC20D0BAD0BED0BDD184D0B8D0B3D183FB
S214001BB0D180D0B8D180D0BED0B2D0B0D0BDD0B851
S214001BC0D18F20D0B2D18BD0BAD0BBD18ED187D016
S214001BD0B5D0BD00D092D0BAD0BBD18ED187D0B50B
S214001BE0D0BD20D180D0B5D0B6D0B8D0BC20D0BA29
S214001BF0D0BED0BDD184D0B8D0B3D183D180D0B838
S214001C00D180D0BED0B2D0B0D0BDD0B8D18F004534
S214001C10525200200020002000200020002000203B
S214001C20003000200020002000200020002000209F
S214001C30002000200020002000200020002000209F
S214001C400063203020003D3D3D3D3D3D3D3D3D3D5A
S214001C503D3D3D3D3D3D3D3D3D3D3D3D3D3D3D3DAF
S214001C603D3D3D3D3D3D3D3D3D3D3D3D3D3D0020F9
S214001C70D181D0B5D0BA0009D0A6D0B8D0BAD0BBE2
S214001C80D0B8D187D0B5D181D0BAD0B0D18F20D03E
S214001C90B7D0B0D0BFD0B8D181D18C20D0BDD0B015
S214001CA020534420D0BFD0BED0BAD0B0D0B7D0B02A
S214001CB0D0BDD0B8D0B920D0B4D0B0D182D187D0E2
S214001CC0B8D0BAD0BED0B23A200020D181D0B5D09C
S214001CD0BA0009D09ED0BFD180D0BED18120D0B46A
S214001CE0D0B0D182D187D0B8D0BAD0BED0B23A2048
S214001CF00020D181D0B5D0BA0009D092D18BD0BA0D
S214001D00D0BBD18ED187D0B5D0BDD0B8D0B520D07D
S214001D10BFD0BED0B4D181D0B2D0B5D182D0BAD0E7
S214001D20B820D18DD0BAD180D0B0D0BDD0B03A20B6
S214001D3000D098D0BDD182D0B5D180D0B2D0B0D0AE
S214001D40BBD18B20D0B7D0B0D0BFD183D181D0BA91
S214001D50D0B020D1842DD186D0B8D0B93A00D09258
S214001D60D18BD0BAD0BBD18ED187D0B5D0BD00D064
S214001D7092D0BAD0BBD18ED187D0B5D0BD0009479E
S214001D805052533A2000D181D0B5D0BA0009D09233
S214001D90D180D0B5D0BCD18F20D0BFD0B5D180D027
S214001DA0B5D0B7D0B0D0B3D180D183D0B7D0BAD069
S214001DB0B820D0BCD0BED0B4D183D0BBD18F3A200F
S214001DC000D181D0B5D0BA0009D09CD0B0D0BAD15D
S214001DD081D0B8D0BCD0B0D0BBD18CD0BDD0BED016
S214001DE0B520D0B2D180D0B5D0BCD18F20D0BED057
S214001DF0B6D0B8D0B4D0B0D0BDD0B8D18F20D0BE79
S214001E00D182D0B2D0B5D182D0B03A2000D181D024
S214001E10B5D0BA0009D098D0BDD182D0B5D180D087
S214001E20B2D0B0D0BB20D0BFD180D0BED0B2D0B55B
S214001E30D180D0BAD0B820D180D0B5D0B3D0B8D168
S214001E4081D182D180D0B0D186D0B8D0B83A200027
S214001E50D092D0BAD0BBD18ED187D0B5D0BD00D06D
S214001E6092D18BD0BAD0BBD18ED187D0B5D0BD00A1
S214001E7047534D20D0BCD0BED0B4D183D0BBD18C7C
S214001E803A200063D0B5D0BA0009D0A2D0B0D0B9FD
S214001E90D0BCD0B0D183D18220D0B2D18BD0BAD032
S214001EA0BBD18ED187D0B5D0BDD0B8D18F3A200067
S214001EB0D092D0BAD0BBD18ED187D0B0D182D18CBF
S214001EC020D0BFD0BE20D182D180D0B5D0B1D0BE78
S214001ED0D0B2D0B0D0BDD0B8D18E00D092D181D003
S214001EE0B5D0B3D0B4D0B020D0B2D0BAD0BBD18E9B
S214001EF0D187D0B5D0BD00426C7565746F6F7468BD
S214001F0020D0BCD0BED0B4D183D0BBD18C3A200078
S214001F10D097D0B0D0BFD180D0B5D189D0B5D0BD04
S214001F20D0B000D0A0D0B0D0B7D180D0B5D188D0B6
S214001F30B5D0BDD0B000D097D0B0D0BFD0B8D1818A
S214001F40D18C20D0BDD0B020534420D0BAD0B0D150
S214001F5080D182D1833A2000D09BD0BED0B3D0B8F7
S214001F60D180D0BED0B2D0B0D0BDD0B8D0B520D001
S214001F70B220D182D0B5D180D0BCD0B8D0BDD0B040
S214001F80D0BB3A200009D0A2D0B5D0BAD181D18238
S214001F9020D0A1D09CD0A13A2000D094D0B000D0C0
S214001FA09DD0B5D18200D09ED182D0BFD180D0B096
S214001FB0D0B2D0BAD0B020D0A1D09CD0A120D0BE74
S214001FC020D181D182D0B0D180D182D0B520D0BAF4
S214001FD0D0BED0BDD182D180D0BED0BBD0BBD0B514
S214001FE0D180D0B03A200009D09FD0BED0BFD180DB
S214001FF0D0B0D0B2D0BED187D0BDD18BD0B920D092
S214002000BAD0BED18DD184D184D0B8D186D0B8D044
S214002010B5D0BDD18220D0B4D0BBD18F20D0B8D01F
S214002020B7D0BCD0B5D180D0B5D0BDD0B8D18F3A5E
S214002030200009D092D185D0BED0B4D0BDD0BED0BD
S214002040B520D0BDD0B0D0BFD180D18FD0B6D0B55E
S214002050D0BDD0B8D0B53A20002028D097D0B0D088
S214002060BFD0B8D181D18C20D0BDD0B02053442071
S214002070D0BAD0B0D180D182D18320D0BED182D088
S214002080BAD0BBD18ED187D0B5D0BDD0B02900D0C4
S2140020909FD0B8D181D0B0D182D18C20D0BDD0B065
S2140020A020534420D0BAD0B0D180D182D183002032
S2140020B02847534D20D0BCD0BED0B4D183D0BBD19E
S2140020C08C20D0BED182D0BAD0BBD18ED187D0B52D
S2140020D0D0BD2900D09ED182D0BFD180D0B0D0B2A2
S2140020E0D0BBD18FD182D18C20D0A1D09CD0A100E2
S2140020F0D09DD0B520D180D0B5D0B0D0B3D0B8D197
S21400210080D0BED0B2D0B0D182D18C0009D0A0D0C1
S214002110B5D0B0D0BAD186D0B8D18F20D0BDD0B08F
S21400212020D181D0BDD0B8D0B6D0B5D0BDD0B8D033
S214002130B5205643433A200009D09CD0B8D0BDD035
S214002140B8D0BCD0B0D0BBD18CD0BDD0BED0B5201E
S2140021505643433A2000D094D0B000D09DD0B5D19D
S2140021608200D0A3D0BFD180D0B0D0B2D0BBD0B583
S214002170D0BDD0B8D0B520D0BDD0B0D0BFD180D1E2
S2140021808FD0B6D0B5D0BDD0B8D0B5D0BC20D0BFDB
S214002190D0B8D182D0B0D0BDD0B8D18F3A2000D040
S2140021A09DD0B0D0B7D0B2D0B0D0BDD0B8D0B520CA
S2140021B0D0BAD0BED0BDD182D180D0BED0BBD0BB2D
S2140021C0D0B5D180D0B03A20003D3D3D3D3D3D3DAF
S2140021D020D09AD0BED0BDD184D0B8D0B3D183D1D0
S2140021E080D0B0D186D0B8D18F20D0BAD0BED0BDE6
S2140021F0D182D180D0BED0BBD0BBD0B5D180D0B03C
S214002200203D3D3D3D3D3D3D00D09AD0BED0BDD1A8
S21400221084D0B8D0B3D183D180D0B0D186D0B8D155
S2140022208F20D0BED0B1D0BDD0BED0B2D0BBD0B53E
S214002230D0BDD0B0006D20006D200027206973202F
S214002240757064617465640053657474696E677351
S214002250206F6620746865206D6F64756C65202736
S2140022600020002000200020002000200020002069
S2140022700020002000200020002000200020002059
S21400228000300020003D3D3D3D3D3D3D3D3D3D3D5A
S2140022903D3D3D3D3D3D3D3D3D3D3D3D3D3D3D3D69
S2140022A03D3D3D3D3D3D3D3D0053776974636820AF
S2140022B0636F756E7465720055702073776974630A
S2140022C06800547970652055502073776974636888
S2140022D03A20000053776974636820555020706F69
S2140022E072743A20000053776974636820444F572D
S2140022F04E20706F72743A200042696E64206772D6
S2140023006F75703A20005468652074797065206F88
S2140023106620746865206D6F64756C652069736EE1
S214002320277420636F6E6669677572656400004384
S2140023306F6E74726F6C20706F72743A200044690E
S214002340676974616C20706F7274004D6178496DB6
S214002350703A20004D696E496D703A20004D616EEE
S21400236075616C004175746F6D61746963004D6FC3
S214002370646520636F6E6669677572653A20004D06
S214002380617820616E676C65206F66207475726E6A
S2140023903A200074686520706F72742069736E2727
S2140023A07420636F6E666967757265640000436FBC
S2140023B06E74726F6C20706F72743A200053657280
S2140023C0766F206D6F746F7200323535004D617810
S2140023D0206C69667420726F746174696F6E3A203F
S2140023E00074686520706F72742069736E2774209D
S2140023F0636F6E666967757265640000D0A3D0BFB0
S214002400D180D0B0D0B2D0BBD18FD18ED189D0B848
S214002410D0B920D0BFD0BED180D18200D0A8D0986D
S214002420D09C00D188D0B0D0B3D0B000312F00D02F
S21400243094D0B5D0BBD0B8D182D0B5D0BBD18C208B
S214002440D188D0B0D0B3D0B020D0B4D180D0B0D066
S214002450B9D0B2D0B5D180D0B03A2000D188D0B0B3
S214002460D0B3D0BED0B22FD181D0BC00D09AD0BECF
S214002470D0BB2DD0B2D0BE20D0BED0B1D0BED18081
S214002480D0BED182D0BED0B220D0BDD0B02031D107
S21400249081D0BC20D0BFD0BED0B4D18AD0B5D0BCFD
S2140024A0D0B03A2000D188D0B0D0B3D0BED0B22FB2
S2140024B0D181D0B5D0BAD183D0BDD0B4D1835E326D
S2140024C000D09CD0B0D0BAD181D0B8D0BCD0B0D0DB
S2140024D0BBD18CD0BDD0BED0B520D183D181D0BAEF
S2140024E0D0BED180D0B5D0BDD0B8D0B53A2000D1BE
S2140024F088D0B0D0B3D0BED0B22FD181D0B5D0BAAC
S214002500D183D0BDD0B4D18300D09CD0B0D0BAD1C6
S21400251081D0B8D0BCD0B0D0BBD18CD0BDD0B0D1DB
S2140025208F20D181D0BAD0BED180D0BED181D18209
S214002530D18C3A2000D181D0BC00D09CD0B0D0BA8B
S214002540D181D0B8D0BCD0B0D0BBD18CD0BDD0B0AB
S214002550D18F20D0B2D18BD181D0BED182D0B02045
S214002560D0BED182D0BAD180D18BD182D0B8D18F13
S2140025703A2000D0A0D183D187D0BDD0BED0B9003C
S214002580D090D0B2D182D0BED0BCD0B0D182D0B89C
S214002590D187D0B5D181D0BAD0B8D0B900D0A0D02C
S2140025A0B5D0B6D0B8D0BC20D180D0B0D0B1D0BED7
S2140025B0D182D18B3A200000D09FD0BED180D1826C
S2140025C020D183D0BFD180D0B0D0B2D0BBD0B5D0D0
S2140025D0BDD0B8D18F3A2000D0A8D0B0D0B3D0BEEE
S2140025E0D0B2D18BD0B920D0BCD0BED182D0BED193
S2140025F08000D0A2D0B8D0BF20D0BCD0BED0B4D13E
S21400260083D0BBD18F3A2000D09ED188D0B8D0B12D
S214002610D0BAD0B000D092D0BAD0BBD18ED187D0AD
S214002620B5D0BD00D092D18BD0BAD0BBD18ED187D9
S214002630D0B5D0BD00D0A1D0BED181D182D0BED180
S2140026408FD0BDD0B8D0B520D0BCD0BED0B4D1834A
S214002650D0BBD18F3A200027203D3D3D3D3D3D3D3E
S214002660003D3D3D3D3D3D3D20436F6E66696775CF
S214002670726174696F6E206D6F64756C65202700DB
S21400268020002000200020002000200020002E0037
S2140026902E0020003A003A0053756E6461790053AC
S2140026A06174757264617900467269646179005478
S2140026B068757273646179005765646E65736461EA
S2140026C0790054756573646179004D6F6E64617945
S2140026D00020002000436F6E66696775726174693A
S2140026E06F6E204461746520616E642054696D6568
S2140026F03A202020002000742000455252004F4B04
S21400270000D092D18BD0BAD0BBD18ED187D0B5D0E5
S214002710BDD0B8D0B520D0BDD0B0D187D0B0D0BB5A
S214002720D18CD0BDD0BED0B3D0BE20D0B2D0BED01B
S214002730B7D0B2D180D0B0D182D0B020D0B8D181BD
S214002740D0BF2E20D0BCD0BED0B4D183D0BBD0B5A5
S214002750D0B920D0B220D0BDD183D0BBD0B82E2ED9
S2140027602E0041542B4346554E3F0041542B434FB9
S214002770504E0041542B4342430041542B4753567E
S2140027800041542B47534E0041542B4343414C5277
S2140027903F0041542B43474D0041542B4350415377
S2140027A00041542B434F50533F0041542B43524556
S2140027B0473F0041542B4353510041544900415474
S2140027C0003A003A0020D0B4D0BDD0B5D0B920D061
S2140027D0B82000557074696D653A2000200020000E
S2140027E020003D3D3D3D3D20D09FD0B5D180D0B5A9
S2140027F0D0B7D0B0D0B3D180D183D0B7D0BAD0B014
S214002800203D3D3D3D3D0044617461206973206577
S21400281072726F7200D0A3D180D0BED0B2D0B5D0C5
S214002820BDD18C20D0BBD0BED0B3D0B8D180D0BE66
S214002830D0B2D0B0D0BDD0B8D18F20D0B2205541C4
S21400284052543A2000D092D181D0B50047534D2043
S214002850D0BCD0BED0B4D183D0BBD18C00D098D160
S21400286081D0BFD0BED0BBD0BDD0B8D182D0B5D07D
S214002870BBD18CD0BDD18BD0B520D0BCD0BED0B40F
S214002880D183D0BBD0B800D093D180D183D0BFD075
S214002890BFD18B20D183D0BFD180D0B0D0B2D0BB37
S2140028A0D0B5D0BDD0B8D18F00D094D0B0D182D121
S2140028B087D0B8D0BAD0B800D092D18BD0BAD0BB1F
S2140028C0D18ED187D0B5D0BDD0BE00446174612012
S2140028D067726F757020696E20454550524F4D20C7
S2140028E069732075706461746564003D3D3D3D3DCF
S2140028F03D3D3D3D3D3D3D3D3D3D3D3D3D3D3D3D03
S2140029003D3D3D3D3D3D3D3D3D3D3D3D3D3D3D3DF2
S2140029103D3D0000200045786563206D6F64756C52
S214002920653A200045787465726E616C206D6F6440
S214002930653A2049742069736E277420636F6E664B
S2140029406967757265640054696D65725F64656C6D
S2140029507461003A0054696D652073746172743A4C
S21400296020003A0054696D652073746F703A200039
S2140029703A0054696D652073746172743A200000E1
S214002980455F4D696E56616C756547726F75703A36
S21400299020004D696E56616C756547726F75703AAA
S2140029A020004D617856616C756547726F75703A98
S2140029B020004D696E56616C756547726F75703A8A
S2140029C020000000202056616C75653A2000536593
S2140029D06E736F723A200049742069736E277420F4
S2140029E0636F6E66696775726564002835292054C2
S2140029F0696D6572206D6F64652E20506172616D21
S214002A00657465722035002834292054696D657216
S214002A10206D6F64652E20506172616D65746572FD
S214002A2020340028332920546865726D6F737461F2
S214002A3074206D6F64652E204D616E6167656D65EF
S214002A406E742061742076616C7565206F662074E4
S214002A5068652073656E736F72206973206C65738A
S214002A6073207468616E20455F4D696E56616C75A3
S214002A706547726F75700028322920546865726D3C
S214002A806F73746174206D6F64652E204D616E6186
S214002A9067656D656E742061742065786365737311
S214002AA0206F6620455F4D696E56616C756547728E
S214002AB06F75702076616C75650028312920546822
S214002AC065726D6F73746174206D6F64652E20502F
S214002AD0726F706F7274696F6E616C206D616E617B
S214002AE067656D656E7400436F6E74726F6C6C5FB5
S214002AF047726F75703A20006F6666006F6E0053FF
S214002B0074617475733A200027203D3D3D3D3D3D80
S214002B103D3D3D3D3D003D3D3D3D3D3D3D3D3D3D1D
S214002B203D20436F6E6669672067726F7570202759
S214002B300020002000200020002000200020002090
S214002B400020002000300020006720007320007363
S214002B5020004572726F727320697320636C656122
S214002B606E696E672121210020697320636F6E668F
S214002B7069677572696E6720696E20454550524FC9
S214002B804D202020202020202020200053656E731A
S214002B906F7220002000200020002000200020006F
S214002BA02000200020002000200020002000200020
S214002BB02000200020002000200020002000200010
S214002BC0200020002000300020003D3D3D3D3D3DE2
S214002BD03D3D3D3D3D3D3D3D3D3D3D3D3D3D3D3D20
S214002BE03D3D3D3D3D3D3D3D3D3D3D3D3D3D3D3D10
S214002BF03D00D09DD0B8D187D0B5D0B3D0BE00D0E0
S214002C0093D180D183D0BFD0BFD0B0203500D09331
S214002C10D180D183D0BFD0BFD0B0203400D093D1E4
S214002C2080D183D0BFD0BFD0B0203300D093D18026
S214002C30D183D0BFD0BFD0B0203200D093D180D1C6
S214002C4083D0BFD0BFD0B020310009094C45442006
S214002C50D0BFD0B0D0BDD0B5D0BBD18C3A2000D03C
S214002C609ED182D0BAD0BBD18ED187D0B5D0BDD0C0
S214002C70B020D0B3D0BBD0BED0B1D0B0D0BBD18CFA
S214002C80D0BDD0BE21212100D092D0BAD0BBD18EEB
S214002C90D187D0B5D0BDD0B000D092D18BD0BAD02D
S214002CA0BBD18ED187D0B5D0BDD0B0000909D097A2
S214002CB0D0B0D0BFD0B8D181D18C20D0BDD0B0207C
S214002CC0534420D0BAD0B0D180D182D1833A2000EC
S214002CD0D09DD0B8D187D0B5D0B3D0BE00D09ED1CD
S214002CE082D0BFD180D0B0D0B2D0B8D182D18C2023
S214002CF0D0BFD0BE204750525300D09ED182D0BF06
S214002D00D180D0B0D0B2D0B8D182D18C20D0A1D0D2
S214002D109CD0A1000909D092D0BDD0B5D188D0BD35
S214002D20D0B8D0B53A2000D0A0D0B5D0B0D0BAD167
S214002D3086D0B8D18F20D0BDD0B020D0BED188D01C
S214002D40B8D0B1D0BAD0B83A2000D09AD0BED0BB56
S214002D50D0B8D187D0B5D181D182D0B2D0BE20D064
S214002D60BED188D0B8D0B1D0BED187D0BDD18BD19E
S214002D708520D0B8D0B7D0BCD0B5D180D0B5D0BD26
S214002D80D0B8D0B920D0B4D0BE20D180D0B5D0B085
S214002D90D0BAD186D0B8D0B83A2000D09AD0BED01B
S214002DA0BBD0B8D187D0B5D181D182D0B2D0BE2029
S214002DB0D0BED188D0B8D0B1D0BED0BA20D0B8D08E
S214002DC0B7D0BCD0B5D180D0B5D0BDD0B8D18F20CB
S214002DD0D0BFD0BED0BAD0B0D0B7D0B0D0BDD0B8AB
S214002DE0D0B93A2000D09AD0BED0BBD0B8D187D0C8
S214002DF0B5D181D182D0B2D0BE20D0B8D0B7D0BCA9
S214002E00D0B5D180D0B5D0BDD0B8D0B920D0B4D050
S214002E10BE20D184D0B8D0BAD181D0B0D186D0B8B7
S214002E20D0B820D0BFD0BED0BAD0B0D0B7D0B0D0F7
S214002E30BDD0B8D0B93A2000D09DD0B520D0BDD0F6
S214002E40B0D181D182D180D0BED0B5D0BDD0BE2089
S214002E502864656661756C743A2031336D73290099
S214002E603430326D73003130316D730031336D7331
S214002E7000D092D180D0B5D0BCD18F20D0BAD0BEF1
S214002E80D0BDD0B2D0B5D180D182D0B0D186D0B8A6
S214002E90D0B83A2000D09DD0B520D0BDD0B0D181DA
S214002EA0D182D180D0BED0B5D0BDD0BE202864653A
S214002EB06661756C743A20D0B0D0B2D182D0BE2094
S214002EC0D183D181D0B8D0BBD0B5D0BDD0B8D0B525
S214002ED0290031780031367800D092D0B5D0BBD0FA
S214002EE0B8D187D0B8D0BDD0B020D183D181D0B8EA
S214002EF0D0BBD0B5D0BDD0B8D18F3A2000D09DD0B1
S214002F00B520D0BDD0B0D181D182D180D0BED0B5D1
S214002F10D0BDD0BE202864656661756C743A20D03A
S214002F209BD18ED0BCD0B5D0BDD18B2900D09BD143
S214002F308ED0BAD181D18B00D09BD18ED0BCD0B5EB
S214002F40D0BDD18B00D095D0B4D0B8D0BDD0B8D13C
S214002F5086D18B20D0B8D0B7D0BCD0B5D180D0B574
S214002F60D0BDD0B8D18F3A2000495220D181D0BFF1
S214002F70D0B5D0BAD182D18000D09FD0BED0BBD041
S214002F80BDD18BD0B920D181D0BFD0B5D0BAD18237
S214002F90D18000D092D0B8D0B4D0B8D0BCD18BD02D
S214002FA0B920D181D0BFD0B5D0BAD182D18000D0DF
S214002FB0A1D0BFD0B5D0BAD182D18020D0B8D0B7FA
S214002FC0D0BCD0B5D180D0B5D0BDD0B8D0B93A201D
S214002FD000D097D0BDD0B0D187D0B5D0BDD0B8D0B6
S214002FE0B520D090D0A6D09F20D0B4D0BBD18F2013
S214002FF0313030253A2000D097D0BDD0B0D187D020
S214003000B5D0BDD0B8D0B520D090D0A6D09F20D017
S214003010B4D0BBD18F2030253A2000D097D0BDD079
S214003020B0D187D0B5D0BDD0B8D0B520D090D0A67E
S214003030D09F00D09FD180D0BED186D0B5D0BDD194
S21400304082D18B00D095D0B4D0B8D0BDD0B8D186C0
S214003050D18B20D0B8D0B7D0BCD0B5D180D0B5D029
S214003060BDD0B8D18F3A2000D0B1D0B8D18200D030
S214003070A0D0B0D0B7D180D0B5D188D0B5D0BDD093
S214003080B8D0B520D0B4D0B0D182D187D0B8D0BA1D
S214003090D0B03A2000D092D18BD0BAD0BBD18ED14E
S2140030A087D0B5D0BDD0BE006D730009D097D0B024
S2140030B0D0B4D0B5D180D0B6D0BAD0B020D0BFD0A2
S2140030C0BED181D0BBD0B520D0B2D0BAD0BBD18EC5
S2140030D0D187D0B5D0BDD0B8D18F20D0BFD0BED18B
S2140030E080D182D0B03A2000D09FD0BED180D1828D
S2140030F020D0BDD0B520D181D0BAD0BED0BDD1842D
S214003100D0B8D0B3D183D180D0B8D180D0BED0B221
S214003110D0B0D0BD2121210009D09FD0BED180D112
S2140031208220D183D0BFD180D0B0D0B2D0BBD0B5B2
S214003130D0BDD0B8D18F3A2000D092D0BAD0BBD173
S2140031408ED187D0B5D0BDD0BE00D098D181D0BFAB
S214003150D0BED0BBD18CD0B7D0BED0B2D0B0D0BD50
S214003160D0B8D0B520D0BFD0BED180D182D0B020CC
S214003170D183D0BFD180D0B0D0B2D0BBD0B5D0BD77
S214003180D0B8D18F3A2000D090D0B2D182D0BED065
S214003190BCD0B0D182D0B8D187D0B5D181D0BAD08A
S2140031A0B8D0B900D181D0B5D0BA0009D098D0BD7A
S2140031B0D182D0B5D180D0B2D0B0D0BB20D0B8D0DC
S2140031C0B7D0BCD0B5D180D0B5D0BDD0B8D18F3AAD
S2140031D02000D0A0D183D187D0BDD0BED0B900D03A
S2140031E098D0BDD182D0B5D180D0B2D0B0D0BB20DF
S2140031F0D0B8D0B7D0BCD0B5D180D0B5D0BDD0B8BF
S214003200D18F20D0BFD0BED0BAD0B0D0B7D0B0D03B
S214003210BDD0B8D0B93A20002000D09ED188D0B812
S214003220D0B1D0BAD0B820D0BFD0BED0BAD0B0D0EF
S214003230B7D0B0D0BDD0B8D0B93A200009003A20F7
S2140032400020D097D0BDD0B0D187D0B5D0BDD0B8F3
S214003250D0B55F00D09FD180D0B8D0B2D18FD0B7D4
S214003260D0BAD0B020D0BA20D0B3D180D183D0BFCE
S214003270D0BFD0B53A2000D092D18BD0BAD0BBD137
S2140032808ED187D0B5D0BD00D092D0BAD0BBD18E6B
S214003290D187D0B5D0BD0027203D3D3D3D3D3D3DCD
S2140032A03D3D3D003D3D3D3D3D3D3D3D3D3D20D010
S2140032B09AD0BED0BDD184D0B8D0B3D183D180D07F
S2140032C0B0D186D0B8D18F20D0B4D0B0D182D1873B
S2140032D0D0B8D0BAD0B0202700D09DD0B0D0BFD1C3
S2140032E080D18FD0B6D0B5D0BDD0B8D0B520D0B8AC
S2140032F020D182D0BED0BA00D0A2D0B5D0BCD0BF2C
S214003300D0B5D180D0B0D182D183D180D0B02C209E
S214003310D0B2D0BBD0B0D0B6D0BDD0BED181D182D5
S214003320D18C20D0B2D0BED0B7D0B4D183D185D086
S214003330B220D0B820D0B0D182D0BC2E20D0B4D00D
S214003340B0D0B2D0BBD0B5D0BDD0B8D0B500D0903C
S214003350D182D0BC2E20D0B4D0B0D0B2D0BBD0B5A5
S214003360D0BDD0B8D0B520D0B820D0B2D0BBD0B069
S214003370D0B6D0BDD0BED181D182D18C20D0B2D033
S214003380BED0B7D0B4D183D185D0B000D0A2D0B54E
S214003390D0BCD0BFD0B5D180D0B0D182D183D180BF
S2140033A0D0B020D0B820D0B0D182D0BC2E20D0B49F
S2140033B0D0B0D0B2D0BBD0B5D0BDD0B8D0B500D08C
S2140033C0A2D0B5D0BCD0BFD0B5D180D0B0D182D13C
S2140033D083D180D0B020D0B820D0B2D0BBD0B0D06F
S2140033E0B6D0BDD0BED181D182D18C20D0B2D0BED5
S2140033F0D0B7D0B4D183D185D0B000D090D0BDD0D6
S214003400B0D0BBD0BED0B3D0BED0B2D18BD0B5205A
S214003410D0B8D0B7D0BCD0B5D180D0B5D0BDD0B89C
S214003420D18F00D0A2D0BED0BA00D09DD0B0D0BF31
S214003430D180D18FD0B6D0B5D0BDD0B8D0B500D061
S21400344090D182D0BCD0BED181D184D0B5D180D02D
S214003450BDD0BED0B520D0B4D0B0D0B2D0BBD0B5E1
S214003460D0BDD0B8D0B500D09ED181D0B2D0B5D125
S21400347089D0B5D0BDD0B8D0B500D092D0BBD0B032
S214003480D0B6D0BDD0BED181D182D18C20D0BFD015
S214003490BED187D0B2D18B00D092D0BBD0B0D0B640
S2140034A0D0BDD0BED181D182D18C20D0B2D0BED0FA
S2140034B0B7D0B4D183D185D0B000D0A2D0B5D0BC1F
S2140034C0D0BFD0B5D180D0B0D182D183D180D0B09A
S2140034D000D0A2D0B8D0BF20D0B8D0B7D0BCD0B51E
S2140034E0D180D0B5D0BDD0B8D18F3A2000290020E9
S2140034F0284445433A2000307800D090D0B4D1809C
S214003500D0B5D1813A2000494E4133323231004C99
S2140035104D3735004D41583434303039004248314B
S2140035203735300054534C323536310000D09FD0FA
S214003530BED180D1823A2000416E616C6F67205305
S214003540656E736F7200494E4132313900424D50FC
S21400355032383000424D4532383000536937303209
S214003560312C2048545532314400414D32333230EC
S214003570003A00D090D0B4D180D0B5D1813A2000A6
S2140035804453313842323000D09DD0B0D0B8D0BC91
S214003590D0B5D0BDD0BED0B2D0B0D0BDD0B8D0B5EA
S2140035A03A2000202000646F6E650A004E6F2049A6
S2140035B03243206465766963657320666F756E6452
S2140035C00A003000556E6B6E6F776E206572726FF4
S2140035D072206174206164647265737320307800B1
S2140035E0274C4344204F4C454420313238783634FB
S2140035F0270027424D503138302C20424D5032386B
S214003600302C20424D45323830206261726F6D6535
S2140036107472696320707265737375726520736562
S2140036206E736F72270027424D503138302C20427F
S2140036304D503238302C20424D45323830206261B1
S214003640726F6D65747269632070726573737572DC
S214003650652073656E736F722700274C4344204FB6
S2140036604C454420313238783634270027445333CB
S214003670323331207265616C2D74696D6520636C20
S2140036806F636B27204F5220274D50552D3932350A
S21400369030204E696E6520617869732073656E739D
S2140036A06F72206D6F64756C652700274144584C17
S2140036B033343520496E70757420332D4178697324
S2140036C0204469676974616C20416363656C657248
S2140036D06F6D657465722700274154323443333268
S2140036E020454550524F4D27002741445331313134
S2140036F035204D6F64756C652031362D4269742710
S214003700002741445331313135204D6F64756C6567
S2140037102031362D42697427002741445331313118
S21400372035204D6F64756C652031362D42697427DF
S214003730204F5220275350492D746F2D5541525417
S21400374027002741445331313135204D6F64756C65
S214003750652031362D426974270027424D50313896
S214003760302C205369373031332C205369373032B0
S214003770302C205369373032312C204854553231A2
S214003780442C20534854323127002754534C3235AA
S214003790363120416D6269656E74204C69676874C5
S2140037A02053656E736F72270027504346383537AF
S2140037B03420382D42697420492F4F204578706197
S2140037C06E64657227204F5220274C434D313630A9
S2140037D032204C4344204164617074657220270097
S2140037E0275043463835373420382D4269742049EF
S2140037F02F4F20457870616E64657227002750430E
S214003800463835373420382D42697420492F4F20EA
S214003810457870616E6465722700275043463835D8
S214003820373420382D42697420492F4F2045787050
S214003830616E64657227002750434638353734205A
S214003840382D42697420492F4F20457870616E6488
S214003850657227204F52202742483137353046566A
S21400386049206469676974616C204C6967687420D4
S21400387053656E736F7227002750434638353734CA
S21400388020382D42697420492F4F20457870616E8C
S2140038906465722700275043463835373420382D64
S2140038A042697420492F4F20457870616E646572B6
S2140038B02700275043463835373420382D42697460
S2140038C020492F4F20457870616E64657227204F1F
S2140038D05220274C434D31363032204C4344204151
S2140038E064617074657227200027546F75636820C2
S2140038F053656E736F72270027424831373530465E
S2140039005649206469676974616C204C69676874FD
S2140039102053656E736F7227204F522027546F75A1
S21400392063682053656E736F720027546F75636803
S2140039302053656E736F72270027546F7563682077
S21400394053656E736F72270027484D4335383833FA
S21400395020332D41786973204469676974616C204F
S214003960436F6D706173732700274144584C33349E
S2140039703520496E70757420332D41786973204464
S21400398069676974616C20416363656C65726F6D0D
S214003990657465722700274D6F746F7220447269D4
S2140039A07665722700274D6F746F722044726976B1
S2140039B065722700202D20003078005363616E6EFC
S2140039C0696E67206932632E2E2E00206973203CB4
S2140039D03C4F4E3E3E00206973203C3C4F46463EE0
S2140039E03E0069736E277420636F6E666967757232
S2140039F06564000909092E2E2E436F6E74726F6C73
S214003A006C20706F727420002E2E2E00206973209A
S214003A10636F6E6E656374656420746F2076616C88
S214003A207565200009092E2E2E7468652067726F52
S214003A307570200009093D3D3D3D3D3D3D3D3D3D08
S214003A403D3D3D3D3D3D3D3D3D3D3D3D3D3D3D3DA1
S214003A503D0009092E2E2ED0A1D0BED185D180D012
S214003A60B0D0BDD18FD0B5D0BC20D0BFD0BED0BBDB
S214003A70D183D187D0B5D0BDD18BD0B520D0B7D02B
S214003A80BDD0B0D187D0B5D0BDD0B8D18F00090990
S214003A902E2E2ED09DD0B0D0B8D0BCD0B5D0BDD0B4
S214003AA0BED0B2D0B0D0BDD0B8D0B520D0B4D0B093
S214003AB0D182D187D0B8D0BAD0B03A200020D0B8C2
S214003AC0D0B720002E2E2ED098D0B7D0BCD0B5D1EF
S214003AD080D0B5D0BDD0B8D0B52000092E2E2ED0BF
S214003AE094D0B0D182D187D0B8D0BA2000494E4108
S214003AF033323231004C4D3735004D415834343076
S214003B003039004248313735300054534C32353660
S214003B103100416E616C6F6720506F727400494EC1
S214003B204132313900424D5032383000424D453234
S214003B3038300048545532314400414D323330322B
S214003B400044533138423230000909092E2E2E74B3
S214003B50686520706F727420646F6573206E6F7472
S214003B6020737570706F727420616E616C6F672061
S214003B706D6561737572656D656E7473002E2E2E9D
S214003B80646F6E65000909092E2E2E6D65617375CA
S214003B9072656D656E7420414E414C4F475F5335DC
S214003BA0002E2E2E646F6E65000909092E2E2E6DCE
S214003BB06561737572656D656E7420414E414C4F3C
S214003BC0475F5334002E2E2E646F6E650009090978
S214003BD02E2E2E6D6561737572656D656E7420414F
S214003BE04E414C4F475F5333002E2E2E646F6E654A
S214003BF0000909092E2E2E6D6561737572656D6557
S214003C006E7420414E414C4F475F5332002E2E2E8D
S214003C10646F6E65000909092E2E2E6D6561737539
S214003C2072656D656E7420414E414C4F475F53314F
S214003C30003D3D3D3D3D3D3D3D3D3D3D3D3D3D3DEC
S214003C403D3D3D3D3D3D3D3D3D3D3D3D3D3D3D3D9F
S214003C503D3D3D3D3D3D3D3D3D3D3D3D3D3D3D3D8F
S214003C60002000200020200020200020002020002F
S214003C702D2D2D2D2D2D2D2D2D2D2D2D2D2D2D2D6F
S214003C802D2D2D2D2D2D2D2D2D2D2D2D2D2D2D2D5F
S214003C902D2D2D2D2D2D2D2D2D2D2D2D0020D09D76
S214003CA0D0B0D0B7D0B2D0B0D0BDD0B8D0B520202C
S214003CB07C2020D098D0B7D0BCD0B5D180D0B5D09D
S214003CC0BDD0BDD18BD0B520D0BFD0BED0BAD0B07D
S214003CD0D0B7D0B0D0BDD0B8D18F20207C20D09E19
S214003CE0D188D0B8D0B1D0BAD0B8002E2E2E646FFE
S214003CF06E65000909092E2E2E6D65617375726555
S214003D006D656E742048756D6D002E2E2E646F6E78
S214003D1065000909092E2E2E6D6561737572656D35
S214003D20656E742054656D70002E2E2E646F6E6561
S214003D30000909092E2E2E6D6561737572656D6515
S214003D406E742048756D6D002E2E2E646F6E6500A5
S214003D500909092E2E2E6D6561737572656D656E87
S214003D60742054656D70004572726F7220736574AE
S214003D7074696E67204D5452656720746F206869B9
S214003D8067682076616C756520666F72206C6F7749
S214003D90206C6967687420656E7669726F6E6D65F3
S214003DA06E740053657474696E67204D545265676F
S214003DB020746F20686967682076616C7565206678
S214003DC06F72206C6F77206C6967687420656E76FA
S214003DD069726F6E6D656E74004572726F722073D5
S214003DE0657474696E67204D5452656720746F2041
S214003DF064656661756C742076616C756520666FA7
S214003E0072206E6F726D616C206C696768742065D5
S214003E106E7669726F6E6D656E7400536574746944
S214003E206E67204D5452656720746F206465666126
S214003E30756C742076616C756520666F72206E6F87
S214003E40726D616C206C6967687420656E76697245
S214003E506F6E6D656E74004572726F722073657456
S214003E6074696E67204D5452656720746F206C6FBE
S214003E70772076616C756520666F72206869676862
S214003E80206C6967687420656E7669726F6E6D6502
S214003E906E740053657474696E67204D545265677E
S214003EA020746F206C6F772076616C756520666F66
S214003EB0722068696768206C6967687420656E762A
S214003EC069726F6E6D656E74002E2E2E646F6E6551
S214003ED0002E2E2EEEF8E8E1EAE020E8EBE820EFF0
S214003EE0EEEAE0E7E0EDE8FF20ECE5EDFCF8E520A3
S214003EF0EDF3EBFF000909092E2E2E6D6561737533
S214003F0072656D656E74204C69676874005F307802
S214003F103563005F30783233002E2E2E646F6E6568
S214003F20000909092E2E2E6D6561737572656D6523
S214003F306E74205072657373002E2E2E646F6E653D
S214003F40000909092E2E2E6D6561737572656D6503
S214003F506E742048756D6D002E2E2E646F6E650093
S214003F600909092E2E2E6D6561737572656D656E75
S214003F70742054656D70002E2E2E646F6E650009D9
S214003F8009092E2E2E6D6561737572656D656E74EA
S214003F90205072657373002E2E2E646F6E650009B6
S214003FA009092E2E2E6D6561737572656D656E74CA
S214003FB02048756D6D002E2E2E646F6E6500090903
S214003FC0092E2E2E6D6561737572656D656E742093
S214003FD048756D6D002E2E2E646F6E6500090909FA
S214003FE02E2E2E6D6561737572656D656E74205428
S214003FF0656D70002E2E2E646F6E65000909092E01
S2140040002E2E6D6561737572656D656E74205072C7
S214004010657373002E2E2E646F6E65000909092ED7
S2140040202E2E6D6561737572656D656E74204875AC
S2140040306D6D002E2E2E646F6E65000909092E2EFA
S2140040402E6D6561737572656D656E742054656D51
S21400405070002E2E2E646F6E65000909092E2E2E16
S2140040606D6561737572656D656E742050726573EB
S21400407073002E2E2E646F6E65000909092E2E2EF3
S2140040806D6561737572656D656E742054656D70CF
S214004090002E2E2E646F6E65000909092E2E2E6DD9
S2140040A06561737572656D656E74205072657373A5
S2140040B0002E2E2E646F6E65000909092E2E2E6DB9
S2140040C06561737572656D656E742054656D7000FC
S2140040D04572726F72206F662072656164696E67E2
S2140040E02000206F6E2073656E736F7220007072F2
S2140040F06573737572650074656D7065726174754D
S2140041007265002000204352433D002020002E0010
S2140041100909543D002000094164647265737328E0
S21400412044454329203D200020000941646472650F
S21400413073732848455829203D20006620002E2EFF
S2140041402E646F6E65002E2E2E646F6E65005365AE
S2140041506E736F722000206973206F66660009090F
S214004160092E2E2E6D6561737572656D656E7420F1
S21400417054656D7000002E2E2E6572726F72002EC2
S2140041802E2E6572726F72002E2E2E646F6E650074
S2140041900909092E2E2E6D6561737572656D656E43
S2140041A0742048756D6D002E2E2E6572726F72002B
S2140041B02E2E2E646F6E65000909092E2E2E6D6553
S2140041C061737572656D656E742054656D70002E32
S2140041D02E2E6572726F72002E2E2E646F6E650024
S2140041E00909092E2E2E6D6561737572656D656EF3
S2140041F0742048756D6D002E2E2E6572726F7200DB
S2140042002E2E2E646F6E65002E2E2E646F6E650049
S2140042100909092E2E2E6D6561737572656D656EC2
S214004220742054656D70002E2E2E646F6E65000926
S21400423009092E2E2E6D6561737572656D656E7437
S2140042402043757272656E74002E2E2E646F6E6536
S214004250000909092E2E2E6D6561737572656D65F0
S2140042606E7420566F6C74616765002E2E2E646F18
S2140042706E65000909092E2E2E6D656173757265CF
S2140042806D656E742043757272656E74002E2E2EE8
S214004290646F6E65000909092E2E2E6D65617375B3
S2140042A072656D656E7420566F6C74616765002E5E
S2140042B02E2E646F6E65000909092E2E2E6D65611F
S2140042C0737572656D656E74204C69676874005FFF
S2140042D030783461002E2E2E646F6E650009090951
S2140042E02E2E2E6D6561737572656D656E74204C2D
S2140042F069676874005F30783439005F3078323927
S214004300005F307833390022003D3D3D3D3D3D2085
S2140043103420D0BDD0B520D183D0B4D0B0D187D092
S214004320BDD18BD0B520D0BFD0BED0BFD18BD1826F
S214004330D0BAD0B820D0B8D0BDD0B8D186D0B8D0FA
S214004340B0D0BBD0B8D0B7D0B0D186D0B8D0B82017
S214004350475052532C20D0BFD0B5D180D0B5D0B75F
S214004360D0B0D0BFD183D181D0BAD0B0D0B5D0BC78
S2140043702E2E2E203D3D3D3D3D3D00436F6E74721A
S2140043806F6C6C6572206973207265626F6F7469FA
S2140043906E6700436F6E74726F6C6C657220697323
S2140043A020737461727465642C20004D6F64756CA4
S2140043B0652000206572726F72202020002E2E2E3F
S2140043C06572726F72004D6F64756C6520002064B4
S2140043D06F6E65202020002E2E2E646F6E650009FD
S2140043E02E2E2E4D6F64756C652000496E697469BB
S2140043F0616C697A6174696F6E2045786563204DDB
S2140044006F64756C653A2000496E697469616C6901
S2140044107A204D6F64756C65004F4B00526573745F
S2140044206F72207661726961626C657300496E69AD
S2140044307469616C697A6174696F6E20457865632A
S214004440204D6F64756C6500496E69742053656E07
S214004450736F727300496E697469616C697A696E0C
S214004460672053656E736F72733A20003D3D3D3D85
S2140044703D207363616E657220445331384232309A
S214004480203D3D3D3D3D003D3D3D3D3D2069326387
S214004490207363616E6572203D3D3D3D3D004C6975
S2140044A07374206F6620617661696C61626C65204A
S2140044B073656E736F72733A200052656769737422
S2140044C065724D435553523A20004C6F772063680F
S2140044D061726765206F6620746865206261747417
S2140044E0657279006C6F7720636861726765004F4C
S2140044F04B004F4B000943616C63756C617465201B
S2140045005643432E2E2E0043616C63756C617465B2
S214004510205643432E2E2E20202000636F6E6669A1
S214004520672E206D6F64652020202000436F6E7418
S214004530726F6C6C657220696E20202000D09AD055
S214004540BED0BDD182D180D0BED0BBD0BBD0B5D17D
S2140045508020D0B7D0B0D0BFD183D189D0B5D0BD60
S21400456020D0B220D180D0B5D0B6D0B8D0BCD0B58F
S21400457020D0BAD0BED0BDD184D0B8D0B3D183D1EC
S21400458080D0B8D180D0BED0B2D0B0D0BDD0B8D157
S2140045908F00537461727420736574757020636F36
S2140045A06E74726F6C6C657200436F6E74726F6CB3
S2140045B06C65722073657475702E2E2E003D3D3D21
S2140045C03D3D3D3D3D3D3D3D3D3D3D3D3D3D3D3D16
S2140045D03D3D3D3D3D3D3D3D3D3D3D3D3D3D3D3D06
S2140045E03D3D3D3D3D3D3D3D3D3D3D3D3D3D3D3DF6
S2140045F03D3D3D3D3D3D3D3D3D3D3D004F70657281
S2140046006174696F6E207761746368646F67004FCA
S2140046107065726174696F6E207761746368646F29
S21400462067004F7065726174696F6E20776174639E
S21400463068646F67004F6E20706F776572004F6E0C
S21400464020706F776572004F6E20706F776572000E
S2140046504C6F7720766F6C74616765004C6F7720BF
S214004660766F6C74616765004C6F7720766F6C743C
S214004670616765004C6173742072657365743A20D7
S214004680004B657920494E54350000000A0B02099C
S2140046900C0D0E08070304010000000000000000D7
S2140046A00000000000000000000000000000000005
S2140046B000000000000012111000000000000000C2
S2140046C000000000000000000000000000000000E5
S2140046D0010210202008081020401020408002010F
S2140046E002010804020101020408102040808040F4
S2140046F020100804020180040201804020100804F3
S2140047000201080402010102040810204080010290
S2140047100408102040800505050507050808080858
S214004720020202020A0A0808040404040101010144
S214004730010101010303030303030303040707073F
S2140047400C0C0C0C0C0C0C0C0202020206060606E4
S214004750060606060B0B0B0B0B0B0B0B00002000C4
S2140047602300260029002C002F0032000001000044
S21400477003010601090100002200250028002B0085
S2140047802E003100340002010000050108010B0173
S21400479000002100240027002A002D0030003300EE
S2140047A001010000040107010A015228982F783001
S2140047B0B03AF45E94803782DF9F1DA846A9EAAA25
S2140047C0AEAC91AF00B1D4B118B405BBF5BBE8BD33
S2140047D091BE3ABF51C3582895303D8235A00BBBD9
S2140047E011241FBECFEFD1E2DEBFCDBF00E00CBF6D
S2140047F015E0A0E0B2E0EEEEFBEA01E00BBF02C07F
S21400480007900D92AC38B107D9F723E1ACE8B5E0D4
S21400481001C01D92A136B207E1F713E2CBEED3E258
S21400482000E006C021970109802FFE010E94E4CB1C
S214004830C53DD10780E00807A9F70E9468BF0C9421
S214004840E5D50C94000066E675E08DEB90E10E94DD
S214004850B8BF61E675E08DEB90E10E94F5BF60E0C1
S21400486089E00E94CAC48CE390E10E94C45081E0B3
S214004870809394050895AF92BF92CF92EF920F93D4
S2140048801F93CF93DF93182F863751F0873779F42D
S21400489067E275E08DEB90E10E94B8BF21E007C0AB
S2140048A064E475E08DEB90E10E94B8BF20E030E054
S2140048B0C90182579A4F5C01FC018081811124C096
S2140048C083E3829FE001839FD00D1124C259D04F0D
S2140048D0612FCE010E946D46882369F084E0C82EC1
S2140048E0E12C01E025E041E063E0CE010E94D943DF
S2140048F062E275E002C06CE175E08DEB90E10E942B
S214004900F5BF81E0F5018083DF91CF911F910F9174
S214004910EF90CF90BF90AF9008958091920581114F
S21400492018C064E075E08DEB90E10E94B8BF86E6A3
S21400493090E10E942455811103C064ED74E002C02A
S2140049406FEC74E08DEB90E10E94F5BF81E0809300
S21400495092050895CF92DF92EF920F931F93CF9315
S214004960DF93182F863751F0873779F465E974E0BE
S2140049708DEB90E10E94B8BF21E007C062EB74E0C7
S2140049808DEB90E10E94B8BF20E030E0C90184576B
S2140049909A4F6C01FC018081811124C084E3829FC0
S2140049A0E001839FD00D1124CC52D04F48E5612FF3
S2140049B0CE010E94934C882361F084E0E82E00E04C
S2140049C021E041E063E0CE010E94A24A60E974E083
S2140049D002C06AE874E08DEB90E10E94F5BF81E0CA
S2140049E0F6018083DF91CF911F910F91EF90DF90BA
S2140049F0CF90089562E774E08DEB90E10E94B8BF17
S214004A0060E487E690E10E94AB406DE674E08DEBD3
S214004A1090E10C94F5BF0895833219F08C35A1F01F
S214004A2008956CED73E08DEB90E10E94B8BF60E1F5
S214004A3087E69FE00E94D941882319F067ED73E06E
S214004A4012C061ED73E00FC064EB73E08DEB90E194
S214004A500E94B8BF60E180E69FE00E94D9418823AB
S214004A6039F06FEA73E08DEB90E10C94F5BF089592
S214004A7069EA73E08DEB90E10C94F5BF08950F930F
S214004A801F93CF93DF93182F062F61E973E08DEB0A
S214004A9090E10E94B8BF1A3451F01B3479F461E8F3
S214004AA073E08DEB90E10E94B8BFC1E007C069E8F3
S214004AB073E08DEB90E10E94B8BFC0E0D0E0C05735
S214004AC0DA4F8881811111C0602F812F0E94DBB1DF
S214004AD0811103C063E472E002C06AE672E08DEB07
S214004AE090E10E9415C081E08883DF91CF911F91ED
S214004AF00F910895CF93DF93C62F893339F0893409
S214004B0041F0893269F461E374E005C06FE474E053
S214004B1002C063E174E08DEB90E10E94B8BF06C06E
S214004B2064E074E08DEB90E10E94F5BF84E790E1CD
S214004B300E943F72882379F1D0E0CE01885F984FBB
S214004B407FD58230910539F08330910551F0019779
S214004B5041F460E101C060E084E790E10E94637286
S214004B6005C061E084E790E10E946B70CE01805D35
S214004B70984F66D58230910521F0039721F060E0CA
S214004B8003C061E001C062E084E790E10E944C72DD
S214004B906FEF73E002C069EF73E08DEB90E10E9467
S214004BA0F5BFDF91CF9108950F931F93CF93DF93B7
S214004BB0C82F082F10E02AE0829FC0011124845CD1
S214004BC09A4F0E94CFD5D82F80919305811113C09C
S214004BD06BE673E08DEB90E10E94B8BF84E992E14A
S214004BE00E94C1C266E673E08DEB90E10E94F5BFBD
S214004BF081E080939305C8018C5F994F0E94CFD5C2
S214004C0090E0FC013197EA30F10508F042C08827B1
S214004C10EE58FF4F8F4F0C94E4CB80919405811192
S214004C2038C06C2F8D2FDF91CF911F910F910BCE37
S214004C306C2F8D2FDF91CF911F910F916ECE6C2F21
S214004C408D2FDF91CF911F910F9115CE6C2F8D2F49
S214004C50DF91CF911F910F917DCE6C2F8D2FDF911D
S214004C60CF911F910F91C6CE6C2F8D2FDF91CF91D4
S214004C701F910F913FCF6C2F8D2FDF91CF911F91FA
S214004C800F91CACE6C2F8D2FDF91CF911F910F9170
S214004C90F6CEDF91CF911F910F910895982F8FEF49
S214004CA0890F843028F081E0983219F080E008956A
S214004CB081E00895982F8FEF890F843048F08CEEAE
S214004CC0890F853028F081E0983219F080E0089549
S214004CD081E00895982F8FEF890F883068F085EF70
S214004CE0890F883048F08CEE890F853028F081E0F7
S214004CF0983219F080E0089581E008953A9A429A31
S214004D0008953A9A4298089598B184E0892788B918
S214004D100895399A419A0895399A4198089598B114
S214004D2082E0892788B908953B9A439A08953B9A6A
S214004D3043980895E6DFF0DFFACF98B188E0892738
S214004D4088B908950A9A129A08950A9A12980895A8
S214004D503C9A2FEF8BE49DE1215080409040E1F794
S214004D6000C00000449A0895E4E0F1E08081806885
S214004D708083E5E0F1E08081806880830895E7E045
S214004D80F1E0808180648083E8E0F1E080818F7BC1
S214004D9080830895E7E0F1E0808180648083E8E026
S214004DA0F1E080818064808308953D9A4598089557
S214004DB03D9A459A08959A9AA29808959A9AA29A20
S214004DC008950F9A179808950F9A179A08950D9AAE
S214004DD0159808950D9A159A08950B9A13980895A4
S214004DE00B9A139A08950C9A149808950C9A149A8C
S214004DF00895099A11980895099A119A0895389A6B
S214004E0040980895089A109A089580B380BB81B39D
S214004E1081BB0895FACFF9CFF8CFF7CFF6CFF5CF0D
S214004E20F4CFF3CFF2CFE1E0F1E0808188608083B9
S214004E30E2E0F1E08081886080830895E1E0F1E0BF
S214004E40808188608083E2E0F1E08081877F8083D4
S214004E5008956F9A779A08956F9A779808956B9A3F
S214004E60739A08956B9A73980895E1E0F1E0808153
S214004E7080618083E2E0F1E0808180618083089534
S214004E80E1E0F1E0808180618083E2E0F1E0808112
S214004E908F7E808308956E9A769A08956E9A769895
S214004EA00895E7E0F1E0808182608083E8E0F1E049
S214004EB08081826080830895E7E0F1E080818260EF
S214004EC08083E8E0F1E080818D7F80830895E1E0D3
S214004ED0F1E0808180628083E2E0F1E080818062A0
S214004EE080830895E1E0F1E0808180628083E2E0E3
S214004EF0F1E080818F7D80830895E7E0F1E0808196
S214004F0084608083E8E0F1E0808184608083089597
S214004F10E7E0F1E0808184608083E8E0F1E0808172
S214004F208B7F80830895869A8E9A0895869A8E98A7
S214004F300895E7E0F1E0808188608083E8E0F1E0B2
S214004F408081877F808308959D9AA59A08959D9A6B
S214004F50A5980895E1E0F1E0808184608083E2E036
S214004F60F1E08081846080830895E1E0F1E0808153
S214004F7084608083E2E0F1E080818B7F8083089507
S214004F80989899989A989B989C989D98EAE0F1E052
S214004F9080818E7F808380818D7F808380818B7FE0
S214004FA080838081877F808380818F7E80838081DD
S214004FB08F7D808380818F7B808380818F778083C5
S214004FC052985398549855985698579838983998B0
S214004FD03A983B983C983D983E983F980898099890
S214004FE00A980B980C980D980E98E4E0F1E08081F2
S214004FF08B7F80838081877F808380818F7E808384
S21400500080818F7D808380818F7B808380818F7776
S21400501080838098819882988398849885988698CB
S2140050208798E7E0F1E080818E7F808380818D7FA6
S214005030808380818B7F80838081877F808380814F
S2140050408F7E808380818F7D808380818F7B80832D
S21400505080818F778083689869986A986B986C9837
S2140050606D986E986F98E1E0F1E080818E7F808386
S21400507080818D7F808380818B7F80838081877F06
S214005080808380818F7E808380818F7D80838081F6
S2140050908F77808380818F778083249825982698C1
S2140050A0279808956FE672E087ED96E00C9407C6A1
S2140050B087ED96E00C949CC50F931F93CF93809139
S2140050C0DD06882319F160E273E080E090E00E943C
S2140050D0CFC30FED16E0CFE1F80161918F0170E0CC
S2140050E04AE050E08DEB90E10E94D9C06BE377E098
S2140050F08DEB90E10E94B8BFC73221F48DEB90E1B2
S2140051000E94F2BFCF5FC83239F7D9CFCF911F9137
S2140051100F91089590E0FC017F97E930F10508F5BE
S2140051208827E458FF4F8F4F0C94E4CB67E277E074
S2140051301AC063E177E017C06FEF76E014C06BEE3D
S21400514076E011C067ED76E00EC063EC76E00BC04B
S2140051506FEA76E008C06BE976E005C067E876E0BF
S21400516002C06CE776E08DEB90E10C94B8BF90E05F
S214005170FC017F97E930F10580F58827EB57FF4F54
S2140051808F4F0C94E4CB83B123C083B186FB882772
S21400519080F991E08927089583B18095881F882734
S2140051A0881F08958091030182FB882780F9F1CF3C
S2140051B08091030182958170ECCF8091030183FB7F
S2140051C0882780F9E6CF80910301E0CF8091030124
S2140051D085FB882780F9DDCF089580E00895CF937A
S2140051E0E82FA82FB0E0AA0FBB1FAA51B94F862FF1
S2140051F090E08D939C938E2F90E0FC013197E832DF
S214005200F10508F0ABC1C42F8827E257FF4F8F4F38
S2140052100C94E4CB423049F0433009F4A1C141304C
S21400522009F095C162E776E010C0613011F4FBDD4D
S21400523094C104DE92C1423069F0433009F492C151
S214005240413009F084C168E676E08DEB90E10E947B
S214005250B8BF83C1613011F4FCDD7FC1FDDD7DC1C7
S214005260423049F0433009F47FC1413009F06FC144
S2140052706EE576E0EACF613011F4F1DD6EC1F2DD65
S2140052806CC1423049F0433009F470C1413009F036
S2140052905EC164E576E0D9CF613011F4E6DD5DC12C
S2140052A0EFDD5BC1423049F0433009F461C1413063
S2140052B009F04DC16AE476E0C8CF613011F4EBDD49
S2140052C04CC1ECDD4AC1423049F0433009F452C1CA
S2140052D0413009F03CC160E476E0B7CF613011F4AC
S2140052E0E0DD3BC1E9DD39C1423049F0433009F425
S2140052F059C1413009F02BC166E376E0A6CF613094
S21400530011F4E5DD2AC1EEDD28C1423049F0433014
S21400531009F432C1413009F01AC16CE276E095CF4B
S214005320613011F4EADD19C1F3DD17C1423061F0D6
S214005330433009F421C1413061F462E276E08DEB3E
S21400534090E10E94B8BF05C0613011F4ECDD01C0E9
S214005350EDDD6DE076E08DEB90E10E94B8BFF7C022
S214005360423049F0433009F409C1413009F0EFC03A
S2140053706DEF75E06ACFDDDDF0C0423049F04330B6
S21400538009F4FEC0413009F0E2C066EF75E05DCF7B
S214005390613011F40ADDE1C00BDDDFC0423049F0B8
S2140053A0433009F4EFC0413009F0D1C06FEE75E02C
S2140053B04CCF613011F4FFDCD0C000DDCEC04230EF
S2140053C049F0433009F4E0C0413009F0C0C068EE4F
S2140053D075E03BCF613011F4F4DCBFC0F5DCBDC036
S2140053E0423049F0433009F4D1C0413009F0AFC033
S2140053F061EE75E02ACF613011F4E9DCAEC0EADC7C
S214005400ACC0423049F0433009F4C2C0413009F024
S2140054109EC06AED75E019CF613011F4DEDC9DC0E8
S214005420DFDC9BC0423049F0433009F4B3C0413062
S21400543009F08DC063ED75E008CF613011F4D3DC60
S2140054408CC0D4DC8AC0423049F0433009F4A4C092
S214005450413009F07CC06CEC75E0F7CE613011F499
S214005460C8DC7BC0C9DC79C0423049F0433009F45F
S21400547095C0413009F06BC065EC75E0E6CE613052
S21400548011F4BDDC6AC0BEDC68C0423049F043306F
S21400549009F486C0413009F05AC06BEB75E0D5CEF2
S2140054A0613011F4BFDC59C0BCDC57C0423049F053
S2140054B0433009F477C0413009F049C061EB75E02C
S2140054C0C4CE613011F4ACDC48C0A9DC46C0423022
S2140054D049F0433009F468C0413009F038C067EA43
S2140054E075E0B3CE613011F499DC37C096DC35C078
S2140054F0423041F0433009F459C0413041F56DE97E
S21400550075E0A3CE613011F487DC27C084DC25C0AB
S214005510423041F0433009F44BC04130C1F463E9F6
S21400552075E093CE613011F475DC17C06EDC15C0E3
S214005530423039F04330E1F1413049F46FE775E02D
S21400554084CE613011F400DD08C001DD06C0C43031
S21400555021F48DEB90E10E94F2BF2BC08FEF29C0A3
S2140055608DE027C086E025C08AE023C084E021C005
S2140055708DE31FC08EE31DC08FE31BC086E319C0FA
S21400558080E217C08FE115C087E213C08DE111C01D
S21400559089E10FC08AE10DC088E10BC087E109C030
S2140055A089E007C088E005C08CE303C089E301C03A
S2140055B08AE3CF910895FF920F931F93CF93DF93C3
S2140055C0EC01F62E08811981C8010E94CFD5F81685
S2140055D021F06F2DC8010E94D7D5CE01DF91CF9163
S2140055E01F910F91FF900895CF92DF92EF92FF9256
S2140055F00F931F93CF93DF931F921F92CDB7DEB703
S2140056006C017A836983CE0101967C0100E010E08C
S214005610F70161917F01C601800F911F0E94D7D5C7
S2140056200F5F1F4F0430110599F70F900F90DF9111
S214005630CF911F910F91FF90EF90DF90CF9008953C
S214005640CF92DF92EF92FF920F931F93CF93DF9349
S21400565000D01F92CDB7DEB77E0125E0E20EF11C2A
S2140056608E010F5F1F4F6C01C01AD10AC601800F52
S214005670911F0E94CFD5F80181938F01EE15FF058B
S214005680A9F789819A810F900F900F900F90DF9164
S214005690CF911F910F91FF90EF90DF90CF900895DC
S2140056A0CF92DF92EF92FF920F931F93CF93DF93E9
S2140056B000D01F92CDB7DEB77E0125E0E20EF11CCA
S2140056C08E010F5F1F4F6C01C01AD10AC601800FF2
S2140056D0911F0E94CFD5F80181938F01EE15FF052B
S2140056E0A9F769817A818B819C810F900F900F902A
S2140056F00F90DF91CF911F910F91FF90EF90DF9069
S214005700CF900895CF92DF92EF92FF920F931F9360
S214005710CF93DF9300D01F92CDB7DEB76C014983DD
S2140057205A836B837C83CE0101967C0100E010E0F7
S214005730F70161917F01C601800F911F0E94D7D5A6
S2140057400F5F1F4F0430110599F70F900F900F90C1
S2140057500F90DF91CF911F910F91FF90EF90DF9008
S214005760CF9008950F931F93CF93DF931F921F92AE
S214005770CDB7DEB7833099F140F4813081F08230C6
S21400578009F071C008EE13E01BC0853009F449C06B
S214005790B8F1863009F067C00AE010E052C000EDAC
S2140057A017E01A83098360E0CE01019604DF0F5FDD
S2140057B01F4F013080E11807A1F767EE77E04FC072
S2140057C01A83098360E0CE010196F5DE0F5F1F4F56
S2140057D0003D87E01807A1F761EC77E040C00CEBCE
S2140057E012E01A83098360E0CE010196E4DE0F5FC3
S2140057F01F4F073E83E01807A1F76DE977E02FC03B
S21400580004E610E01A83098360E0CE010196D3DE39
S2140058100F5F1F4F0B3B82E01807A1F764E777E0A6
S2140058201EC004E110E01A83098360E0CE010196F1
S214005830C2DE0F5F1F4F04361105A9F76DE477E04F
S2140058400EC01A83098360E0CE010196B4DE0F5FB6
S2140058501F4F011580E11807A1F76DE377E08DEB88
S21400586090E10E94F5BF0F900F90DF91CF911F91AE
S2140058700F91089508950C94CFD51F93CF93DF937F
S214005880D82FC62F172F8091D506843011F081307F
S214005890F1F46CE87AE08DEB90E10E94B8BF41E04D
S2140058A060E08D2F9CDC6BE77AE08DEB90E10E9448
S2140058B0B8BF4AE050E06C2F712F8DEB90E10E944C
S2140058C0D9C069E77AE08DEB90E10E94F5BF43E02E
