:100000000C9432250C9463250C9463250C94632581
:100010000C9463250C940CB80C941BB80C946325B9
:100020000C9463250C9447B80C946BB80C9463251E
:100030000C9463250C9463250C9463250C94632520
:100040000C9463250C94AC700C9463250C9463257C
:100050000C9463250C9463250C9463250C94E7C6DB
:100060000C9463250C94FFC00C9449C10C94632537
:100070000C9463250C94A9B80C9463250C94632507
:100080000C94D8700C9463250C9463250C94632510
:100090000C9463250C9463250C9463250C9413CE67
:1000A0000C9463250C9463250C9404710C946325C3
:1000B0000C9463250C9463250C9463250C94307187
:1000C0000C9463250C9463250C94A9B70C94A8C1D7
:1000D0000C94F2C10C9463250C9451C20C949BC2F5
:1000E0000C9463254F278B275A27612768276F2792
:1000F0008B2776277D278427D829DB29DE29E1294C
:10010000E429E729EA29ED29F029052A072A0E2AF8
:10011000142A2E2A1A2A1F2A252A282A4C2A5D2A1E
:10012000722A942A832AA52AB62AC72AD82AF22A0A
:10013000FF2A102B212B322B432B542B652B762B94
:10014000F02B872B982BA92BBA2BCA2BF02BF02B3B
:10015000F02BF02BF02BF02BF02BF02BF02BF02BC7
:10016000F02BF02BF02BF02BF02BDA2B5C3D633DCA
:100170006A3D713D783D903D7F3D903D863D023E1C
:10018000063E0A3E0E3E123E163E1A3E6D837183B7
:100190008083808375838083808380837983808359
:1001A0006F83808380837E8380838083738369836E
:1001B0008083808377839383918397839B83B783A3
:1001C0009F83A383A783AB83AF83B3832A902D90B0
:1001D00030903390369039903C90DE91E191E791E8
:1001E000EA91EE91F691F99100920592F692F692CB
:1001F00014923D927B927E928192849287928A920F
:100200008D9290929392969299929C929F92A292A2
:10021000BA92BD92F692D892939FB89FBB9FBE9F11
:10022000C19FC49FC79FDE9FE19FE49FE79FEA9F16
:10023000DCA6EDA6FEA610A721A733A745A756A7C3
:1002400068A779A78BA79DA722C825C814C818C876
:100250001EC85CC829C82DC833C837C83BC841C8A8
:1002600045C849C85CC84FC853C857C800407A1031
:10027000F35A00A0724E18090010A5D4E80000E857
:100280007648170000E40B54020000CA9A3B0000B5
:1002900000E1F505000080969800000040420F0044
:1002A0000000A08601000000102700000000E80305
:1002B000000000006400000000000A0000000000D0
:1002C0000100000000002C76D888DC674F0823DF8F
:1002D000C1DFAE59E1B1B796E5E3E453C63AE65162
:1002E000997696E8E6C28426EB898C9B62ED407C89
:1002F0006FFCEFBC9C9F40F2BAA56FA5F490055A25
:100300002AF75C936B6CF9676DC11BFCE0E40D4749
:10031000FEF520E6B500D0ED902E0300943577056C
:100320000080841E080000204E0A000000C80C3324
:100330003333330F986E12831141EF8D2114893BB3
:10034000E65516CFFEE6DB18D1844B381BF77C1D33
:10035000901DA4BBE424203284725E228100C9F186
:1003600024ECA1E53D27646F6E650009496E697450
:1003700069616C697A696E6720576972652E2E2EE5
:1003800000307834622E2E2E00307834612E2E2EDE
:100390000009496E697469616C697A696E67204DFC
:1003A0004158343430303920006572726F72006405
:1003B0006F6E650009496E697469616C697A696E6E
:1003C000672042483137353020307835432E2E2E85
:1003D000006572726F7200646F6E650009496E6924
:1003E0007469616C697A696E6720424831373530CB
:1003F00020307832332E2E2E006572726F720064B8
:100400006F6E6500094572726F7220616464726577
:1004100073730009496E697469616C697A696E6702
:100420002054534C3235363120307834392E2E2E2C
:100430000009496E697469616C697A696E67205454
:10044000534C3235363120307832392E2E2E000979
:10045000496E697469616C697A696E672054534C9E
:100460003235363120307833392E2E2E00646F6EBF
:10047000650009496E697469616C697A696E672003
:10048000494E413231392E2E2E006572726F720044
:10049000646F6E650009496E697469616C697A6997
:1004A0006E6720424D5032383020307837372E2E4C
:1004B0002E0009496E697469616C697A696E6720FA
:1004C000424D5032383020307837362E2E2E006490
:1004D0006F6E65004854553231442C2053485432D5
:1004E000312073656E736F72206973206661696C69
:1004F0006564206F72206E6F7420636F6E6E65632B
:100500007465640009496E697469616C697A696E21
:1005100067204854553231442E2E2E006572726F7A
:100520007200646F6E650009496E697469616C6977
:100530007A696E6720424D4532383020307837373F
:100540002E2E2E0009496E697469616C697A696E94
:100550006720424D4532383020307837362E2E2EE7
:1005600000646F6E650009496E697469616C697A2F
:10057000696E6720445331384232302E2E2E0045AA
:100580006E61626C65205374657070657220506F87
:10059000727400416E616C6F6720533500416E616B
:1005A0006C6F6720533400416E616C6F672053336A
:1005B00000416E616C6F6720533200416E616C6F59
:1005C00067205331004750494F2D38004750494F5D
:1005D0002D37004750494F2D36004750494F2D3594
:1005E000004750494F2D34004750494F2D330047A5
:1005F00050494F2D32004750494F2D310045585436
:100600005F52554E5F5354455050455200506F72E3
:10061000742069736E277420636F6E6E65637465F2
:1006200064004558545F50494E5F39004558545F47
:1006300050494E5F38004558545F50494E5F37006F
:100640004558545F50494E5F36004558545F5049F5
:100650004E5F35004558545F50494E5F3400455851
:10066000545F50494E5F33004558545F50494E5FC8
:1006700032004558545F50494E5F31004572726FE9
:1006800072206461746100494E5055545F4449477B
:100690004954414C5F50494E5F3900494E505554C2
:1006A0005F4449474954414C5F50494E5F380049C7
:1006B0004E5055545F4449474954414C5F50494E50
:1006C0005F3700494E5055545F4449474954414CA7
:1006D0005F50494E5F3600494E5055545F4449477C
:1006E0004954414C5F50494E5F3500494E50555476
:1006F0005F4449474954414C5F50494E5F3400497B
:100700004E5055545F4449474954414C5F50494EFF
:100710005F3300494E5055545F4449474954414C5A
:100720005F50494E5F3200494E5055545F4449472F
:100730004954414C5F50494E5F31002000454550BF
:10074000524F4D20697320636C65616E00436F6E7C
:10075000666967607320636F6E74726F6C6C65722C
:10076000206F6E20454550524F4D20697320636CB9
:1007700065616E00436F6E666967607320657865BA
:1007800063206D6F64756C6573206F6E20454550F6
:10079000524F4D20697320636C65616E00436F6E2C
:1007A00066696760732067726F75706073206F6E23
:1007B00020454550524F4D20697320636C65616E32
:1007C00000436F6E6669677360732073656E736F45
:1007D000726073206F6E20454550524F4D206973F3
:1007E00020636C65616E004572726F726073206F7A
:1007F0006E20454550524F4D20697320636C6561F2
:100800006E00090909090909092E2E2E64726976FC
:1008100065722073746570706572206D6F746F728D
:100820002069732073746F700009090909090909A7
:100830002E2E2E4861726477617265207175616E2B
:1008400074697479206F66207468652070617373B1
:1008500061626C65207374657073203D2000090926
:1008600009090909092E2E2E5061737361626C65A6
:10087000207175616E74697479206F662073746578
:100880007073203D2000090909090909092E2E2E3F
:100890005175616E74697479206F66207374657028
:1008A00073206F6620746865206D6F746F72203DD1
:1008B0002000090909090909092E2E2E5573652002
:1008C00064656661756C74207365744D61785370EE
:1008D000656564203D2035303000090909090909A2
:1008E000092E2E2E5573652064656661756C742023
:1008F000736574416363656C65726174696F6E20C2
:100900003D203130303000636D00090909090909C3
:10091000092E2E2E53746570203D2000206974200E
:1009200069732073746F7070656400206974206946
:1009300073207374617274656400090909090909F7
:10094000092E2E2E6472697665722073746570703C
:100950006572206D6F746F72206F6E20706F72748D
:100960002000293A2000090909090909092E2E2E1B
:100970005550207377697463682800293A2000096C
:100980000909090909092E2E2E444F574E20737765
:10099000697463682028002E00006F6E006F666621
:1009A0000009090909092E2E2E54686520706F72FE
:1009B000742069736E277420636F6E666967757241
:1009C00065640009090909090909092E2E2E6D6FB0
:1009D00076656D656E74206973206572726F722121
:1009E00021210009090909090909092E2E2E6D6F17
:1009F00076656D656E7420697320646F6E65212164
:100A0000210009090909090909092E2E2E6D6F76A1
:100A1000656D656E742069732073746172746564AA
:100A20000009090909090909092E2E2E706F72742F
:100A300020697320696E697469616C697A696E678F
:100A4000002A002E20416E676C6520526F7461741D
:100A5000696F6E3A20002900202800090909090958
:100A600009092E2E2E52756E20536572766F206DF9
:100A70006F746F72206F6E20002A002E20536967FA
:100A80006E616C204C6576656C3A20000909090995
:100A90002E2E2E52756E2050574D206F6E20706F87
:100AA0007274200041542B435553443D300041544F
:100AB000483000415448300047534D20696E7075EE
:100AC000743A200054656D705F55503A20002C2018
:100AD0000054656D705F444F574E3A200074656D49
:100AE000700054656D705F426F783A20002C2000D2
:100AF00054656D705F55503A20002C200054656D90
:100B0000705F444F574E3A200054656D705F4C65DE
:100B100066743A200054656D705F52696768743A74
:100B200020005643433A20005374617475730046A5
:100B3000616E2072756E005475726E696E67206FFB
:100B40006E206F6620746865206D6F64756C652E0D
:100B50002E2E4F4B00496E636C7573696F6E205675
:100B600043432E2E2E4F4B005265737461727420D6
:100B700047534D206D6F64756C650041542B534194
:100B80005042523D302C310041542B53415042527F
:100B90003D302C310041542B434D47443D3400D06F
:100BA0009AD0BED0BBD0B8D187D0B5D181D182D0B8
:100BB000B2D0BE20D0BED188D0B8D0B1D0BED0BACD
:100BC00020475052533A200047455420D0B7D0B068
:100BD000D0BFD180D0BED18120D0BDD0B520D0BE75
:100BE000D182D0BFD180D0B0D0B2D0BBD0B5D0BD33
:100BF0000047455420D0B7D0B0D0BFD180D0BED1AF
:100C00008120D183D181D0BFD0B5D188D0BDD0BE15
:100C100020D0BED182D0BFD180D0B0D0B2D0BBD096
:100C2000B5D0BD0041542B485454505445524D004A
:100C300041542B48545450414354494F4E3D300089
:100C400041542B48545450414354494F4E3D300079
:100C500041542B48545450504152413D2243494441
:100C6000222C310041542B48545450494E495400D1
:100C7000D09DD0B5D0B8D0B7D0B2D0B5D181D182C7
:100C8000D0BDD0BE00D0A0D0B5D0B3D0B8D181D126
:100C900082D180D0B0D186D0B8D18F20D0BED182C1
:100CA000D0BAD0BBD0BED0BDD0B5D0BDD0B000D0B2
:100CB0009FD0BED0B8D181D0BA20D181D0B5D18259
:100CC000D0B800D09DD0B5D18220D0BFD0BED0B892
:100CD000D181D0BAD0B020D181D0B5D182D0B800E6
:100CE00047534D20D0BCD0BED0B4D183D0BBD18C23
:100CF00020D0BDD0B520D0B7D0B0D180D0B5D0B342
:100D0000D0B8D181D182D180D0B8D180D0BED0B27C
:100D1000D0B0D0BD20D0B220D181D0B5D182D0B852
:100D20003A200047534D20D0BCD0BED0B4D183D0A0
:100D3000BBD18C20D0B7D0B0D180D0B5D0B3D0B893
:100D4000D181D182D180D0B8D180D0BED0B2D0B044
:100D5000D0BD20D0B220D181D0B5D182D0B8004151
:100D6000542B435245473F00D09FD180D0BED0B2D4
:100D7000D0B5D180D0BAD0B020D180D0B5D0B3D04A
:100D8000B8D181D182D180D0B0D186D0B8D0B83A94
:100D900020003D3D3D3D3D3D3D3D3D3D3D3D3D3DDD
:100DA0003D3D3D20496E697469616C697A696E6781
:100DB00020636F6D706C657465203D3D3D3D3D3D2C
:100DC0003D3D3D3D3D3D3D3D3D3D3D0041542B4381
:100DD00053434C4B3D31005765207265736F6C7601
:100DE0006520736C656570206D6F64652E2E2E4FC7
:100DF0004B00416C6C6F7720636F6D6D756E69632E
:100E00006174696F6E207769746820746865206DFD
:100E10006F64756C652E2E2E4F4B005475726E6983
:100E20006E67206F6E206F6620746865206D6F643A
:100E3000756C652E2E2E4F4B00496E636C75736971
:100E40006F6E205643432E2E2E4F4B003D3D3D3DB1
:100E50003D3D3D3D3D3D3D3D3D3D3D3D3D20537492
:100E600061727420696E697469616C697A696E6710
:100E70002047534D206D6F64756C6520203D3D3DCE
:100E80003D3D3D3D3D3D3D3D3D3D3D3D3D3D0041CB
:100E9000542B435343533D2247534D220041542B7F
:100EA000434D47463D310041542B434C49503D3161
:100EB000004154453156312B434D45453D323B268B
:100EC0005700415445300041542B53415042523D4C
:100ED000322C31003D3D3D3D3D3D3D3D3D3D3D3DA7
:100EE0003D3D3D3D3D20496E697469616C697A699B
:100EF0006E6720636F6D706C657465203D3D3D3D90
:100F00003D3D3D3D3D3D3D3D3D3D3D3D3D003D3D4E
:100F10003D3D3D3D3D3D3D3D3D3D3D3D3D3D3D201E
:100F2000537461727420696E697469616C697A695D
:100F30006E672047505253203D3D3D3D3D3D3D3D78
:100F40003D3D3D3D3D3D3D3D3D0041542B485454CC
:100F500050504152413D22434944222C31004154DA
:100F60002B48545450494E49540041542B5341503E
:100F700042523D312C310041542B53415042523D9D
:100F8000332C312C22505744222C226265656C6927
:100F90006E65220041542B53415042523D332C3157
:100FA0002C2255534552222C226265656C696E6570
:100FB000220041542B53415042523D332C312C22BC
:100FC00041504E222C22696E7465726E65742E62D9
:100FD00065656C696E652E7275220041542B534114
:100FE0005042523D332C312C22434F4E54595045E0
:100FF000222C22475052532200D09DD0B5D18220BE
:10100000D0B4D0B0D0BDD0BDD18BD18520D0BED191
:10101000822047534D20D0BCD0BED0B4D183D0BBAA
:10102000D18F00D09DD0B5D18220D181D0BED0B596
:10103000D0B4D0B8D0BDD0B5D0BDD0B8D18F00D04D
:10104000A1D0BED0B5D0B4D0B8D0BDD0B5D0BDD071
:10105000B8D0B520D0B7D0B0D0BAD180D18BD0B273
:10106000D0B0D0B5D182D181D18F0047505253201A
:10107000D0BFD0BED0B4D0BAD0BBD18ED187D0B57E
:10108000D0BD00D0A1D0BED0B5D0B4D0B8D0BDD0E6
:10109000B5D0BDD0B8D0B520D183D181D182D0B068
:1010A000D0BDD0B0D0B2D0BBD0B8D0B2D0B0D0B517
:1010B000D182D181D18F0037393133333737343151
:1010C0003435003739313338393633343832003734
:1010D00039313337353137303735003739313339F6
:1010E000303435393235003233003232003231009B
:1010F000004572726F72206D656E75202020202071
:1011000020002020202000493A00202000564343A0
:101110003A004C696768742050616E656C2020202D
:101120002020004F666620200020004572726F72FA
:1011300000202020202020202020202020202020CF
:1011400020002500202020002020202020202020FA
:101150002020202020202020004300760020202076
:1011600020202020202020202020202020004D6131
:101170006E75616C0020202020202020202020205F
:101180002020202020004175746F6D617469630018
:10119000436F6E74726F6C6C65722052756E202096
:1011A000005B4248313735305D20446576696365C0
:1011B000206973206E6F7420636F6E666967757245
:1011C000656421005B4248313735305D204552521D
:1011D0004F523A20756E646566696E65642065726B
:1011E000726F72005B4248313735305D2045525294
:1011F0004F523A206F74686572206572726F720088
:101200005B4248313735305D204552524F523A20CB
:101210007265636569766564204E41434B206F6E4D
:10122000207472616E736D6974206F6620646174DE
:1012300061005B4248313735305D204552524F5294
:101240003A207265636569766564204E41434B20A0
:101250006F6E207472616E736D6974206F662061A9
:10126000646472657373005B4248313735305D20CA
:101270004552524F523A20746F6F206C6F6E672048
:10128000666F72207472616E736D69742062756628
:10129000666572005B4248313735305D20455252F9
:1012A0004F523A204D54726567206F7574206F66F7
:1012B0002072616E6765005B4248313735305D20D2
:1012C0004552524F523A20756E646566696E656488
:1012D000206572726F72005B4248313735305D2095
:1012E0004552524F523A206F74686572206572728F
:1012F0006F72005B4248313735305D204552524FA6
:10130000523A207265636569766564204E41434BAD
:10131000206F6E207472616E736D6974206F662029
:1013200064617461005B4248313735305D2045525D
:10133000524F523A207265636569766564204E416A
:10134000434B206F6E207472616E736D6974206FF1
:10135000662061646472657373005B42483137359F
:10136000305D204552524F523A20746F6F206C6F9F
:101370006E6720666F72207472616E736D6974207F
:10138000627566666572005B4248313735305D20B4
:101390004552524F523A20496E76616C6964206D15
:1013A0006F646500005EBCE2613FDD83C29C7E200D
:1013B000A3FD1F419DC3217FFCA2401E5F01E3BD31
:1013C0003E6082DC237D9FC1421CFEA0E1BF5D0325
:1013D00080DE3C62BEE0025CDF81633D7C22C09E19
:1013E0001D43A1FF4618FAA427799BC584DA386605
:1013F000E5BB5907DB856739BAE406581947A5FBF1
:101400007826C49A653BD987045AB8E6A7F91B45E4
:10141000C6987A24F8A6441A99C7257B3A6486D8D8
:101420005B05E7B98CD2306EEDB3510F4E10F2ACC4
:101430002F7193CD114FADF3702ECC92D38D6F31B0
:10144000B2EC0E50AFF1134DCE90722C6D33D18FA4
:101450000C52B0EE326C8ED0530DEFB1F0AE4C1298
:1014600091CF2D73CA947628ABF517490856B4EA84
:101470006937D58B5709EBB536688AD495CB297770
:10148000F4AA4816E9B7550B88D6346A2B7597C964
:101490004A14F6A8742AC896154BA9F7B6E80A5458
:1014A000D7896B357C3C3E5E2B3D3F2F5B5D3B2CF3
:1014B0002A225C0027206973206E6F7420636F6E90
:1014C00066696775726564000909094D616E616737
:1014D000656D656E74206F662067726F757020276A
:1014E0000029000909094D616E6167656D656E74BB
:1014F000206F662067726F75702069732073746146
:101500007274656420696E205465726D6F737461C6
:1015100074206D6F6465202800090909092E2E2E9C
:10152000D09ED188D0B8D0B1D0BAD0B020D0BFD062
:10153000BED0BAD0B0D0B7D0B0D0BDD0B8D18F2047
:10154000D0B4D0B0D182D187D0B8D0BAD0B0000951
:101550000909092E2E2ED09FD0BED0BAD0B0D0B758
:10156000D0B0D0BDD0B8D0B520D0B4D0B0D182D119
:1015700087D0B8D0BAD0B020D0BDD0B520D0B8D0A8
:10158000B7D0BCD0B5D0BDD0B8D0BBD0BED181D142
:101590008C00090909092E2E2E4D616E6167656D5B
:1015A000656E74206F662067726F75702069732096
:1015B00073746F707065642E205468657265206165
:1015C0007265206E6F2064617461206F662074689C
:1015D000652073656E736F72005468652076616C68
:1015E0007565206F662067726F75702000206973C3
:1015F00020686967686572207468616E206D617823
:10160000696D756D005468652076616C7565206F35
:10161000662067726F75702000206973206C6F7789
:101620006572207468616E206D696E696D756D00FC
:1016300009090909092E2E2E4D616E6167656D65D8
:101640006E74206F662067726F75702069732073E7
:10165000746F707065642E204D6F64756C657320B7
:101660006973206E6F7420666F756E640029004D7B
:10167000696E56616C756547726F75702028002918
:10168000203E2000090909092E2E2E5265616C5654
:10169000616C756520280029004D696E56616C7576
:1016A0006547726F757020280029203C20000909C9
:1016B0000909092E2E2E5265616C56616C756520E4
:1016C000280029004D696E56616C756547726F750B
:1016D0007020280029203C200009090909092E2E24
:1016E0002E5265616C56616C756520280029004D8D
:1016F000696E56616C756547726F75702028002998
:10170000203E200009090909092E2E2E5265616C20
:1017100056616C7565202800290029203C204D6900
:101720006E56616C756547726F75702028000909E7
:101730000909092E2E2E56616C7565202800290096
:1017400029203E204D617856616C756547726F7532
:101750007020280009090909092E2E2E56616C7582
:101760006520280009090909092E2E2E54686520D4
:1017700076616C7565207374616E6473207374692F
:101780006C6C200009090909092E2E2E5468652069
:1017900076616C756520676F657320757020000930
:1017A000090909092E2E2E5468652076616C75652D
:1017B00020676F657320646F776E200029002920F1
:1017C0003C204D617856616C756547726F7570206D
:1017D000280056616C756520280029203C200009EE
:1017E000090909092E2E2E4D696E56616C756547E3
:1017F000726F7570202800090909092E2E2E4D617F
:101800006E6167652067726F75702D2D2D3E20000B
:101810000909090956616C75652073656E736F72ED
:101820003A200009090909092E2E2E4D61785661CA
:101830006C756547726F75703A20000909090909CE
:101840002E2E2E4D696E56616C756547726F7570E0
:101850003A200009090909426F756E6461727920A6
:1018600076616C756573206F662067726F75703A6C
:10187000200009090909092E2E2E69736E2774208C
:1018800070726573656E7420746865206D6F647521
:101890006C6520697320636F6E6669677572656435
:1018A00000090909090909092E2E2E4D616E61678B
:1018B000656D656E74206F66206469676974616C1C
:1018C00020706F727420646F6573206E6F74207760
:1018D0006F726B20696E20746865206D6F6465207F
:1018E000696E2070726F706F7274696F6E206F66B0
:1018F000206D616E6167656D656E74003A204C4FB6
:1019000057003A20484947480009090909090909C7
:101910002E2E2E706F727420002E20497420697351
:10192000207265616479206173204469676974611C
:101930006C20706F7274000909090909092E2E2E96
:10194000457865637574697665206D6F64756C653F
:101950003A20002E204974206973207265616479F1
:1019600020617320536572766F000909090909091E
:101970002E2E2E457865637574697665206D6F64CB
:10198000756C653A20000909090909092E2E2E54A3
:10199000686520706F72742069736E277420636F9E
:1019A0006E6669677572656420666F7220776F7204
:1019B0006B20776974682050574D002E20497420A1
:1019C00069732072656164792061732050574D00FE
:1019D0000909090909092E2E2E4578656375746970
:1019E0007665206D6F64756C653A20002E20497411
:1019F0002069732072656164792061732053746576
:101A000070706572206D6F746F722000090909098A
:101A100009092E2E2E457865637574697665206DEB
:101A20006F64756C653A20003D3D3D3D3D3D3D3D5B
:101A30003D3D3D3D3D3D3D3D3D3D3D3D3D3D3D3DD6
:101A40003D3D3D3D3D3D3D3D3D3D3D3D3D3D3D3DC6
:101A50003D3D3D3D3D3D3D003D3D3D3D3D20D09822
:101A6000D0B7D0BCD0B5D180D0B5D0BDD0BDD18B92
:101A7000D0B520D0BFD0BED0BAD0B0D0B7D0B0D0C3
:101A8000BDD0B8D18F20D0B2D181D0B5D18520D0F2
:101A9000B4D0B0D182D187D0B8D0BAD0BED0B22025
:101AA0003D3D3D3D3D3D003D3D3D3D3D3D3D3D3DA3
:101AB0003D3D3D3D3D3D3D3D3D3D3D3D3D3D3D3D56
:101AC0003D3D3D3D3D3D3D3D3D3D3D3D3D3D3D3D46
:101AD0003D3D3D3D3D3D0009D09ED0BFD180D0BEB3
:101AE000D18120D0B4D0B0D182D187D0B8D0BAD0F3
:101AF000BED0B22E2E2E000026535F313D0026535D
:101B00005F323D0026535F333D0026535F343D0076
:101B100026535F353D0026535F363D0026535F3721
:101B20003D0026535F383D0026535F393D00265364
:101B30005F31303D0026535F31313D0026535F3128
:101B4000323D0026535F31333D0026535F31343D33
:101B50000026535F31353D0026535F31363D002668
:101B60005643433D002200D09DD0B0D0BFD180D19C
:101B70008FD0B6D0B5D0BDD0B8D0B520D0BFD0B8FA
:101B8000D182D0B0D0BDD0B8D18F3A20004F4B0019
:101B900009D092D0BED181D181D182D0B0D0BDD078
:101BA000BED0B2D0BBD0B5D0BDD0B8D0B520D0B7A4
:101BB000D0BDD0B0D187D0B5D0BDD0B8D0B920D1AC
:101BC00080D0B0D0B1D0BED187D0B8D18520D0BF21
:101BD000D0B5D180D0B5D0BCD0B5D0BDD0BDD18B23
:101BE000D1852E2E2E00D0A1D0BED185D180D0B0EF
:101BF000D0BDD0B5D0BDD0B8D0B520D0B7D0BDD035
:101C0000B0D187D0B5D0BDD0B8D0B920D180D0B0B8
:101C1000D0B1D0BED187D0B8D18520D0BFD0B5D17A
:101C200080D0B5D0BCD0B5D0BDD0BDD18BD18520B2
:101C3000D0B4D0BBD18F20D0BFD0B5D180D0B5D05B
:101C4000B7D0B0D0B3D180D183D0B7D0BAD0B82E6E
:101C50002E2E00D0A0D0B5D0B6D0B8D0BC20D0BAEF
:101C6000D0BED0BDD184D0B8D0B3D183D180D0B8CC
:101C7000D180D0BED0B2D0B0D0BDD0B8D18F20D01E
:101C8000B2D18BD0BAD0BBD18ED187D0B5D0BD0068
:101C9000D09AD0BED0BDD182D180D0BED0BBD0BB77
:101CA000D0B5D18020D0B220D180D0B5D0B6D0B8B8
:101CB000D0BCD0B520D0BAD0BED0BDD184D0B8D0A1
:101CC000B3D183D180D0B8D180D0BED0B2D0B0D083
:101CD000BDD0B8D18F00312000702000D0A0D0B589
:101CE000D0B6D0B8D0BC20D0BAD0BED0BDD184D070
:101CF000B8D0B3D183D180D0B8D180D0BED0B2D04B
:101D0000B0D0BDD0B8D18F20D0B2D18BD0BAD0BB9B
:101D1000D18ED187D0B5D0BD00D092D0BAD0BBD1B2
:101D20008ED187D0B5D0BD20D180D0B5D0B6D0B8B7
:101D3000D0BC20D0BAD0BED0BDD184D0B8D0B3D121
:101D400083D180D0B8D180D0BED0B2D0B0D0BDD0F9
:101D5000B8D18F0045525200200020002000200002
:101D60002000200020003000200020002000200063
:101D70002000200020002000200020002000200063
:101D800020002000200063203020003D3D3D3D3DEF
:101D90003D3D3D3D3D3D3D3D3D3D3D3D3D3D3D3D73
:101DA0003D3D3D3D3D3D3D3D3D3D3D3D3D3D3D3D63
:101DB0003D3D3D0020D181D0B5D0BA0009D0A6D09C
:101DC000B8D0BAD0BBD0B8D187D0B5D181D0BAD035
:101DD000B0D18F20D0B7D0B0D0BFD0B8D181D18C06
:101DE00020D0BDD0B020534420D0BFD0BED0BAD078
:101DF000B0D0B7D0B0D0BDD0B8D0B920D0B4D0B06A
:101E0000D182D187D0B8D0BAD0BED0B23A2000208B
:101E1000D181D0B5D0BA0009D09ED0BFD180D0BE7C
:101E2000D18120D0B4D0B0D182D187D0B8D0BAD0AF
:101E3000BED0B23A200020D181D0B5D0BA0009D0AE
:101E400092D18BD0BAD0BBD18ED187D0B5D0BDD0F6
:101E5000B8D0B520D0BFD0BED0B4D181D0B2D0B52B
:101E6000D182D0BAD0B820D18DD0BAD180D0B0D064
:101E7000BDD0B03A2000D098D0BDD182D0B5D180AD
:101E8000D0B2D0B0D0BBD18B20D0B7D0B0D0BFD1E2
:101E900083D181D0BAD0B020D1842DD186D0B8D012
:101EA000B93A00D092D18BD0BAD0BBD18ED187D0E5
:101EB000B5D0BD00D092D0BAD0BBD18ED187D0B52D
:101EC000D0BD0009475052533A2000D181D0B5D03F
:101ED000BA0009D092D180D0B5D0BCD18F20D0BF6C
:101EE000D0B5D180D0B5D0B7D0B0D0B3D180D18368
:101EF000D0B7D0BAD0B820D0BCD0BED0B4D183D067
:101F0000BBD18F3A2000D181D0B5D0BA0009D09C86
:101F1000D0B0D0BAD181D0B8D0BCD0B0D0BBD18CE9
:101F2000D0BDD0BED0B520D0B2D180D0B5D0BCD13C
:101F30008F20D0BED0B6D0B8D0B4D0B0D0BDD0B83D
:101F4000D18F20D0BED182D0B2D0B5D182D0B03A1C
:101F50002000D181D0B5D0BA0009D098D0BDD182AF
:101F6000D0B5D180D0B2D0B0D0BB20D0BFD180D03E
:101F7000BED0B2D0B5D180D0BAD0B820D180D0B543
:101F8000D0B3D0B8D181D182D180D0B0D186D0B8F1
:101F9000D0B83A2000D092D0BAD0BBD18ED187D061
:101FA000B5D0BD00D092D18BD0BAD0BBD18ED18765
:101FB000D0B5D0BD0047534D20D0BCD0BED0B4D199
:101FC00083D0BBD18C3A200063D0B5D0BA0009D001
:101FD000A2D0B0D0B9D0BCD0B0D183D18220D0B201
:101FE000D18BD0BAD0BBD18ED187D0B5D0BDD0B82F
:101FF000D18F3A2000D092D0BAD0BBD18ED187D029
:10200000B0D182D18C20D0BFD0BE20D182D180D09F
:10201000B5D0B1D0BED0B2D0B0D0BDD0B8D18E0086
:10202000D092D181D0B5D0B3D0B4D0B020D0B2D07E
:10203000BAD0BBD18ED187D0B5D0BD00426C75650A
:10204000746F6F746820D0BCD0BED0B4D183D0BBC5
:10205000D18C3A2000D097D0B0D0BFD180D0B5D1AC
:1020600089D0B5D0BDD0B000D0A0D0B0D0B7D1808D
:10207000D0B5D188D0B5D0BDD0B000D097D0B0D039
:10208000BFD0B8D181D18C20D0BDD0B02053442056
:10209000D0BAD0B0D180D182D1833A2000D09BD0A9
:1020A000BED0B3D0B8D180D0BED0B2D0B0D0BDD029
:1020B000B8D0B520D0B220D182D0B5D180D0BCD09C
:1020C000B8D0BDD0B0D0BB3A200009D0A2D0B5D096
:1020D000BAD181D18220D0A1D09CD0A13A2000D009
:1020E00094D0B000D09DD0B5D18200D09ED182D006
:1020F000BFD180D0B0D0B2D0BAD0B020D0A1D09CC7
:10210000D0A120D0BE20D181D182D0B0D180D182C7
:10211000D0B520D0BAD0BED0BDD182D180D0BED073
:10212000BBD0BBD0B5D180D0B03A200009D09FD071
:10213000BED0BFD180D0B0D0B2D0BED187D0BDD1BB
:102140008BD0B920D0BAD0BED18DD184D184D0B8B3
:10215000D186D0B8D0B5D0BDD18220D0B4D0BBD13B
:102160008F20D0B8D0B7D0BCD0B5D180D0B5D0BD3D
:10217000D0B8D18F3A200009D092D185D0BED0B44A
:10218000D0BDD0BED0B520D0BDD0B0D0BFD180D1D1
:102190008FD0B6D0B5D0BDD0B8D0B53A2000202869
:1021A000D097D0B0D0BFD0B8D181D18C20D0BDD005
:1021B000B020534420D0BAD0B0D180D182D1832076
:1021C000D0BED182D0BAD0BBD18ED187D0B5D0BD50
:1021D000D0B02900D09FD0B8D181D0B0D182D18CDD
:1021E00020D0BDD0B020534420D0BAD0B0D180D1BF
:1021F00082D18300202847534D20D0BCD0BED0B41C
:10220000D183D0BBD18C20D0BED182D0BAD0BBD1AB
:102210008ED187D0B5D0BD2900D09ED182D0BFD17C
:1022200080D0B0D0B2D0BBD18FD182D18C20D0A100
:10223000D09CD0A100D09DD0B520D180D0B5D0B059
:10224000D0B3D0B8D180D0BED0B2D0B0D182D18CF2
:102250000009D0A0D0B5D0B0D0BAD186D0B8D18F37
:1022600020D0BDD0B020D181D0BDD0B8D0B6D0B5AF
:10227000D0BDD0B8D0B5205643433A200009D09CF9
:10228000D0B8D0BDD0B8D0BCD0B0D0BBD18CD0BD30
:10229000D0BED0B5205643433A2000D094D0B000F1
:1022A000D09DD0B5D18200D0A3D0BFD180D0B0D046
:1022B000B2D0BBD0B5D0BDD0B8D0B520D0BDD0B095
:1022C000D0BFD180D18FD0B6D0B5D0BDD0B8D0B529
:1022D000D0BC20D0BFD0B8D182D0B0D0BDD0B8D182
:1022E0008F3A2000D09DD0B0D0B7D0B2D0B0D0BD02
:1022F000D0B8D0B520D0BAD0BED0BDD182D180D098
:10230000BED0BBD0BBD0B5D180D0B03A20003D3DCF
:102310003D3D3D3D3D20D09AD0BED0BDD184D0B80A
:10232000D0B3D183D180D0B0D186D0B8D18F20D0D6
:10233000BAD0BED0BDD182D180D0BED0BBD0BBD0B0
:10234000B5D180D0B0203D3D3D3D3D3D3D00D09AD2
:10235000D0BED0BDD184D0B8D0B3D183D180D0B0DD
:10236000D186D0B8D18F20D0BED0B1D0BDD0BED014
:10237000B2D0BBD0B5D0BDD0B0006D20006D200074
:1023800027206973207570646174656400536574F7
:1023900074696E6773206F6620746865206D6F6462
:1023A000756C652027002000200020002000200000
:1023B000200020002000200020002000200020001D
:1023C000200020002000300020003D3D3D3D3D3DEF
:1023D0003D3D3D3D3D3D3D3D3D3D3D3D3D3D3D3D2D
:1023E0003D3D3D3D3D3D3D3D3D3D3D3D3D0053770A
:1023F0006974636820636F756E7465720055702030
:102400007377697463680054797065205550207340
:1024100077697463683A20000053776974636820B1
:10242000555020706F72743A2000005377697463BE
:102430006820444F574E20706F72743A20004269F2
:102440006E642067726F75703A200054686520745E
:10245000797065206F6620746865206D6F64756C97
:10246000652069736E277420636F6E666967757285
:1024700065640000436F6E74726F6C20706F7274CD
:102480003A20004469676974616C20706F7274004F
:102490004D6178496D703A20004D696E496D703A12
:1024A00020004D616E75616C004175746F6D6174D3
:1024B0006963004D6F646520636F6E66696775724E
:1024C000653A20004D617820616E676C65206F660B
:1024D000207475726E3A200074686520706F727493
:1024E0002069736E277420636F6E66696775726505
:1024F000640000436F6E74726F6C20706F72743A78
:102500002000536572766F206D6F746F72003235E4
:1025100035004D6178206C69667420726F74617447
:10252000696F6E3A200074686520706F727420695C
:10253000736E277420636F6E6669677572656400D9
:1025400000D0A3D0BFD180D0B0D0B2D0BBD18FD17A
:102550008ED189D0B8D0B920D0BFD0BED180D182A1
:1025600000D0A8D098D09C00D188D0B0D0B3D0B043
:1025700000312F00D094D0B5D0BBD0B8D182D0B527
:10258000D0BBD18C20D188D0B0D0B3D0B020D0B4C3
:10259000D180D0B0D0B9D0B2D0B5D180D0B03A20AF
:1025A00000D188D0B0D0B3D0BED0B22FD181D0BCB2
:1025B00000D09AD0BED0BB2DD0B2D0BE20D0BED0DD
:1025C000B1D0BED180D0BED182D0BED0B220D0BDDD
:1025D000D0B02031D181D0BC20D0BFD0BED0B4D1BA
:1025E0008AD0B5D0BCD0B03A2000D188D0B0D0B31A
:1025F000D0BED0B22FD181D0B5D0BAD183D0BDD08A
:10260000B4D1835E3200D09CD0B0D0BAD181D0B8E2
:10261000D0BCD0B0D0BBD18CD0BDD0BED0B520D135
:1026200083D181D0BAD0BED180D0B5D0BDD0B8D002
:10263000B53A2000D188D0B0D0B3D0BED0B22FD11F
:1026400081D0B5D0BAD183D0BDD0B4D18300D09CD5
:10265000D0B0D0BAD181D0B8D0BCD0B0D0BBD18CA2
:10266000D0BDD0B0D18F20D181D0BAD0BED180D052
:10267000BED181D182D18C3A2000D181D0BC00D092
:102680009CD0B0D0BAD181D0B8D0BCD0B0D0BBD162
:102690008CD0BDD0B0D18F20D0B2D18BD181D0BE63
:1026A000D182D0B020D0BED182D0BAD180D18BD14E
:1026B00082D0B8D18F3A2000D0A0D183D187D0BDAD
:1026C000D0BED0B900D090D0B2D182D0BED0BCD0D4
:1026D000B0D182D0B8D187D0B5D181D0BAD0B8D05E
:1026E000B900D0A0D0B5D0B6D0B8D0BC20D180D061
:1026F000B0D0B1D0BED182D18B3A200000D09FD0D3
:10270000BED180D18220D183D0BFD180D0B0D0B211
:10271000D0BBD0B5D0BDD0B8D18F3A2000D0A8D092
:10272000B0D0B3D0BED0B2D18BD0B920D0BCD0BE47
:10273000D182D0BED18000D0A2D0B8D0BF20D0BC32
:10274000D0BED0B4D183D0BBD18F3A2000D09ED19F
:1027500088D0B8D0B1D0BAD0B000D092D0BAD0BB67
:10276000D18ED187D0B5D0BD00D092D18BD0BAD088
:10277000BBD18ED187D0B5D0BD00D0A1D0BED18184
:10278000D182D0BED18FD0BDD0B8D0B520D0BCD0F2
:10279000BED0B4D183D0BBD18F3A200027203D3D9D
:1027A0003D3D3D3D3D003D3D3D3D3D3D3D20436F7B
:1027B0006E66696775726174696F6E206D6F64759E
:1027C0006C65202700200020002000200020002031
:1027D0000020002E002E0020003A003A0053756EB3
:1027E000646179005361747572646179004672693D
:1027F0006461790054687572736461790057656427
:102800006E65736461790054756573646179004D18
:102810006F6E6461790020002000436F6E66696707
:1028200075726174696F6E204461746520616E64B5
:102830002054696D653A2020200020007420004556
:102840005252004F4B00D092D18BD0BAD0BBD18E18
:10285000D187D0B5D0BDD0B8D0B520D0BDD0B0D103
:1028600087D0B0D0BBD18CD0BDD0BED0B3D0BE202D
:10287000D0B2D0BED0B7D0B2D180D0B0D182D0B09B
:1028800020D0B8D181D0BF2E20D0BCD0BED0B4D102
:1028900083D0BBD0B5D0B920D0B220D0BDD183D0A9
:1028A000BBD0B82E2E2E0041542B4346554E3F0030
:1028B00041542B434F504E0041542B43424300415F
:1028C000542B4753560041542B47534E0041542B31
:1028D0004343414C523F0041542B43474D00415428
:1028E0002B435041530041542B434F50533F004121
:1028F000542B435245473F0041542B435351004111
:102900005449004154003A003A0020D0B4D0BDD020
:10291000B5D0B920D0B82000557074696D653A20E3
:10292000002000200020003D3D3D3D3D20D09FD0B7
:10293000B5D180D0B5D0B7D0B0D0B3D180D183D00D
:10294000B7D0BAD0B0203D3D3D3D3D0044617461FB
:10295000206973206572726F7200D0A3D180D0BEDF
:10296000D0B2D0B5D0BDD18C20D0BBD0BED0B3D0EA
:10297000B8D180D0BED0B2D0B0D0BDD0B8D18F2029
:10298000D0B220554152543A2000D092D181D0B5D6
:102990000047534D20D0BCD0BED0B4D183D0BBD1E2
:1029A0008C00D098D181D0BFD0BED0BBD0BDD0B824
:1029B000D182D0B5D0BBD18CD0BDD18BD0B520D0F9
:1029C000BCD0BED0B4D183D0BBD0B800D093D1801E
:1029D000D183D0BFD0BFD18B20D183D0BFD180D005
:1029E000B0D0B2D0BBD0B5D0BDD0B8D18F00D094CC
:1029F000D0B0D182D187D0B8D0BAD0B800D092D1DF
:102A00008BD0BAD0BBD18ED187D0B5D0BDD0BE00CF
:102A1000446174612067726F757020696E2045454E
:102A200050524F4D20697320757064617465640065
:102A30003D3D3D3D3D3D3D3D3D3D3D3D3D3D3D3DC6
:102A40003D3D3D3D3D3D3D3D3D3D3D3D3D3D3D3DB6
:102A50003D3D3D3D3D3D3D00002000457865632006
:102A60006D6F64756C653A200045787465726E61AF
:102A70006C206D6F64653A2049742069736E277409
:102A800020636F6E666967757265640054696D6571
:102A9000725F64656C7461003A0054696D652073FF
:102AA000746172743A20003A0054696D6520737441
:102AB0006F703A20003A0054696D6520737461723A
:102AC000743A200000455F4D696E56616C7565472C
:102AD000726F75703A20004D696E56616C7565476E
:102AE000726F75703A20004D617856616C7565475C
:102AF000726F75703A20004D696E56616C7565474E
:102B0000726F75703A20000000202056616C756568
:102B10003A200053656E736F723A20004974206941
:102B2000736E277420636F6E6669677572656400E3
:102B30002835292054696D6572206D6F64652E20DB
:102B4000506172616D6574657220350028342920EA
:102B500054696D6572206D6F64652E2050617261DD
:102B60006D657465722034002833292054686572BD
:102B70006D6F73746174206D6F64652E204D616E8E
:102B80006167656D656E742061742076616C756532
:102B9000206F66207468652073656E736F7220699C
:102BA00073206C657373207468616E20455F4D6996
:102BB0006E56616C756547726F75700028322920FA
:102BC000546865726D6F73746174206D6F64652EE7
:102BD000204D616E6167656D656E7420617420655E
:102BE0007863657373206F6620455F4D696E56612B
:102BF0006C756547726F75702076616C756500281D
:102C0000312920546865726D6F73746174206D6F23
:102C100064652E2050726F706F7274696F6E616C94
:102C2000206D616E6167656D656E7400436F6E74D3
:102C3000726F6C6C5F47726F75703A20006F6666DA
:102C4000006F6E005374617475733A200027203D45
:102C50003D3D3D3D3D3D3D3D3D3D003D3D3D3D3DE1
:102C60003D3D3D3D3D3D20436F6E66696720677287
:102C70006F75702027002000200020002000200019
:102C800020002000200020002000300020006720CD
:102C9000007320007320004572726F727320697395
:102CA00020636C65616E696E672121210020697364
:102CB00020636F6E6669677572696E6720696E2042
:102CC000454550524F4D20202020202020202020FC
:102CD0000053656E736F72200020002000200020DA
:102CE00000200020002000200020002000200020E4
:102CF00000200020002000200020002000200020D4
:102D00000020002000200020002000300020003D96
:102D10003D3D3D3D3D3D3D3D3D3D3D3D3D3D3D3DE3
:102D20003D3D3D3D3D3D3D3D3D3D3D3D3D3D3D3DD3
:102D30003D3D3D3D3D3D00D09DD0B8D187D0B5D083
:102D4000B3D0BE00D093D180D183D0BFD0BFD0B09C
:102D5000203500D093D180D183D0BFD0BFD0B02058
:102D60003400D093D180D183D0BFD0BFD0B0203336
:102D700000D093D180D183D0BFD0BFD0B02032005B
:102D8000D093D180D183D0BFD0BFD0B02031000943
:102D9000094C454420D0BFD0B0D0BDD0B5D0BBD1B8
:102DA0008C3A2000D09ED182D0BAD0BBD18ED187B0
:102DB000D0B5D0BDD0B020D0B3D0BBD0BED0B1D074
:102DC000B0D0BBD18CD0BDD0BE21212100D092D0BB
:102DD000BAD0BBD18ED187D0B5D0BDD0B000D09203
:102DE000D18BD0BAD0BBD18ED187D0B5D0BDD0B029
:102DF000000909D097D0B0D0BFD0B8D181D18C20F4
:102E0000D0BDD0B020534420D0BAD0B0D180D18230
:102E1000D1833A2000D09DD0B8D187D0B5D0B3D0DF
:102E2000BE00D09ED182D0BFD180D0B0D0B2D0B8B9
:102E3000D182D18C20D0BFD0BE204750525300D079
:102E40009ED182D0BFD180D0B0D0B2D0B8D182D103
:102E50008C20D0A1D09CD0A1000909D092D0BDD0A7
:102E6000B5D188D0BDD0B8D0B53A2000D0A0D0B56B
:102E7000D0B0D0BAD186D0B8D18F20D0BDD0B020BC
:102E8000D0BED188D0B8D0B1D0BAD0B83A2000D016
:102E90009AD0BED0BBD0B8D187D0B5D181D182D0A5
:102EA000B2D0BE20D0BED188D0B8D0B1D0BED187EC
:102EB000D0BDD18BD18520D0B8D0B7D0BCD0B5D1C2
:102EC00080D0B5D0BDD0B8D0B920D0B4D0BE20D13C
:102ED00080D0B5D0B0D0BAD186D0B8D0B83A200022
:102EE000D09AD0BED0BBD0B8D187D0B5D181D18255
:102EF000D0B2D0BE20D0BED188D0B8D0B1D0BED054
:102F0000BA20D0B8D0B7D0BCD0B5D180D0B5D0BD64
:102F1000D0B8D18F20D0BFD0BED0BAD0B0D0B7D02B
:102F2000B0D0BDD0B8D0B93A2000D09AD0BED0BB76
:102F3000D0B8D187D0B5D181D182D0B2D0BE20D087
:102F4000B8D0B7D0BCD0B5D180D0B5D0BDD0B8D076
:102F5000B920D0B4D0BE20D184D0B8D0BAD181D0DD
:102F6000B0D186D0B8D0B820D0BFD0BED0BAD0B003
:102F7000D0B7D0B0D0BDD0B8D0B93A2000D09DD015
:102F8000B520D0BDD0B0D181D182D180D0BED0B556
:102F9000D0BDD0BE202864656661756C743A20315E
:102FA000336D7329003430326D73003130316D73FD
:102FB0000031336D7300D092D180D0B5D0BCD18FA9
:102FC00020D0BAD0BED0BDD0B2D0B5D180D182D0C1
:102FD000B0D186D0B8D0B83A2000D09DD0B520D09E
:102FE000BDD0B0D181D182D180D0BED0B5D0BDD03E
:102FF000BE202864656661756C743A20D0B0D0B28A
:10300000D182D0BE20D183D181D0B8D0BBD0B5D0B1
:10301000BDD0B8D0B5290031780031367800D092D3
:10302000D0B5D0BBD0B8D187D0B8D0BDD0B020D12A
:1030300083D181D0B8D0BBD0B5D0BDD0B8D18F3A74
:103040002000D09DD0B520D0BDD0B0D181D182D1CB
:1030500080D0BED0B5D0BDD0BE2028646566617575
:103060006C743A20D09BD18ED0BCD0B5D0BDD18B62
:103070002900D09BD18ED0BAD181D18B00D09BD1E9
:103080008ED0BCD0B5D0BDD18B00D095D0B4D0B847
:10309000D0BDD0B8D186D18B20D0B8D0B7D0BCD0DD
:1030A000B5D180D0B5D0BDD0B8D18F3A200049522B
:1030B00020D181D0BFD0B5D0BAD182D18000D09FED
:1030C000D0BED0BBD0BDD18BD0B920D181D0BFD0A4
:1030D000B5D0BAD182D18000D092D0B8D0B4D0B817
:1030E000D0BCD18BD0B920D181D0BFD0B5D0BAD18E
:1030F00082D18000D0A1D0BFD0B5D0BAD182D1804A
:1031000020D0B8D0B7D0BCD0B5D180D0B5D0BDD04C
:10311000B8D0B93A2000D097D0BDD0B0D187D0B5C3
:10312000D0BDD0B8D0B520D090D0A6D09F20D0B4FC
:10313000D0BBD18F20313030253A2000D097D0BD80
:10314000D0B0D187D0B5D0BDD0B8D0B520D090D038
:10315000A6D09F20D0B4D0BBD18F2030253A2000FC
:10316000D097D0BDD0B0D187D0B5D0BDD0B8D0B574
:1031700020D090D0A6D09F00D09FD180D0BED18645
:10318000D0B5D0BDD182D18B00D095D0B4D0B8D03D
:10319000BDD0B8D186D18B20D0B8D0B7D0BCD0B5F7
:1031A000D180D0B5D0BDD0B8D18F3A2000D0B1D029
:1031B000B8D18200D0A0D0B0D0B7D180D0B5D1885E
:1031C000D0B5D0BDD0B8D0B520D0B4D0B0D182D198
:1031D00087D0B8D0BAD0B03A2000D092D18BD0BA34
:1031E000D0BBD18ED187D0B5D0BDD0BE006D73001D
:1031F00009D097D0B0D0B4D0B5D180D0B6D0BAD0A5
:10320000B020D0BFD0BED181D0BBD0B520D0B2D0FD
:10321000BAD0BBD18ED187D0B5D0BDD0B8D18F2098
:10322000D0BFD0BED180D182D0B03A2000D09FD0C4
:10323000BED180D18220D0BDD0B520D181D0BAD02E
:10324000BED0BDD184D0B8D0B3D183D180D0B8D1D5
:1032500080D0BED0B2D0B0D0BD2121210009D09FF6
:10326000D0BED180D18220D183D0BFD180D0B0D088
:10327000B2D0BBD0B5D0BDD0B8D18F3A2000D0925B
:10328000D0BAD0BBD18ED187D0B5D0BDD0BE00D002
:1032900098D181D0BFD0BED0BBD18CD0B7D0BED05A
:1032A000B2D0B0D0BDD0B8D0B520D0BFD0BED180C4
:1032B000D182D0B020D183D0BFD180D0B0D0B2D015
:1032C000BBD0B5D0BDD0B8D18F3A2000D090D0B20D
:1032D000D182D0BED0BCD0B0D182D0B8D187D0B549
:1032E000D181D0BAD0B8D0B900D181D0B5D0BA0090
:1032F00009D098D0BDD182D0B5D180D0B2D0B0D0D5
:10330000BB20D0B8D0B7D0BCD0B5D180D0B5D0BD5F
:10331000D0B8D18F3A2000D0A0D183D187D0BDD0F2
:10332000BED0B900D098D0BDD182D0B5D180D0B2B6
:10333000D0B0D0BB20D0B8D0B7D0BCD0B5D180D021
:10334000B5D0BDD0B8D18F20D0BFD0BED0BAD0B00C
:10335000D0B7D0B0D0BDD0B8D0B93A20002000D07E
:103360009ED188D0B8D0B1D0BAD0B820D0BFD0BE0E
:10337000D0BAD0B0D0B7D0B0D0BDD0B8D0B93A2044
:103380000009003A200020D097D0BDD0B0D187D01E
:10339000B5D0BDD0B8D0B55F00D09FD180D0B8D067
:1033A000B2D18FD0B7D0BAD0B020D0BA20D0B3D15C
:1033B00080D183D0BFD0BFD0B53A2000D092D18B7E
:1033C000D0BAD0BBD18ED187D0B5D0BD00D092D0ED
:1033D000BAD0BBD18ED187D0B5D0BD0027203D3D1E
:1033E0003D3D3D3D3D3D3D3D003D3D3D3D3D3D3D4A
:1033F0003D3D3D20D09AD0BED0BDD184D0B8D0B311
:10340000D183D180D0B0D186D0B8D18F20D0B4D0E4
:10341000B0D182D187D0B8D0BAD0B0202700D09D0B
:10342000D0B0D0BFD180D18FD0B6D0B5D0BDD0B8BC
:10343000D0B520D0B820D182D0BED0BA00D0A2D092
:10344000B5D0BCD0BFD0B5D180D0B0D182D183D1DE
:1034500080D0B02C20D0B2D0BBD0B0D0B6D0BDD0B0
:10346000BED181D182D18C20D0B2D0BED0B7D0B461
:10347000D183D185D0B220D0B820D0B0D182D0BCF9
:103480002E20D0B4D0B0D0B2D0BBD0B5D0BDD0B843
:10349000D0B500D090D182D0BC2E20D0B4D0B0D046
:1034A000B2D0BBD0B5D0BDD0B8D0B520D0B820D028
:1034B000B2D0BBD0B0D0B6D0BDD0BED181D182D138
:1034C0008C20D0B2D0BED0B7D0B4D183D185D0B00B
:1034D00000D0A2D0B5D0BCD0BFD0B5D180D0B0D1B3
:1034E00082D183D180D0B020D0B820D0B0D182D0CA
:1034F000BC2E20D0B4D0B0D0B2D0BBD0B5D0BDD0CF
:10350000B8D0B500D0A2D0B5D0BCD0BFD0B5D18096
:10351000D0B0D182D183D180D0B020D0B820D0B269
:10352000D0BBD0B0D0B6D0BDD0BED181D182D18CED
:1035300020D0B2D0BED0B7D0B4D183D185D0B00026
:10354000D090D0BDD0B0D0BBD0BED0B3D0BED0B262
:10355000D0BE20D0B8D0B7D0BCD0B5D180D0B5D0F7
:10356000BDD0B8D18F00D090D0BDD0B0D0BBD0BE30
:10357000D0B3D0BED0B2D18BD0B520D0B8D0B7D0D8
:10358000BCD0B5D180D0B5D0BDD0B8D18F00D0A23D
:10359000D0BED0BAD0B000D0A2D0BED0BA00D09D9C
:1035A000D0B0D0BFD180D18FD0B6D0B5D0BDD0B83B
:1035B000D18F00D09DD0B0D0BFD180D18FD0B6D028
:1035C000B5D0BDD0B8D0B500D090D182D0BCD0BEDF
:1035D000D181D184D0B5D180D0BDD0BED0B3D0BE42
:1035E00020D0B4D0B0D0B2D0BBD0B5D0BDD0B8D13F
:1035F0008F00D090D182D0BCD0BED181D184D0B543
:10360000D180D0BDD0BED0B520D0B4D0B0D0B2D053
:10361000BBD0B5D0BDD0B8D0B500D09ED181D0B28E
:10362000D0B5D189D0B5D0BDD0B8D18F00D09ED182
:1036300081D0B2D0B5D189D0B5D0BDD0B8D0B50089
:10364000D0B2D0BBD0B0D0B6D0BDD0BED181D182A7
:10365000D0B820D0BFD0BED187D0B2D18B00D0920D
:10366000D0BBD0B0D0B6D0BDD0BED181D182D18CAC
:1036700020D0BFD0BED187D0B2D18B00D092D0BBEA
:10368000D0B0D0B6D0BDD0BED181D182D0B820D0FC
:10369000B2D0BED0B7D0B4D183D185D0B000D09253
:1036A000D0BBD0B0D0B6D0BDD0BED181D182D18C6C
:1036B00020D0B2D0BED0B7D0B4D183D185D0B000A5
:1036C000D0A2D0B5D0BCD0BFD0B5D180D0B0D1823F
:1036D000D183D180D18B00D0A2D0B5D0BCD0BFD007
:1036E000B5D180D0B0D182D183D180D0B000D0A26A
:1036F000D0B8D0BF20D0B8D0B7D0BCD0B5D180D052
:10370000B5D0BDD0B8D18F3A20002900202844453B
:10371000433A2000307800D090D0B4D180D0B5D1D9
:10372000813A2000494E4133323231004C4D373519
:10373000004D41583434303039004248313735304B
:103740000054534C323536310000D09FD0BED1806A
:10375000D1823A2000416E616C6F672053656E73B1
:103760006F7200494E4132313900424D503238308B
:1037700000424D45323830005369373032312C2009
:1037800048545532314400414D32333230003A0012
:10379000D090D0B4D180D0B5D1813A2000445331FB
:1037A0003842323000D09DD0B0D0B8D0BCD0B5D0E7
:1037B000BDD0BED0B2D0B0D0BDD0B8D0B53A2000C8
:1037C000202000646F6E650A004E6F20493243204E
:1037D0006465766963657320666F756E640A003090
:1037E00000556E6B6E6F776E206572726F7220611E
:1037F00074206164647265737320307800274C43D1
:1038000044204F4C45442031323878363427002745
:10381000424D503138302C20424D503238302C201F
:10382000424D45323830206261726F6D6574726945
:10383000632070726573737572652073656E736F44
:1038400072270027424D503138302C20424D5032E3
:1038500038302C20424D45323830206261726F6D15
:103860006574726963207072657373757265207315
:10387000656E736F722700274C4344204F4C4544BC
:1038800020313238783634270027445333323331ED
:10389000207265616C2D74696D6520636C6F636B5C
:1038A00027204F5220274D50552D39323530204E8C
:1038B000696E6520617869732073656E736F72201D
:1038C0006D6F64756C652700274144584C3334355F
:1038D00020496E70757420332D41786973204469D6
:1038E000676974616C20416363656C65726F6D65B7
:1038F00074657227002741543234433332204545E2
:1039000050524F4D27002741445331313135204D1E
:103910006F64756C652031362D426974270027412C
:10392000445331313135204D6F64756C652031362B
:103930002D42697427002741445331313135204DE0
:103940006F64756C652031362D42697427204F52A3
:1039500020275350492D746F2D554152542700276D
:1039600041445331313135204D6F64756C652031E0
:10397000362D426974270027424D503138302C20B3
:103980005369373031332C205369373032302C2093
:103990005369373032312C204854553231442C2071
:1039A000534854323127002754534C323536312096
:1039B000416D6269656E74204C6967687420536557
:1039C0006E736F72270027504346383537342038DE
:1039D0002D42697420492F4F20457870616E6465CF
:1039E0007227204F5220274C434D31363032204C25
:1039F000434420416461707465722027002750435E
:103A0000463835373420382D42697420492F4F20ED
:103A1000457870616E6465722700275043463835DB
:103A2000373420382D42697420492F4F2045787053
:103A3000616E64657227002750434638353734205D
:103A4000382D42697420492F4F20457870616E648B
:103A500065722700275043463835373420382D42C9
:103A6000697420492F4F20457870616E6465722714
:103A7000204F52202742483137353046564920647E
:103A800069676974616C204C696768742053656E5E
:103A9000736F722700275043463835373420382D4E
:103AA00042697420492F4F20457870616E646572B9
:103AB0002700275043463835373420382D42697463
:103AC00020492F4F20457870616E6465722700276A
:103AD0005043463835373420382D42697420492FF9
:103AE0004F20457870616E64657227204F52202701
:103AF0004C434D31363032204C4344204164617098
:103B000074657227200027546F7563682053656EB3
:103B1000736F7227002742483137353046564920A7
:103B20006469676974616C204C69676874205365C7
:103B30006E736F7227204F522027546F7563682071
:103B400053656E736F720027546F756368205365F9
:103B50006E736F72270027546F7563682053656E0C
:103B6000736F72270027484D433538383320332D83
:103B700041786973204469676974616C20436F6D93
:103B8000706173732700274144584C333435204902
:103B90006E70757420332D417869732044696769AC
:103BA00074616C20416363656C65726F6D657465EB
:103BB000722700274D6F746F7220447269766572A8
:103BC0002700274D6F746F722044726976657227E3
:103BD00000202D20003078005363616E6E696E679F
:103BE000206932632E2E2E00206973203C3C4F4EFC
:103BF0003E3E00206973203C3C4F46463E3E0069F5
:103C0000736E277420636F6E6669677572656400F2
:103C10000909092E2E2E436F6E74726F6C6C207022
:103C20006F727420002E2E2E0020697320636F6E39
:103C30006E656374656420746F2076616C756520B1
:103C40000009092E2E2E7468652067726F7570202A
:103C50000009093D3D3D3D3D3D3D3D3D3D3D3D3D39
:103C60003D3D3D3D3D3D3D3D3D3D3D3D3D3D002ED0
:103C70002E2ED09ED09A0009092E2E2ED0A1D0BE75
:103C8000D185D180D0B0D0BDD18FD0B5D0BC20D01F
:103C9000BFD0BED0BBD183D187D0B5D0BDD18BD062
:103CA000B520D0B7D0BDD0B0D187D0B5D0BDD0B8B9
:103CB000D18F0009093D3D3D3D20D0BED188D0B80F
:103CC000D0B1D0BAD0B02C20D0BFD0BED0BAD0B0F6
:103CD000D0B7D0B0D0BDD0B8D18F20D0BDD0B52016
:103CE000D181D0BED185D180D0B0D0BDD18FD18E81
:103CF000D182D181D18F203D3D3D0009092E2E2E4C
:103D0000D09DD0B0D0B8D0BCD0B5D0BDD0BED0B290
:103D1000D0B0D0BDD0B8D0B520D0B4D0B0D182D141
:103D200087D0B8D0BAD0B03A200020D0B8D0B720D1
:103D3000002E2E2ED098D0B7D0BCD0B5D180D0B523
:103D4000D0BDD0B8D0B52000092E2E2ED094D0B042
:103D5000D182D187D0B8D0BA2000494E4133323217
:103D600031004C4D3735004D415834343030390036
:103D70004248313735300054534C323536310041EA
:103D80006E616C6F6720506F727400494E41323122
:103D90003900424D5032383000424D453238300003
:103DA00048545532314400414D323330320044538F
:103DB0003138423230000909092E2E2E74686520F0
:103DC000706F727420646F6573206E6F74207375EA
:103DD00070706F727420616E616C6F67206D6561C9
:103DE000737572656D656E7473002E2E2E646F6E22
:103DF00065000909092E2E2E6D6561737572656D5A
:103E0000656E7420414E414C4F475F5335002E2E56
:103E10002E646F6E65000909092E2E2E6D65617383
:103E20007572656D656E7420414E414C4F475F530E
:103E300034002E2E2E646F6E65000909092E2E2E79
:103E40006D6561737572656D656E7420414E414C90
:103E50004F475F5333002E2E2E646F6E65000909A5
:103E6000092E2E2E6D6561737572656D656E7420F9
:103E7000414E414C4F475F5332002E2E2E646F6EE1
:103E800065000909092E2E2E6D6561737572656DC9
:103E9000656E7420414E414C4F475F5331003D3DAC
:103EA0003D3D3D3D3D3D3D3D3D3D3D3D3D3D3D3D42
:103EB0003D3D3D3D3D3D3D3D3D3D3D3D3D3D3D3D32
:103EC0003D3D3D3D3D3D3D3D3D3D3D3D3D002000B9
:103ED000200020200020200020002020002D2D2D5B
:103EE0002D2D2D2D2D2D2D2D2D2D2D2D2D2D2D2D02
:103EF0002D2D2D2D2D2D2D2D2D2D2D2D2D2D2D2DF2
:103F00002D2D2D2D2D2D2D2D2D0020D09DD0B0D03F
:103F1000B7D0B2D0B0D0BDD0B8D0B520207C202052
:103F2000D098D0B7D0BCD0B5D180D0B5D0BDD0BDA1
:103F3000D18BD0B520D0BFD0BED0BAD0B0D0B7D002
:103F4000B0D0BDD0B8D18F20207C20D09ED188D0D9
:103F5000B8D0B1D0BAD0B8002E2E2E646F6E6500E6
:103F60000909092E2E2E6D6561737572656D656E7A
:103F7000742048756D6D002E2E2E646F6E650009DD
:103F800009092E2E2E6D6561737572656D656E74EF
:103F90002054656D70002E2E2E646F6E6500090929
:103FA000092E2E2E6D6561737572656D656E7420B8
:103FB00048756D6D002E2E2E646F6E65000909091F
:103FC0002E2E2E6D6561737572656D656E7420544D
:103FD000656D70004572726F722073657474696EDE
:103FE00067204D5452656720746F206869676820A8
:103FF00076616C756520666F72206C6F77206C69D6
:1040000067687420656E7669726F6E6D656E740098
:1040100053657474696E67204D5452656720746FE0
:1040200020686967682076616C756520666F72200C
:104030006C6F77206C6967687420656E7669726F43
:104040006E6D656E74004572726F72207365747464
:10405000696E67204D5452656720746F20646566F1
:1040600061756C742076616C756520666F72206E68
:104070006F726D616C206C6967687420656E76691B
:10408000726F6E6D656E740053657474696E67202F
:104090004D5452656720746F2064656661756C7459
:1040A0002076616C756520666F72206E6F726D612F
:1040B0006C206C6967687420656E7669726F6E6DCE
:1040C000656E74004572726F722073657474696EE8
:1040D00067204D5452656720746F206C6F7720768F
:1040E000616C756520666F722068696768206C690D
:1040F00067687420656E7669726F6E6D656E7400A8
:1041000053657474696E67204D5452656720746FEF
:10411000206C6F772076616C756520666F72206801
:10412000696768206C6967687420656E7669726F6C
:104130006E6D656E74002E2E2E646F6E65002E2ED1
:104140002EEEF8E8E1EAE020E8EBE820EFEEEAE026
:10415000E7E0EDE8FF20ECE5EDFCF8E520EDF3EB22
:10416000FF000909092E2E2E6D6561737572656D4C
:10417000656E74204C69676874005F307835630041
:104180005F30783233002E2E2E646F6E6500090981
:10419000092E2E2E6D6561737572656D656E7420C6
:1041A0005072657373002E2E2E646F6E65000909C0
:1041B000092E2E2E6D6561737572656D656E7420A6
:1041C00048756D6D002E2E2E646F6E65000909090D
:1041D0002E2E2E6D6561737572656D656E7420543B
:1041E000656D70002E2E2E646F6E65000909092E14
:1041F0002E2E6D6561737572656D656E74205072DB
:10420000657373002E2E2E646F6E65000909092EEA
:104210002E2E6D6561737572656D656E74204875BF
:104220006D6D002E2E2E646F6E65000909092E2E0D
:104230002E6D6561737572656D656E742048756D60
:104240006D002E2E2E646F6E65000909092E2E2E2C
:104250006D6561737572656D656E742054656D7002
:10426000002E2E2E646F6E65000909092E2E2E6D0C
:104270006561737572656D656E74205072657373D8
:10428000002E2E2E646F6E65000909092E2E2E6DEC
:104290006561737572656D656E742048756D6D002E
:1042A0002E2E2E646F6E65000909092E2E2E6D6567
:1042B00061737572656D656E742054656D70002E46
:1042C0002E2E646F6E65000909092E2E2E6D656114
:1042D000737572656D656E74205072657373002E10
:1042E0002E2E646F6E65000909092E2E2E6D6561F4
:1042F000737572656D656E742054656D70002E2E39
:104300002E646F6E65000909092E2E2E6D6561738E
:104310007572656D656E74205072657373002E2E14
:104320002E646F6E65000909092E2E2E6D6561736E
:104330007572656D656E742054656D70004572729E
:104340006F72206F662072656164696E672000205D
:104350006F6E2073656E736F722000707265737379
:104360007572650074656D70657261747572650053
:104370002000204352433D002020002E0009095414
:104380003D0020000941646472657373284445430D
:1043900029203D2000200009416464726573732860
:1043A00048455829203D20006620002E2E2E646F9F
:1043B0006E65002E2E2E646F6E650053656E736FF2
:1043C000722000206973206F6666000909092E2E8D
:1043D0002E6D6561737572656D656E742054656DC3
:1043E00070002E2E2E6572726F72002E2E2E657248
:1043F000726F72002E2E2E646F6E65000909092EF1
:104400002E2E6D6561737572656D656E74204875CD
:104410006D6D002E2E2E6572726F72002E2E2E6420
:104420006F6E65000909092E2E2E6D656173757218
:10443000656D656E742054656D70002E2E2E65724C
:10444000726F72002E2E2E646F6E65000909092EA0
:104450002E2E6D6561737572656D656E742048757D
:104460006D6D002E2E2E6572726F72002E2E2E64D0
:104470006F6E65002E2E2E646F6E65000909092E81
:104480002E2E6D6561737572656D656E7420546551
:104490006D70002E2E2E646F6E65000909092E2E98
:1044A0002E6D6561737572656D656E7420437572EE
:1044B00072656E74002E2E2E646F6E6500090909F8
:1044C0002E2E2E6D6561737572656D656E74205646
:1044D0006F6C74616765002E2E2E646F6E65000927
:1044E00009092E2E2E6D6561737572656D656E748A
:1044F0002043757272656E74002E2E2E646F6E6589
:10450000000909092E2E2E6D6561737572656D6542
:104510006E7420566F6C74616765002E2E2E646F6A
:104520006E65000909092E2E2E6D65617375726521
:104530006D656E74204C69676874005F3078346113
:10454000002E2E2E646F6E65000909092E2E2E6D29
:104550006561737572656D656E74204C696768740A
:10456000005F30783439005F30783239005F30785E
:1045700033390022003D3D3D3D3D3D203420D0BD3E
:10458000D0B520D183D0B4D0B0D187D0BDD18BD01D
:10459000B520D0BFD0BED0BFD18BD182D0BAD0B8D9
:1045A00020D0B8D0BDD0B8D186D0B8D0B0D0BBD094
:1045B000B8D0B7D0B0D186D0B8D0B8204750525379
:1045C0002C20D0BFD0B5D180D0B5D0B7D0B0D0BF1F
:1045D000D183D181D0BAD0B0D0B5D0BC2E2E2E2070
:1045E0003D3D3D3D3D3D00436F6E74726F6C6C65AB
:1045F00072206973207265626F6F74696E67004321
:104600006F6E74726F6C6C65722069732072656274
:104610006F6F74696E6700436F6E74726F6C6C6558
:104620007220697320737461727465642C20004D6C
:104630006F64756C652000206572726F7220202097
:10464000002E2E2E6572726F72004D6F64756C6550
:10465000200020646F6E65202020002E2E2E646FB7
:104660006E6500092E2E2E4D6F64756C6520004915
:104670006E697469616C697A6174696F6E204578DE
:104680006563204D6F64756C653A2000496E6974EE
:1046900069616C697A204D6F64756C65004F4B00E1
:1046A000526573746F72207661726961626C6573B2
:1046B00000496E697469616C697A6174696F6E2012
:1046C00045786563204D6F64756C6500496E69744B
:1046D0002053656E736F727300496E697469616C03
:1046E000697A696E672053656E736F72733A200042
:1046F0003D3D3D3D3D207363616E65722044533105
:1047000038423230203D3D3D3D3D003D3D3D3D3D4B
:1047100020693263207363616E6572203D3D3D3DCB
:104720003D004C697374206F6620617661696C612D
:10473000626C652073656E736F72733A2000526508
:104740006769737465724D435553523A20004C6F3C
:104750007720636861726765206F662074686520E2
:1047600062617474657279006C6F7720636861723E
:104770006765004F4B004F4B000943616C63756CDC
:10478000617465205643432E2E2E0043616C637581
:104790006C617465205643432E2E2E20202000632A
:1047A0006F6E6669672E206D6F6465202020200083
:1047B000436F6E74726F6C6C657220696E2020207E
:1047C00000D09AD0BED0BDD182D180D0BED0BBD0D7
:1047D000BBD0B5D18020D0B7D0B0D0BFD183D189E4
:1047E000D0B5D0BD20D0B220D180D0B5D0B6D0B811
:1047F000D0BCD0B520D0BAD0BED0BDD184D0B8D036
:10480000B3D183D180D0B8D180D0BED0B2D0B0D017
:10481000BDD0B8D18F005374617274207365747504
:104820007020636F6E74726F6C6C657200436F6E94
:1048300074726F6C6C65722073657475702E2E2E99
:10484000003D3D3D3D3D3D3D3D3D3D3D3D3D3D3DD5
:104850003D3D3D3D3D3D3D3D3D3D3D3D3D3D3D3D88
:104860003D3D3D3D3D3D3D3D3D3D3D3D3D3D3D3D78
:104870003D3D3D3D3D3D3D3D3D3D3D3D3D3D3D00A5
:104880004F7065726174696F6E20776174636864DC
:104890006F67004F7065726174696F6E2077617425
:1048A0006368646F67004F7065726174696F6E2032
:1048B0007761746368646F67004F6E20706F77650F
:1048C00072004F6E20706F776572004F6E20706FB0
:1048D000776572004C6F7720766F6C746167650046
:1048E0004C6F7720766F6C74616765004C6F772032
:1048F000766F6C74616765004C61737420726573C8
:1049000065743A20004B657920494E54350000000B
:104910000A0B02090C0D0E08070304010000000039
:104920000000000000000000000000000000000087
:104930000000000000000000000012111000000044
:104940000000000000000000000000000000000067
:104950000000000001021020200808102040102054
:104960004080020102010804020101020408102033
:104970004080804020100804020180040201804031
:10498000201008040201080402010102040810209A
:104990004080010204081020408005050505070538
:1049A00008080808020202020A0A080804040404AB
:1049B00001010101010101010303030303030303D7
:1049C000040707070C0C0C0C0C0C0C0C0202020266
:1049D00006060606060606060B0B0B0B0B0B0B0B4F
:1049E000000020002300260029002C002F003200A8
:1049F000000100000301060109010000220025005A
:104A000028002B002E0031003400020100000501B7
:104A100008010B0100002100240027002A002D00BE
:104A20003000330001010000040107010A0194294C
:104A3000DA30D931443D88612483C784C3A27DAB79
:104A4000A6AC4AAE0EB0CFB23EB412B55BB798BEBC
:104A500088BF7BC124C2CDC2E4C69A29F631CD8479
:104A600019A39EBE11241FBECFEFD1E2DEBFCDBF82
:104A700000E00CBF15E0A0E0B2E0E0E8F3EB01E0FD
:104A80000BBF02C007900D92A83CB107D9F724E1F3
:104A9000A8ECB5E001C01D92AF35B207E1F715E211
:104AA000CDE2D5E200E006C021970109802FFE018A
:104AB0000E94ADCFC731D10780E00807A9F70E9457
:104AC000FBC20C94AED90C94000066E675E08BEF47
:104AD00090E10E944BC361E675E08BEF90E10E948C
:104AE00088C360E089E00E945DC889E790E10E9488
:104AF000585381E08093D0050895AF92BF92CF9232
:104B0000EF920F931F93CF93DF93182F863751F0B7
:104B1000873779F467E275E08BEF90E10E944BC331
:104B200021E007C064E475E08BEF90E10E944BC385
:104B300020E030E0C90186539A4F5C01FC0180817E
:104B4000811124C083E3829FE001839FD00D112453
:104B5000C555D04F612FCE010E940149882369F0CD
:104B600084E0C82EE12C01E025E041E063E0CE01C5
:104B70000E946D4662E275E002C06CE175E08BEF69
:104B800090E10E9488C381E0F5018083DF91CF919D
:104B90001F910F91EF90CF90BF90AF9008958091AB
:104BA000CE05811118C064E075E08BEF90E10E94A2
:104BB0004BC383EA90E10E94B857811103C064EDB2
:104BC00074E002C06FEC74E08BEF90E10E9488C348
:104BD00081E08093CE050895CF92DF92EF920F93FC
:104BE0001F93CF93DF93182F863751F0873779F4CF
:104BF00065E974E08BEF90E10E944BC321E007C0B0
:104C000062EB74E08BEF90E10E944BC320E030E058
:104C1000C90188539A4F6C01FC018081811124C025
:104C200084E3829FE001839FD00D1124CF5EDF4E8D
:104C300048E5612FCE010E94274F882361F084E070
:104C4000E82E00E021E041E063E0CE010E94364D15
:104C500060E974E002C06AE874E08BEF90E10E94C2
:104C600088C381E0F6018083DF91CF911F910F917E
:104C7000EF90DF90CF90089562E774E08BEF90E1C2
:104C80000E944BC360E484EA90E10E943F436DE6DA
:104C900074E08BEF90E10C9488C30895833219F08F
:104CA0008C35A1F008956CED73E08BEF90E10E94DC
:104CB0004BC360E184EA9FE00E946D44882319F0B1
:104CC00067ED73E012C061ED73E00FC064EB73E059
:104CD0008BEF90E10E944BC360E18DE99FE00E9461
:104CE0006D44882339F06FEA73E08BEF90E10C9408
:104CF00088C3089569EA73E08BEF90E10C9488C350
:104D000008950F931F93CF93DF93182F062F61E918
:104D100073E08BEF90E10E944BC31A3451F01B34C7
:104D200079F461E873E08BEF90E10E944BC3C1E03E
:104D300007C069E873E08BEF90E10E944BC3C0E0CD
:104D4000D0E0C453DA4F8881811111C0602F812FC8
:104D50000E9419B5811103C063E472E002C06AE6E3
:104D600072E08BEF90E10E94A8C381E08883DF911D
:104D7000CF911F910F910895CF93DF93C62F893361
:104D800039F0893441F0893269F461E374E005C097
:104D90006FE474E002C063E174E08BEF90E10E9485
:104DA0004BC306C064E074E08BEF90E10E9488C3BF
:104DB00081EB90E10E94D374882379F1D0E0CE0199
:104DC000885F984F7FD58230910539F08330910507
:104DD00051F0019741F460E101C060E081EB90E1A6
:104DE0000E94F77405C061E081EB90E10E94FF72C0
:104DF000CE01805D984F66D58230910521F00397F2
:104E000021F060E003C061E001C062E081EB90E16D
:104E10000E94E0746FEF73E002C069EF73E08BEF04
:104E200090E10E9488C3DF91CF9108950F931F9363
:104E3000CF93DF93C82F082F10E02AE0829FC00194
:104E40001124845C9A4F0E9498D9D82F8091CF0565
:104E5000811113C06BE673E08BEF90E10E944BC3AE
:104E600082E993E10E9454C666E673E08BEF90E11D
:104E70000E9488C381E08093CF05C8018C5F994F61
:104E80000E9498D990E0FC013197EA30F10508F0D2
:104E900042C08827EE58FF4F8F4F0C94ADCF8091C2
:104EA000D005811138C06C2F8D2FDF91CF911F91CC
:104EB0000F910BCE6C2F8D2FDF91CF911F910F9102
:104EC0006ECE6C2F8D2FDF91CF911F910F9115CE4C
:104ED0006C2F8D2FDF91CF911F910F917DCE6C2F75
:104EE0008D2FDF91CF911F910F91C6CE6C2F8D2FFB
:104EF000DF91CF911F910F913FCF6C2F8D2FDF91BD
:104F0000CF911F910F91CACE6C2F8D2FDF91CF9132
:104F10001F910F91F6CEDF91CF911F910F910895C0
:104F2000982F8FEF890F843028F081E0983219F0A4
:104F300080E0089581E00895982F8FEF890F8430E5
:104F400048F08CEE890F853028F081E0983219F016
:104F500080E0089581E00895982F8FEF890F8830C1
:104F600068F085EF890F883048F08CEE890F853026
:104F700028F081E0983219F080E0089581E00895EA
:104F80003A9A429A08953A9A4298089598B184E0DC
:104F9000892788B90895399A419A0895399A41988C
:104FA000089598B182E0892788B908953B9A439A79
:104FB00008953B9A43980895E6DFF0DFFACF98B161
:104FC00088E0892788B908950A9A129A08950A9A5A
:104FD000129808953C9A2FEF8BE49DE12150804078
:104FE0009040E1F700C00000449A0895E4E0F1E049
:104FF000808180688083E5E0F1E080818068808343
:105000000895E7E0F1E0808180648083E8E0F1E0EA
:1050100080818F7B80830895E7E0F1E08081806468
:105020008083E8E0F1E080818064808308953D9A88
:10503000459808953D9A459A08959A9AA298089598
:105040009A9AA29A08950F9A179808950F9A179A04
:1050500008950D9A159808950D9A159A08950B9A2A
:10506000139808950B9A139A08950C9A149808951A
:105070000C9A149A0895099A11980895099A119A08
:105080000895389A40980895089A109A089580B320
:1050900080BB81B381BB0895FACFF9CFF8CFF7CFAA
:1050A000F6CFF5CFF4CFF3CFF2CFE1E0F1E080819E
:1050B00088608083E2E0F1E08081886080830895E9
:1050C000E1E0F1E0808188608083E2E0F1E08081CE
:1050D000877F808308956F9A779A08956F9A77985B
:1050E00008956B9A739A08956B9A73980895E1E006
:1050F000F1E0808180618083E2E0F1E08081806185
:1051000080830895E1E0F1E0808180618083E2E0C6
:10511000F1E080818F7E808308956E9A769A08955B
:105120006E9A76980895E7E0F1E08081826080834E
:10513000E8E0F1E08081826080830895E7E0F1E0BB
:10514000808182608083E8E0F1E080818D7F8083D0
:105150000895E1E0F1E0808180628083E2E0F1E0A7
:105160008081806280830895E1E0F1E08081806247
:105170008083E2E0F1E080818F7D80830895E7E025
:10518000F1E0808184608083E8E0F1E080818460E8
:1051900080830895E7E0F1E0808184608083E8E027
:1051A000F1E080818B7F80830895869A8E9A08959E
:1051B000869A8E980895E7E0F1E080818860808388
:1051C000E8E0F1E08081877F808308959D9AA59A29
:1051D00008959D9AA5980895E1E0F1E080818460AA
:1051E0008083E2E0F1E08081846080830895E1E0E3
:1051F000F1E0808184608083E2E0F1E080818B7F58
:1052000080830895989899989A989B989C989D98CF
:10521000EAE0F1E080818E7F808380818D7F8083D2
:1052200080818B7F80838081877F808380818F7E58
:10523000808380818F7D808380818F7B808380814C
:105240008F778083529853985498559856985798CA
:10525000389839983A983B983C983D983E983F98B2
:10526000089809980A980B980C980D980E98E4E005
:10527000F1E080818B7F80838081877F8083808144
:105280008F7E808380818F7D808380818F7B8083F0
:1052900080818F7780838098819882988398849882
:1052A000859886988798E7E0F1E080818E7F8083FB
:1052B00080818D7F808380818B7F80838081877FC9
:1052C000808380818F7E808380818F7D80838081B9
:1052D0008F7B808380818F778083689869986A98B4
:1052E0006B986C986D986E986F98E1E0F1E0808112
:1052F0008E7F808380818D7F808380818B7F808380
:105300008081877F808380818F7E808380818F7D75
:10531000808380818F77808380818F7780832498BA
:1053200025982698279808956FE672E083E197E024
:105330000C949AC983E197E00C942FC90F931F93A3
:10534000CF9380911907882319F160E273E080E020
:1053500090E00E9462C70BE117E0CFE1F801619194
:105360008F0170E04AE050E08BEF90E10E946CC446
:105370006BE377E08BEF90E10E944BC3C73221F4DF
:105380008BEF90E10E9485C3CF5FC83239F7D9CF48
:10539000CF911F910F91089590E0FC017F97E93024
:1053A000F10508F58827E458FF4F8F4F0C94ADCFD7
:1053B00067E277E01AC063E177E017C06FEF76E04D
:1053C00014C06BEE76E011C067ED76E00EC063ECC2
:1053D00076E00BC06FEA76E008C06BE976E005C0C6
:1053E00067E876E002C06CE776E08BEF90E10C9422
:1053F0004BC390E0FC017F97E930F10580F58827E9
:10540000EB57FF4F8F4F0C94ADCF83B123C083B1C7
:1054100086FB882780F991E08927089583B18095DC
:10542000881F8827881F08958091030182FB8827A1
:1054300080F9F1CF8091030182958170ECCF80914A
:10544000030183FB882780F9E6CF80910301E0CF39
:105450008091030185FB882780F9DDCF089580E0E6
:105460000895CF93E82FA82FB0E0AA0FBB1FAE5D21
:10547000B84F862F90E08D939C938E2F90E0FC0187
:105480003197E832F10508F0ABC1C42F8827E25705
:10549000FF4F8F4F0C94ADCF423049F0433009F4A9
:1054A000A1C1413009F095C162E776E010C06130DA
:1054B00011F4FBDD94C104DE92C1423069F0433047
:1054C00009F492C1413009F084C168E676E08BEFBF
:1054D00090E10E944BC383C1613011F4FCDD7FC1B8
:1054E000FDDD7DC1423049F0433009F47FC14130D8
:1054F00009F06FC16EE576E0EACF613011F4F1DDBD
:105500006EC1F2DD6CC1423049F0433009F470C124
:10551000413009F05EC164E576E0D9CF613011F425
:10552000E6DD5DC1EFDD5BC1423049F0433009F497
:1055300061C1413009F04DC16AE476E0C8CF613005
:1055400011F4EBDD4CC1ECDD4AC1423049F043308F
:1055500009F452C1413009F03CC160E476E0B7CFB4
:10556000613011F4E0DD3BC1E9DD39C1423049F081
:10557000433009F459C1413009F02BC166E376E0AC
:10558000A6CF613011F4E5DD2AC1EEDD28C142303D
:1055900049F0433009F432C1413009F01AC16CE2DC
:1055A00076E095CF613011F4EADD19C1F3DD17C162
:1055B000423061F0433009F421C1413061F462E2CC
:1055C00076E08BEF90E10E944BC305C0613011F48F
:1055D000ECDD01C0EDDD6DE076E08BEF90E10E9447
:1055E0004BC3F7C0423049F0433009F409C14130A0
:1055F00009F0EFC06DEF75E06ACFDDDDF0C042303D
:1056000049F0433009F4FEC0413009F0E2C066EFD2
:1056100075E05DCF613011F40ADDE1C00BDDDFC064
:10562000423049F0433009F4EFC0413009F0D1C0B5
:105630006FEE75E04CCF613011F4FFDCD0C000DDBF
:10564000CEC0423049F0433009F4E0C0413009F0A7
:10565000C0C068EE75E03BCF613011F4F4DCBFC030
:10566000F5DCBDC0423049F0433009F4D1C04130CF
:1056700009F0AFC061EE75E02ACF613011F4E9DCCA
:10568000AEC0EADCACC0423049F0433009F4C2C0DD
:10569000413009F09EC06AED75E019CF613011F418
:1056A000DEDC9DC0DFDC9BC0423049F0433009F4B2
:1056B000B3C0413009F08DC063ED75E008CF6130B3
:1056C00011F4D3DC8CC0D4DC8AC0423049F04330C2
:1056D00009F4A4C0413009F07CC06CEC75E0F7CE51
:1056E000613011F4C8DC7BC0C9DC79C0423049F0BC
:1056F000433009F495C0413009F06BC065EC75E0AA
:10570000E6CE613011F4BDDC6AC0BEDC68C0423058
:1057100049F0433009F486C0413009F05AC06BEBC0
:1057200075E0D5CE613011F4BFDC59C0BCDC57C088
:10573000423049F0433009F477C0413009F049C0A4
:1057400061EB75E0C4CE613011F4ACDC48C0A9DC7B
:1057500046C0423049F0433009F468C0413009F096
:1057600038C067EA75E0B3CE613011F499DC37C018
:1057700096DC35C0423041F0433009F459C0413025
:1057800041F56DE975E0A3CE613011F487DC27C0E7
:1057900084DC25C0423041F0433009F44BC0413035
:1057A000C1F463E975E093CE613011F475DC17C084
:1057B0006EDC15C0423039F04330E1F1413049F43C
:1057C0006FE775E084CE613011F400DD08C001DDC3
:1057D00006C0C43021F48BEF90E10E9485C32BC03A
:1057E0008FEF29C08DE027C086E025C08AE023C066
:1057F00084E021C08DE31FC08EE31DC08FE31BC07A
:1058000086E319C080E217C08FE115C087E213C09C
:105810008DE111C089E10FC08AE10DC088E10BC0A4
:1058200087E109C089E007C088E005C08CE303C0B8
:1058300089E301C08AE3CF910895FF920F931F93EC
:10584000CF93DF93EC01F62E08811981C8010E94E5
:1058500098D9F81621F06F2DC8010E94A0D9CE0169
:10586000DF91CF911F910F91FF900895CF92DF921A
:10587000EF92FF920F931F93CF93DF931F921F928C
:10588000CDB7DEB76C017A836983CE0101967C01C6
:1058900000E010E0F70161917F01C601800F911FC8
:1058A0000E94A0D90F5F1F4F0430110599F70F9088
:1058B0000F90DF91CF911F910F91FF90EF90DF90AC
:1058C000CF900895CF92DF92EF92FF920F931F93A4
:1058D000CF93DF9300D01F92CDB7DEB77E0125E0D6
:1058E000E20EF11C8E010F5F1F4F6C01C01AD10A2E
:1058F000C601800F911F0E9498D9F80181938F01F2
:10590000EE15FF05A9F789819A810F900F900F90EE
:105910000F90DF91CF911F910F91FF90EF90DF904B
:10592000CF900895CF92DF92EF92FF920F931F9343
:10593000CF93DF9300D01F92CDB7DEB77E0125E075
:10594000E20EF11C8E010F5F1F4F6C01C01AD10ACD
:10595000C601800F911F0E9498D9F80181938F0191
:10596000EE15FF05A9F769817A818B819C810F90E3
:105970000F900F900F90DF91CF911F910F91FF909B
:10598000EF90DF90CF900895CF92DF92EF92FF9249
:105990000F931F93CF93DF9300D01F92CDB7DEB745
:1059A0006C0149835A836B837C83CE0101967C0111
:1059B00000E010E0F70161917F01C601800F911FA7
:1059C0000E94A0D90F5F1F4F0430110599F70F9067
:1059D0000F900F900F90DF91CF911F910F91FF903B
:1059E000EF90DF90CF9008950F931F93CF93DF93A5
:1059F0001F921F92CDB7DEB7833099F140F481300A
:105A000081F0823009F071C008EE13E01BC08530D0
:105A100009F449C0B8F1863009F067C00AE010E027
:105A200052C000ED17E01A83098360E0CE010196B1
:105A300004DF0F5F1F4F013080E11807A1F767EE09
:105A400077E04FC01A83098360E0CE010196F5DE4E
:105A50000F5F1F4F003D87E01807A1F761EC77E06B
:105A600040C00CEB12E01A83098360E0CE0101967E
:105A7000E4DE0F5F1F4F073E83E01807A1F76DE9D3
:105A800077E02FC004E610E01A83098360E0CE01BE
:105A90000196D3DE0F5F1F4F0B3B82E01807A1F783
:105AA00064E777E01EC004E110E01A83098360E038
:105AB000CE010196C2DE0F5F1F4F04361105A9F714
:105AC0006DE477E00EC01A83098360E0CE01019691
:105AD000B4DE0F5F1F4F011580E11807A1F76DE3DA
