:100000000C94FB250C942C260C942C260C942C265A
:100010000C942C260C946BAF0C947AAF0C942C2679
:100020000C942C260C94A6AF0C94CAAF0C942C26DE
:100030000C942C260C942C260C942C260C942C26F8
:100040000C942C260C94CA670C942C260C942C2609
:100050000C942C260C942C260C942C260C9469BF02
:100060000C942C260C9480B90C94CAB90C942C26B0
:100070000C942C260C9408B00C942C260C942C2652
:100080000C94F6670C942C260C942C260C942C269D
:100090000C942C260C942C260C942C260C94F4C630
:1000A0000C942C260C942C260C9422680C942C2650
:1000B0000C942C260C942C260C942C260C944E6814
:1000C0000C942C260C942C260C9408AF0C9429BA72
:1000D0000C9473BA0C942C260C94D2BA0C941CBBBE
:1000E0000C942C26E527EA27EF27F4270828F92780
:1000F000FE2703284A2A4D2A502A532A562A592ACB
:100100005C2A5F2A622A772A792A802A862AA02AEC
:100110008C2A912A972A9A2ABE2AD92AF82A2E2B83
:10012000132B492B642B7F2B9A2BBD2BD42BEF2B1E
:100130000A2C252C402C5B2C762C912C5A2DAC2C87
:10014000C72CE22CFD2C182D5A2D5A2D5A2D5A2D24
:100150005A2D5A2D5A2D5A2D5A2D5A2D5A2D5A2D67
:100160005A2D5A2D5A2D312D783F7F3F863F8D3F96
:10017000943FAC3F9B3FAC3FA23F1E4022402640F5
:100180002A402E4032403640A17CA57CB47CB47C11
:10019000A97CB47CB47CB47CAD7CB47CA37CB47C02
:1001A000B47CB27CB47CB47CA77C9D7CB47CB47CF5
:1001B000AB7CC77CC57CCB7CCF7CEB7CD37CD77CF9
:1001C000DB7CDF7CE37CE77C5E896189648967890D
:1001D0006A896D897089128B158B1B8B1F8B238B02
:1001E0002B8B2E8B358B3A8B2B8C2B8C498B728BDC
:1001F000B08BB38BB68BB98BBC8BBF8BC28BC58BD3
:10020000C88BCB8BCE8BD18BD48BD78BEF8BF28BD8
:100210002B8C0D8CC898ED98F098F398F698F99877
:10022000FC981399169919991C991F99AF9DC09D17
:10023000D19DE39DF49D059E179E289E3A9E4B9E60
:100240005D9E6E9EE3ABF2AB01AC10AC1FAC2EAC6E
:100250003DACA7C0AAC099C09DC0A3C0E1C0AEC0BC
:10026000B2C0B8C0BCC0C0C0C6C0CAC0CEC0E1C069
:10027000D4C0D8C0DCC000407A10F35A00A0724E3F
:1002800018090010A5D4E80000E87648170000E43B
:100290000B54020000CA9A3B000000E1F505000083
:1002A00080969800000040420F000000A0860100E8
:1002B0000000102700000000E803000000006400B8
:1002C000000000000A000000000001000000000023
:1002D0002C76D888DC674F0823DFC1DFAE59E1B147
:1002E000B796E5E3E453C63AE651997696E8E6C256
:1002F0008426EB898C9B62ED407C6FFCEFBC9C9F5D
:1003000040F2BAA56FA5F490055A2AF75C936B6C7E
:10031000F9676DC11BFCE0E40D47FEF520E6B50072
:10032000D0ED902E0300943577050080841E0800E0
:1003300000204E0A000000C80C333333330F986E90
:1003400012831141EF8D2114893BE65516CFFEE64D
:10035000DB18D1844B381BF77C1D901DA4BBE42413
:10036000203284725E228100C9F124ECA1E53D2790
:10037000307834622E2E2E00307834612E2E2E00EE
:1003800009496E697469616C697A696E67204D41CB
:1003900058343430303920006572726F7200646FE7
:1003A0006E650009496E697469616C697A696E6786
:1003B0002042483137353020307835432E2E2E00FC
:1003C0006572726F7200646F6E650009496E6974C0
:1003D00069616C697A696E6720424831373530202F
:1003E000307832332E2E2E006572726F7200646F79
:1003F0006E6500094572726F722061646472657384
:10040000730009496E697469616C697A696E672065
:1004100054534C3235363120307834392E2E2E005C
:1004200009496E697469616C697A696E6720545311
:100430004C3235363120307832392E2E2E00094993
:100440006E697469616C697A696E672054534C32C5
:1004500035363120307833392E2E2E00646F6E659C
:100460000009496E697469616C697A696E6720492F
:100470004E413231392E2E2E006572726F72006439
:100480006F6E650009496E697469616C697A696E9D
:100490006720424D5032383020307837372E2E2E9C
:1004A0000009496E697469616C697A696E672042F6
:1004B0004D5032383020307837362E2E2E00646F73
:1004C0006E650073656E736F722069732066616973
:1004D0006C6564206F72206E6F7420636F6E6E6542
:1004E000637465640009496E697469616C697A694D
:1004F0006E67204854553231442E2E2E006572729C
:100500006F7200646F6E650009496E697469616C91
:10051000697A696E6720424D45323830203078372D
:10052000372E2E2E0009496E697469616C697A69EB
:100530006E6720424D4532383020307837362E2EC7
:100540002E00456E61626C65205374657070657233
:1005500020506F727400416E616C6F6720533500DC
:10056000416E616C6F6720533400416E616C6F6740
:1005700020533300416E616C6F6720533200416E2F
:10058000616C6F67205331004750494F2D38004749
:1005900050494F2D37004750494F2D36004750499D
:1005A0004F2D35004750494F2D34004750494F2DAE
:1005B00033004750494F2D32004750494F2D3100ED
:1005C0004558545F52554E5F535445505045520064
:1005D000506F72742069736E277420636F6E6E653E
:1005E00063746564004558545F50494E5F39004557
:1005F00058545F50494E5F38004558545F50494E3B
:100600005F37004558545F50494E5F360045585497
:100610005F50494E5F35004558545F50494E5F3436
:10062000004558545F50494E5F33004558545F5061
:10063000494E5F32004558545F50494E5F31004586
:1006400072726F72206461746100494E5055545F3C
:100650004449474954414C5F50494E5F3900494E27
:100660005055545F4449474954414C5F50494E5F8F
:100670003800494E5055545F4449474954414C5FF6
:1006800050494E5F3700494E5055545F44494749E1
:1006900054414C5F50494E5F3600494E5055545FAF
:1006A0004449474954414C5F50494E5F3500494EDB
:1006B0005055545F4449474954414C5F50494E5F3F
:1006C0003400494E5055545F4449474954414C5FAA
:1006D00050494E5F3300494E5055545F4449474995
:1006E00054414C5F50494E5F3200494E5055545F63
:1006F0004449474954414C5F50494E5F3100200006
:10070000454550524F4D20697320636C65616E0002
:10071000436F6E666967607320636F6E74726F6C8F
:100720006C6572206F6E20454550524F4D206973A5
:1007300020636C65616E00436F6E6669676073204D
:1007400065786563206D6F64756C6573206F6E20CE
:10075000454550524F4D20697320636C65616E00B2
:10076000436F6E6669676073206368616E6E656C67
:100770006073206F6E20454550524F4D20697320A5
:10078000636C65616E00436F6E66696773607320AA
:1007900073656E736F726073206F6E2045455052A3
:1007A0004F4D20697320636C65616E004572726FF6
:1007B000726073206F6E20454550524F4D20697313
:1007C00020636C65616E00090909090909092E2E6B
:1007D0002E6472697665722073746570706572201C
:1007E0006D6F746F722069732073746F70000909E4
:1007F00009090909092E2E2E486172647761726514
:10080000207175616E74697479206F6620746865F3
:10081000207061737361626C6520737465707320FE
:100820003D2000090909090909092E2E2E5061737E
:100830007361626C65207175616E74697479206F83
:1008400066207374657073203D2000090909090949
:1008500009092E2E2E5175616E74697479206F66A8
:10086000207374657073206F6620746865206D6FE7
:10087000746F72203D2000090909090909092E2E0B
:100880002E5573652064656661756C74207365749C
:100890004D61785370656564203D20353030000926
:1008A0000909090909092E2E2E557365206465660C
:1008B00061756C7420736574416363656C65726106
:1008C00074696F6E203D203130303000636D000957
:1008D0000909090909092E2E2E53746570203D203F
:1008E000002069742069732073746F7070656400F0
:1008F00020697420697320737461727465640009DF
:100900000909090909092E2E2E647269766572207B
:1009100073746570706572206D6F746F72206F6E86
:1009200020706F72742000293A2000090909090912
:1009300009092E2E2E55502073776974636828009C
:10094000293A2000090909090909092E2E2E444FC8
:10095000574E207377697463682028002E00006F5B
:100960006E006F66660009090909092E2E2E54686B
:100970006520706F72742069736E277420636F6EC8
:100980006669677572656400090909090909090939
:100990002E2E2E6D6F76656D656E742069732065E1
:1009A00072726F72212121000909090909090909D7
:1009B0002E2E2E6D6F76656D656E742069732064C2
:1009C0006F6E652121210009090909090909092E0C
:1009D0002E2E6D6F76656D656E742069732073744D
:1009E00061727465640009090909090909092E2E53
:1009F0002E706F727420697320696E697469616CFE
:100A0000697A696E67002A002E20416E676C652046
:100A1000526F746174696F6E3A20002900202800BB
:100A2000090909090909092E2E2E52756E205365F0
:100A300072766F206D6F746F72206F6E20002A00C7
:100A40002E205369676E616C204C6576656C3A2088
:100A500000090909092E2E2E52756E2050574D207F
:100A60006F6E20706F727420002B485454504143B5
:100A700054494F4E0041542B48545450414354491B
:100A80004F4E3D30004552524F52004F4B004F4B9E
:100A90000041542B48545450504152413D22434947
:100AA00044222C310053656E64696E6720612047D3
:100AB000455420726571756573743A20003D3D3D63
:100AC0003D3D3D3D3D3D3D3D3D3D3D3D3D3D3D3D56
:100AD0003D3D3D3D3D3D3D3D3D3D3D3D3D3D3D3D46
:100AE0003D3D3D3D3D3D3D3D3D3D3D002900457386
:100AF0007461626C69736865642028002B534150EF
:100B000042520041542B53415042523D322C31004D
:100B1000312C3300312C3200312C3100312C30009B
:100B20005374617465204750525320436F6E6E6555
:100B30006374696F6E3A20003D3D3D3D3D3D3D3D56
:100B40003D3D3D3D3D2053746172742047505253EA
:100B5000203D3D3D3D3D3D3D3D3D3D3D3D3D00411B
:100B6000542B48545450494E49540041542B53413E
:100B70005042523D312C310041542B53415042528E
:100B80003D332C312C22505744222C226265656C57
:100B9000696E65220041542B53415042523D332C23
:100BA000312C2255534552222C226265656C696EA8
:100BB00065220041542B53415042523D332C312C7D
:100BC0002241504E222C22696E7465726E65742E1D
:100BD0006265656C696E652E7275220041542B53F7
:100BE000415042523D332C312C22434F4E545950E8
:100BF00045222C224750525322005365727665726B
:100C0000206E6F7420617661696C61626C65004F63
:100C10004B0050616765206E6F7420666F756E645F
:100C200000363033003230300034303400526573D7
:100C3000706F6E73652066726F6D2057454220732A
:100C400065727665723A200041542B435553443DFA
:100C5000300022002B435553443A004154483000A1
:100C600041544830002B434C495000D0A1D09CD077
:100C7000A15F31002B434D54490047534D20696E0D
:100C80007075743A200054656D705F55503A2000BD
:100C90002C200054656D705F444F574E3A2000740D
:100CA000656D700074656D700054656D705F426FA6
:100CB000783A20002C200054656D705F55503A2022
:100CC000002C200054656D705F444F574E3A200051
:100CD00054656D705F4C6566743A200054656D70A4
:100CE0005F52696768743A20005643433A200053C4
:100CF0007461747573007374617475730041542B5F
:100D000053415042523D302C3100677072735F6F17
:100D1000666600677072735F6F6E0041542B5341BB
:100D20005042523D302C3100677072735F727374A1
:100D30000072657365740041542B434D47443D3444
:100D40000041542B434D47463D310D002B3739317F
:100D50003339303435393235002B37393133393086
:100D60003435393235003D3D3D3D3D3D3D3D3D3D18
:100D70003D3D3D3D3D3D3D20496E697469616C6975
:100D80007A696E6720636F6D706C657465203D3D98
:100D90003D3D3D3D3D3D3D3D3D3D3D3D3D3D3D00C0
:100DA00041542B4353434C4B3D31005765207265F2
:100DB000736F6C766520736C656570206D6F64650C
:100DC0002E2E2E4F4B003D3D3D3D3D3D3D3D3D3D9D
:100DD0003D3D3D3D3D3D3D20537461727420696E43
:100DE000697469616C697A696E672047534D206D3B
:100DF0006F64756C6520203D3D3D3D3D3D3D3D3D75
:100E00003D3D3D3D3D3D3D3D0041542B435343530E
:100E10003D2247534D220041542B434D47463D311F
:100E20000041542B434C49503D310041544531560B
:100E3000312B434D45453D323B265700415445300B
:100E40000054696D656F75742E2E2E00D09DD0B53F
:100E5000D0B8D0B7D0B2D0B5D181D182D0BDD0BEBC
:100E600000D0A0D0B5D0B3D0B8D181D182D180D0BC
:100E7000B0D186D0B8D18F20D0BED182D0BAD0BB6D
:100E8000D0BED0BDD0B5D0BDD0B000D09FD0BED0E8
:100E9000B8D181D0BA20D181D0B5D182D0B800D01C
:100EA00097D0B0D180D0B5D0B3D0B8D181D182D1D4
:100EB00080D0B8D180D0BED0B2D0B0D0BD20D0B21A
:100EC00020D181D0B5D182D0B800D09DD0B5D1820B
:100ED00020D0BFD0BED0B8D181D0BAD0B020D1817F
:100EE000D0B5D182D0B800D09DD0B520D0B7D0B089
:100EF000D180D0B5D0B3D0B8D181D182D180D0B893
:100F0000D180D0BED0B2D0B0D0BD20D0B220D1815F
:100F1000D0B5D182D0B83A200041542B4352454736
:100F20003F002B435245473A20302C34002B43528C
:100F300045473A20302C33002B435245473A203066
:100F40002C32002B435245473A20302C31002B43A2
:100F50005245473A20302C3000D0A1D0BED181D1AB
:100F600082D0BED18FD0BDD0B8D0B52047534D3A36
:100F70002000D093D0BED182D0BED0B200D09DD0C0
:100F8000B5D1822053494D20D0BAD0B0D180D18282
:100F9000D18B004154004F4B004E4F5420494E53CB
:100FA000455254454400D0A1D0BED181D182D0BE9B
:100FB000D18FD0BDD0B8D0B52047534D20D0BCD0B4
:100FC000BED0B4D183D0BBD18F3A20003131302E86
:100FD0002E2D353420D0B4D0910031313220D0B410
:100FE000D0910031313520D0B4D09120D0B820D06C
:100FF000BCD0B5D0BDD18CD188D0B500D0A3D18024
:10100000D0BED0B2D0B5D0BDD18C20D181D0B8D097
:10101000B3D0BDD0B0D0BBD0B03A20002B43535199
:101020000041542B43535100496E636C7573696FD3
:101030006E205643432E2E2E4F4B0037393133331B
:101040003737343134350037393133383936333482
:1010500038320037393133373531373037350037AB
:1010600039313339303435393235003233003232A8
:1010700000323100004572726F72206D656E75200E
:101080002020202020002020202000493A0020207D
:10109000005643433A004C696768742050616E659E
:1010A0006C2020202020004F666620200020004574
:1010B00072726F720020202020202020202020200B
:1010C000202020202000250020202000202020207B
:1010D00020202020202020202020202000430076D7
:1010E0000020202020202020202020202020202020
:1010F00020004D616E75616C002020202020202092
:10110000202020202020202020004175746F6D6158
:1011100074696300436F6E74726F6C6C65722052F9
:10112000756E2020005B4248313735305D204465C4
:1011300076696365206973206E6F7420636F6E66D5
:1011400069677572656421005B4248313735305DEF
:10115000204552524F523A20756E646566696E653D
:1011600064206572726F72005B4248313735305DC2
:10117000204552524F523A206F7468657220657252
:10118000726F72005B4248313735305D20455252F4
:101190004F523A207265636569766564204E41431B
:1011A0004B206F6E207472616E736D6974206F6670
:1011B0002064617461005B4248313735305D204501
:1011C00052524F523A207265636569766564204ECB
:1011D00041434B206F6E207472616E736D69742091
:1011E0006F662061646472657373005B42483137D7
:1011F00035305D204552524F523A20746F6F206C4B
:101200006F6E6720666F72207472616E736D6974A1
:1012100020627566666572005B4248313735305D25
:10122000204552524F523A204D54726567206F75D7
:1012300074206F662072616E6765005B42483137CB
:1012400035305D204552524F523A20756E646566C6
:10125000696E6564206572726F72005B4248313757
:1012600035305D204552524F523A206F7468657296
:10127000206572726F72005B4248313735305D20F5
:101280004552524F523A2072656365697665642013
:101290004E41434B206F6E207472616E736D6974A2
:1012A000206F662064617461005B424831373530DD
:1012B0005D204552524F523A2072656365697665EA
:1012C00064204E41434B206F6E207472616E736DCB
:1012D0006974206F662061646472657373005B4299
:1012E00048313735305D204552524F523A20746FA5
:1012F0006F206C6F6E6720666F72207472616E7300
:101300006D697420627566666572005B42483137AC
:1013100035305D204552524F523A20496E76616C0D
:101320006964206D6F646500005EBCE2613FDD832F
:10133000C29C7E20A3FD1F419DC3217FFCA2401EB5
:101340005F01E3BD3E6082DC237D9FC1421CFEA0A5
:10135000E1BF5D0380DE3C62BEE0025CDF81633D95
:101360007C22C09E1D43A1FF4618FAA427799BC585
:1013700084DA3866E5BB5907DB856739BAE4065875
:101380001947A5FB7826C49A653BD987045AB8E665
:10139000A7F91B45C6987A24F8A6441A99C7257B55
:1013A0003A6486D85B05E7B98CD2306EEDB3510F45
:1013B0004E10F2AC2F7193CD114FADF3702ECC9235
:1013C000D38D6F31B2EC0E50AFF1134DCE90722C25
:1013D0006D33D18F0C52B0EE326C8ED0530DEFB115
:1013E000F0AE4C1291CF2D73CA947628ABF5174905
:1013F0000856B4EA6937D58B5709EBB536688AD4F5
:1014000095CB2977F4AA4816E9B7550B88D6346AE4
:101410002B7597C94A14F6A8742AC896154BA9F7D4
:10142000B6E80A54D7896B3527206973206E6F742C
:1014300020636F6E66696775726564000909094DFE
:10144000616E6167656D656E74206F6620636861AB
:101450006E6E656C20270029000909094D616E61D7
:1014600067656D656E74206F66206368616E6E657A
:101470006C206973207374617274656420696E20D6
:101480005465726D6F73746174206D6F646520288C
:1014900000090909092E2E2ED09ED188D0B8D0B1CE
:1014A000D0BAD0B020D0BFD0BED0BAD0B0D0B7D094
:1014B000B0D0BDD0B8D18F20D0B4D0B0D182D18738
:1014C000D0B8D0BAD0B000090909092E2E2ED09F6D
:1014D000D0BED0BAD0B0D0B7D0B0D0BDD0B8D0B5D3
:1014E00020D0B4D0B0D182D187D0B8D0BAD0B0207B
:1014F000D0BDD0B520D0B8D0B7D0BCD0B5D0BDD03D
:10150000B8D0BBD0BED181D18C00090909092E2EDB
:101510002E4D616E6167656D656E74206F66206328
:1015200068616E6E656C2069732073746F7070658E
:10153000642E20546865726520617265206E6F208C
:1015400064617461206F66207468652073656E73D2
:101550006F72005468652076616C7565206F662037
:101560006368616E6E656C2000206973206869672E
:10157000686572207468616E206D6178696D756D43
:10158000005468652076616C7565206F662063681D
:10159000616E6E656C2000206973206C6F776572D8
:1015A000207468616E206D696E696D756D00090942
:1015B0000909092E2E2E4D616E6167656D656E7489
:1015C000206F66206368616E6E656C20697320739E
:1015D000746F707065642E204D6F64756C65732038
:1015E0006973206E6F7420666F756E640029004DFC
:1015F000696E56616C75654368616E6E656C202816
:101600000029203E2000090909092E2E2E5265616D
:101610006C56616C756520280029004D696E566115
:101620006C75654368616E6E656C20280029203CEE
:10163000200009090909092E2E2E5265616C566198
:101640006C756520280029004D696E56616C7565C2
:101650004368616E6E656C20280029203C200009DB
:10166000090909092E2E2E5265616C56616C75654B
:1016700020280029004D696E56616C7565436861CC
:101680006E6E656C20280029203E2000090909099A
:10169000092E2E2E5265616C56616C7565202800EE
:1016A000290029203C204D696E56616C75654368A0
:1016B000616E6E656C20280009090909092E2E2E1D
:1016C00056616C7565202800290029203E204D6157
:1016D0007856616C75654368616E6E656C20280094
:1016E00009090909092E2E2E56616C7565202800FE
:1016F00009090909092E2E2E5468652076616C753A
:1017000065207374616E6473207374696C6C20005F
:1017100009090909092E2E2E5468652076616C7519
:101720006520676F65732075702000090909090934
:101730002E2E2E5468652076616C756520676F6566
:101740007320646F776E2000290029203C204D61B2
:101750007856616C75654368616E6E656C20280013
:1017600056616C756520280029203C200009090974
:1017700009092E2E2E4D696E56616C7565436861A0
:101780006E6E656C202800090909092E2E2E4D6108
:101790006E616765206368616E6E656C2D2D2D3EF0
:1017A00020000909090956616C75652073656E731F
:1017B0006F723A200009090909092E2E2E4D617811
:1017C00056616C75654368616E6E656C3A20000900
:1017D000090909092E2E2E4D696E56616C756543F7
:1017E00068616E6E656C3A200009090909426F75DF
:1017F0006E646172792076616C756573206F662006
:101800006368616E6E656C3A200009090909092E4A
:101810002E2E69736E27742070726573656E742046
:10182000746865206D6F64756C6520697320636FE3
:101830006E66696775726564000909090909090915
:101840002E2E2E4D616E6167656D656E74206F661C
:10185000206469676974616C20706F727420646FB2
:101860006573206E6F7420776F726B20696E2074C1
:101870006865206D6F646520696E2070726F706F8F
:101880007274696F6E206F66206D616E6167656D41
:10189000656E74003A204C4F57003A20484947483B
:1018A00000090909090909092E2E2E706F7274208A
:1018B000002E20497420697320726561647920616B
:1018C00073204469676974616C20706F72740009D9
:1018D00009090909092E2E2E457865637574697604
:1018E00065206D6F64756C653A20002E2049742068
:1018F0006973207265616479206173205365727623
:101900006F000909090909092E2E2E4578656375AE
:1019100074697665206D6F64756C653A20000909FD
:10192000090909092E2E2E54686520706F727420E3
:1019300069736E277420636F6E666967757265647C
:1019400020666F7220776F726B2077697468205001
:10195000574D002E204974206973207265616479A7
:101960002061732050574D000909090909092E2EDD
:101970002E457865637574697665206D6F64756C46
:10198000653A20002E2049742069732072656164D5
:10199000792061732053746570706572206D6F7467
:1019A0006F7220000909090909092E2E2E45786554
:1019B000637574697665206D6F64756C653A200097
:1019C0002654693D0026535F313D0026535F323D6A
:1019D0000026535F333D0026535F343D0026535F9E
:1019E000353D0026535F363D0026535F373D0026C8
:1019F000535F383D0026535F393D0026535F313039
:101A00003D0026535F31313D0026535F31323D00AA
:101A100026535F31333D0026535F31343D0026535A
:101A20005F31353D0026535F31363D002656434336
:101A30003D002200D0A2D0B5D0BCD0BFD0B5D1805F
:101A4000D0B0D182D183D180D0B020D0BAD0BED096
:101A5000BDD182D180D0BED0BBD0BBD0B5D180D0DB
:101A6000B03A2000D09DD0B0D0BFD180D18FD0B6B9
:101A7000D0B5D0BDD0B8D0B520D0BFD0B8D182D0ED
:101A8000B0D0BDD0B8D18F3A20003D3D3D3D3D3D69
:101A90003D3D3D3D3D3D3D3D3D3D3D3D3D3D3D3D76
:101AA0003D3D3D3D3D3D3D3D3D3D3D3D3D3D3D3D66
:101AB0003D3D3D3D3D3D3D3D3D003D3D3D3D3D20B0
:101AC000D098D0B7D0BCD0B5D180D0B5D0BDD0BD26
:101AD000D18BD0B520D0BFD0BED0BAD0B0D0B7D087
:101AE000B0D0BDD0B8D18F20D0B2D181D0B5D18502
:101AF00020D0B4D0B0D182D187D0B8D0BAD0BED0A7
:101B0000B2203D3D3D3D3D3D003D3D3D3D3D3D3DEA
:101B10003D3D3D3D3D3D3D3D3D3D3D3D3D3D3D3DF5
:101B20003D3D3D3D3D3D3D3D3D3D3D3D3D3D3D3DE5
:101B30003D3D3D3D3D3D3D3D003D3D3D3D3D3D3D12
:101B40003D3D3D3D3D3D3D3D3D3D3D3D3D3D3D3DC5
:101B50003D3D3D3D3D3D3D3D3D3D3D3D3D3D3D3DB5
:101B60003D3D3D3D3D3D3D3D00203D3D3D20D09E28
:101B7000D0BFD180D0BED18120D0B4D0B0D182D15D
:101B800087D0B8D0BAD0BED0B2203D3D3D3D3D3D1E
:101B90003D3D3D003D3D3D3D3D3D3D3D3D20003D0C
:101BA0003D3D3D3D3D3D3D3D3D3D3D3D3D3D3D3D65
:101BB0003D3D3D3D3D3D3D3D3D3D3D3D3D3D3D3D55
:101BC0003D3D3D3D3D3D3D3D3D3D3D3D3D3D0000BF
:101BD0004F4B0009D092D0BED181D181D182D0B0FB
:101BE000D0BDD0BED0B2D0BBD0B5D0BDD0B8D0B5AE
:101BF00020D0B7D0BDD0B0D187D0B5D0BDD0B8D06F
:101C0000B920D180D0B0D0B1D0BED187D0B8D185E5
:101C100020D0BFD0B5D180D0B5D0BCD0B5D0BDD04C
:101C2000BDD18BD1852E2E2E00D0A1D0BED185D195
:101C300080D0B0D0BDD0B5D0BDD0B8D0B520D0B751
:101C4000D0BDD0B0D187D0B5D0BDD0B8D0B920D11B
:101C500080D0B0D0B1D0BED187D0B8D18520D0BF90
:101C6000D0B5D180D0B5D0BCD0B5D0BDD0BDD18B92
:101C7000D18520D0B4D0BBD18F20D0BFD0B5D180FA
:101C8000D0B5D0B7D0B0D0B3D180D183D0B7D0BA8F
:101C9000D0B82E2E2E00D0A0D0B5D0B6D0B8D0BCA3
:101CA00020D0BAD0BED0BDD184D0B8D0B3D183D1EA
:101CB00080D0B8D180D0BED0B2D0B0D0BDD0B8D155
:101CC0008F20D0B2D18BD0BAD0BBD18ED187D0B536
:101CD000D0BD00D09AD0BED0BDD182D180D0BED0F0
:101CE000BBD0BBD0B5D18020D0B220D180D0B5D070
:101CF000B6D0B8D0BCD0B520D0BAD0BED0BDD1847B
:101D0000D0B8D0B3D183D180D0B8D180D0BED0B23A
:101D1000D0B0D0BDD0B8D18F00312000702000D01D
:101D2000A0D0B5D0B6D0B8D0BC20D0BAD0BED0BD2F
:101D3000D184D0B8D0B3D183D180D0B8D180D0BE37
:101D4000D0B2D0B0D0BDD0B8D18F20D0B2D18BD04E
:101D5000BAD0BBD18ED187D0B5D0BD00D092D0BA89
:101D6000D0BBD18ED187D0B5D0BD20D180D0B5D059
:101D7000B6D0B8D0BC20D0BAD0BED0BDD184D0B8F7
:101D8000D0B3D183D180D0B8D180D0BED0B2D0B0C2
:101D9000D0BDD0B8D18F007720004552520020002E
:101DA0002000200020002000200020003000200023
:101DB0002000200020002000200020002000200023
:101DC0002000200020002000200020006320302080
:101DD000003D3D3D3D3D3D3D3D3D3D3D3D3D3D3D70
:101DE0003D3D3D3D3D3D3D3D3D3D3D3D3D3D3D3D23
:101DF0003D3D3D3D3D3D3D3D3D0020D181D0B5D0F7
:101E0000BA0009D0A6D0B8D0BAD0BBD0B8D187D04C
:101E1000B5D181D0BAD0B0D18F20D0B7D0B0D0BF9B
:101E2000D0B8D181D18C20D0BDD0B020534420D0A7
:101E3000BFD0BED0BAD0B0D0B7D0B0D0BDD0B8D05F
:101E4000B920D0B4D0B0D182D187D0B8D0BAD0BE6A
:101E5000D0B23A200020D181D0B5D0BA0009D09EAE
:101E6000D0BFD180D0BED18120D0B4D0B0D182D16A
:101E700087D0B8D0BAD0BED0B23A200020D181D01D
:101E8000B5D0BA0009D092D18BD0BAD0BBD18ED107
:101E900087D0B5D0BDD0B8D0B520D0BFD0BED0B4DB
:101EA000D181D0B2D0B5D182D0BAD0B820D18DD026
:101EB000BAD180D0B0D0BDD0B03A2000D098D0BD3B
:101EC000D182D0B5D180D0B2D0B0D0BBD18B20D010
:101ED000B7D0B0D0BFD183D181D0BAD0B020D18417
:101EE0002DD186D0B8D0B93A00D092D18BD0BAD00B
:101EF000BBD18ED187D0B5D0BD00D092D0BAD0BBE7
:101F0000D18ED187D0B5D0BD0009475052533A2069
:101F100000D181D0B5D0BA0009D092D180D0B5D04F
:101F2000BCD18F20D0BFD0B5D180D0B5D0B7D0B084
:101F3000D0B3D180D183D0B7D0BAD0B820D0BCD064
:101F4000BED0B4D183D0BBD18F3A2000D181D0B5DF
:101F5000D0BA0009D09CD0B0D0BAD181D0B8D0BC12
:101F6000D0B0D0BBD18CD0BDD0BED0B520D0B2D1F6
:101F700080D0B5D0BCD18F20D0BED0B6D0B8D0B430
:101F8000D0B0D0BDD0B8D18F20D0BED182D0B2D009
:101F9000B5D182D0B03A2000D181D0B5D0BA0009F5
:101FA000D098D0BDD182D0B5D180D0B2D0B0D0BB86
:101FB00020D0BFD180D0BED0B2D0B5D180D0BAD0E1
:101FC000B820D180D0B5D0B3D0B8D181D182D18062
:101FD000D0B0D186D0B8D0B83A2000D092D0BAD004
:101FE000BBD18ED187D0B5D0BD00D092D18BD0BA25
:101FF000D0BBD18ED187D0B5D0BD0047534D20D0B6
:10200000BCD0BED0B4D183D0BBD18C3A200063D039
:10201000B5D0BA0009D0A2D0B0D0B9D0BCD0B0D120
:1020200083D18220D0B2D18BD0BAD0BBD18ED18710
:10203000D0B5D0BDD0B8D18F3A2000D092D0BAD090
:10204000BBD18ED187D0B0D182D18C20D0BFD0BEB1
:1020500020D182D180D0B5D0B1D0BED0B2D0B0D056
:10206000BDD0B8D18E00D092D181D0B5D0B3D0B48C
:10207000D0B020D0B2D0BAD0BBD18ED187D0B5D01D
:10208000BD00426C7565746F6F746820D0BCD0BEA3
:10209000D0B4D183D0BBD18C3A2000D097D0B0D06F
:1020A000BFD180D0B5D189D0B5D0BDD0B000D0A03F
:1020B000D0B0D0B7D180D0B5D188D0B5D0BDD0B058
:1020C00000D097D0B0D0BFD0B8D181D18C20D0BDB6
:1020D000D0B020534420D0BAD0B0D180D182D183A7
:1020E0003A2000D09BD0BED0B3D0B8D180D0BED0E3
:1020F000B2D0B0D0BDD0B8D0B520D0B220D182D02F
:10210000B5D180D0BCD0B8D0BDD0B0D0BB3A2000C3
:1021100009D0A2D0B5D0BAD181D18220D0A1D09C93
:10212000D0A13A2000D094D0B000D09DD0B5D182BB
:1021300000D09ED182D0BFD180D0B0D0B2D0BAD0A2
:10214000B020D0A1D09CD0A120D0BE20D181D182FE
:10215000D0B0D180D182D0B520D0BAD0BED0BDD140
:1021600082D180D0BED0BBD0BBD0B5D180D0B03A68
:10217000200009D09FD0BED0BFD180D0B0D0B2D087
:10218000BED187D0BDD18BD0B920D0BAD0BED18D31
:10219000D184D184D0B8D186D0B8D0B5D0BDD182C9
:1021A00020D0B4D0BBD18F20D0B8D0B7D0BCD0B560
:1021B000D180D0B5D0BDD0B8D18F3A200009D0920F
:1021C000D185D0BED0B4D0BDD0BED0B520D0BDD08A
:1021D000B0D0BFD180D18FD0B6D0B5D0BDD0B8D01F
:1021E000B53A20002028D097D0B0D0BFD0B8D18148
:1021F000D18C20D0BDD0B020534420D0BAD0B0D1A3
:1022000080D182D18320D0BED182D0BAD0BBD18E32
:10221000D187D0B5D0BDD0B02900D09FD0B8D18162
:10222000D0B0D182D18C20D0BDD0B020534420D0AA
:10223000BAD0B0D180D182D18300202847534D201D
:10224000D0BCD0BED0B4D183D0BBD18C20D0BED135
:1022500082D0BAD0BBD18ED187D0B5D0BD2900D025
:102260009ED182D0BFD180D0B0D0B2D0BBD18FD1DF
:1022700082D18C20D0A1D09CD0A100D09DD0B520FF
:10228000D180D0B5D0B0D0B3D0B8D180D0BED0B28C
:10229000D0B0D182D18C0009D0A0D0B5D0B0D0BA06
:1022A000D186D0B8D18F20D0BDD0B020D181D0BDC3
:1022B000D0B8D0B6D0B5D0BDD0B8D0B520564343F5
:1022C0003A200009D09CD0B8D0BDD0B8D0BCD0B096
:1022D000D0BBD18CD0BDD0BED0B5205643433A2020
:1022E00000D094D0B000D09DD0B5D18200D0A3D082
:1022F000BFD180D0B0D0B2D0BBD0B5D0BDD0B8D0D7
:10230000B520D0BDD0B0D0BFD180D18FD0B6D0B5A0
:10231000D0BDD0B8D0B5D0BC20D0BFD0B8D182D03D
:10232000B0D0BDD0B8D18F3A2000D09DD0B0D0B7BA
:10233000D0B2D0B0D0BDD0B8D0B520D0BAD0BED0F9
:10234000BDD182D180D0BED0BBD0BBD0B5D180D0E2
:10235000B03A20003D3D3D3D3D3D3D20D09AD0BEB0
:10236000D0BDD184D0B8D0B3D183D180D0B0D18604
:10237000D0B8D18F20D0BAD0BED0BDD182D180D03C
:10238000BED0BBD0BBD0B5D180D0B0203D3D3D3D0F
:102390003D3D3D00D09AD0BED0BDD184D0B8D0B3A1
:1023A000D183D180D0B0D186D0B8D18F20D0BED04B
:1023B000B1D0BDD0BED0B2D0BBD0B5D0BDD0B000B2
:1023C0006D20006D20002720697320757064617492
:1023D00065640053657474696E6773206F6620745A
:1023E0006865206D6F64756C6520270020002000F3
:1023F00020002000200020002000200020002000DD
:1024000020002000200020002000200030002000BC
:102410003D3D3D3D3D3D3D3D3D3D3D3D3D3D3D3DEC
:102420003D3D3D3D3D3D3D3D3D3D3D3D3D3D3D3DDC
:102430003D3D3D0053776974636820636F756E742A
:102440006572005570207377697463680054797001
:1024500065205550207377697463683A20000053F3
:10246000776974636820555020706F72743A200049
:102470000053776974636820444F574E20706F7221
:10248000743A200042696E64206368616E6E656C08
:102490003A20005468652074797065206F66207456
:1024A0006865206D6F64756C652069736E27742094
:1024B000636F6E666967757265640000436F6E7462
:1024C000726F6C20706F72743A200044696769748F
:1024D000616C20706F7274004D6178496D703A20A4
:1024E000004D696E496D703A20004D616E75616CEA
:1024F000004175746F6D61746963004D6F64652090
:10250000636F6E6669677572653A20004D61782069
:10251000616E676C65206F66207475726E3A20007C
:1025200074686520706F72742069736E27742063FD
:102530006F6E666967757265640000436F6E7472D2
:102540006F6C20706F72743A2000536572766F2042
:102550006D6F746F7200323535004D6178206C6993
:10256000667420726F746174696F6E3A20007468CB
:102570006520706F72742069736E277420636F6EAC
:10258000666967757265640000D0A3D0BFD180D042
:10259000B0D0B2D0BBD18FD18ED189D0B8D0B92034
:1025A000D0BFD0BED180D18200D0A8D098D09C001E
:1025B000D188D0B0D0B3D0B000312F00D094D0B5F6
:1025C000D0BBD0B8D182D0B5D0BBD18C20D188D0EF
:1025D000B0D0B3D0B020D0B4D180D0B0D0B9D0B2C8
:1025E000D0B5D180D0B03A2000D188D0B0D0B3D00F
:1025F000BED0B22FD181D0BC00D09AD0BED0BB2DDE
:10260000D0B2D0BE20D0BED0B1D0BED180D0BED14D
:1026100082D0BED0B220D0BDD0B02031D181D0BCCC
:1026200020D0BFD0BED0B4D18AD0B5D0BCD0B03AC3
:102630002000D188D0B0D0B3D0BED0B22FD181D0BD
:10264000B5D0BAD183D0BDD0B4D1835E3200D09C96
:10265000D0B0D0BAD181D0B8D0BCD0B0D0BBD18CA2
:10266000D0BDD0BED0B520D183D181D0BAD0BED11B
:1026700080D0B5D0BDD0B8D0B53A2000D188D0B088
:10268000D0B3D0BED0B22FD181D0B5D0BAD183D003
:10269000BDD0B4D18300D09CD0B0D0BAD181D0B855
:1026A000D0BCD0B0D0BBD18CD0BDD0B0D18F20D1D8
:1026B00081D0BAD0BED180D0BED181D182D18C3A66
:1026C0002000D181D0BC00D09CD0B0D0BAD181D074
:1026D000B8D0BCD0B0D0BBD18CD0BDD0B0D18F20C1
:1026E000D0B2D18BD181D0BED182D0B020D0BED1DA
:1026F00082D0BAD180D18BD182D0B8D18F3A20008C
:10270000D0A0D183D187D0BDD0BED0B900D090D0D9
:10271000B2D182D0BED0BCD0B0D182D0B8D187D017
:10272000B5D181D0BAD0B8D0B900D0A0D0B5D0B68C
:10273000D0B8D0BC20D180D0B0D0B1D0BED182D161
:102740008B3A200000D09FD0BED180D18220D1838F
:10275000D0BFD180D0B0D0B2D0BBD0B5D0BDD0B872
:10276000D18F3A2000D0A8D0B0D0B3D0BED0B2D153
:102770008BD0B920D0BCD0BED182D0BED18000D009
:10278000A2D0B8D0BF20D0BCD0BED0B4D183D0BBF3
:10279000D18F3A2000D09ED188D0B8D0B1D0BAD055
:1027A000B000D092D0BAD0BBD18ED187D0B5D0BD39
:1027B00000D092D18BD0BAD0BBD18ED187D0B5D03A
:1027C000BD00D0A1D0BED181D182D0BED18FD0BD2D
:1027D000D0B8D0B520D0BCD0BED0B4D183D0BBD17E
:1027E0008F3A200027203D3D3D3D3D3D3D003D3D94
:1027F0003D3D3D3D3D20436F6E6669677572617476
:10280000696F6E206D6F64756C6520270020002055
:1028100000200020002000200020002E002E00209C
:10282000003A003A0053756E646179005361747523
:1028300072646179004672696461790054687572E6
:1028400073646179005765646E65736461790054DF
:10285000756573646179004D6F6E64617900200065
:102860002E002E0020003A003A00436F6E66696722
:1028700075726174696F6E204461746520616E6465
:102880002054696D653A2020200020007420004506
:102890005252004F4B00D092D18BD0BAD0BBD18EC8
:1028A000D187D0B5D0BDD0B8D0B520D0BDD0B0D1B3
:1028B00087D0B0D0BBD18CD0BDD0BED0B3D0BE20DD
:1028C000D0B2D0BED0B7D0B2D180D0B0D182D0B04B
:1028D00020D0B8D181D0BF2E20D0BCD0BED0B4D1B2
:1028E00083D0BBD0B5D0B920D0B220D0BDD183D059
:1028F000BBD0B82E2E2E0041542B4346554E3F00E0
:1029000041542B434F504E0041542B43424300410E
:10291000542B4753560041542B47534E0041542BE0
:102920004343414C523F0041542B43474D004154D7
:102930002B435041530041542B434F50533F0041D0
:10294000542B435245473F0041542B4353510041C0
:102950005449004154003A003A0020D0B4D0BDD0D0
:10296000B5D0B920D0B82000557074696D653A2093
:10297000002000200020003D3D3D3D3D20D09FD067
:10298000B5D180D0B5D0B7D0B0D0B3D180D183D0BD
:10299000B7D0BAD0B0203D3D3D3D3D0044617461AB
:1029A000206973206572726F7200D0A3D180D0BE8F
:1029B000D0B2D0B5D0BDD18C20D0BBD0BED0B3D09A
:1029C000B8D180D0BED0B2D0B0D0BDD0B8D18F20D9
:1029D000D0B220554152543A2000D092D181D0B586
:1029E0000047534D20D0BCD0BED0B4D183D0BBD192
:1029F0008C00D098D181D0BFD0BED0BBD0BDD0B8D4
:102A0000D182D0B5D0BBD18CD0BDD18BD0B520D0A8
:102A1000BCD0BED0B4D183D0BBD0B800D093D180CD
:102A2000D183D0BFD0BFD18B20D183D0BFD180D0B4
:102A3000B0D0B2D0BBD0B5D0BDD0B8D18F00D0947B
:102A4000D0B0D182D187D0B8D0BAD0B800D092D18E
:102A50008BD0BAD0BBD18ED187D0B5D0BDD0BE007F
:102A600044617461206368616E6E656C20696E20DC
:102A7000454550524F4D20697320757064617465EF
:102A800064003D3D3D3D3D3D3D3D3D3D3D3D3D3D8C
:102A90003D3D3D3D3D3D3D3D3D3D3D3D3D3D3D3D66
:102AA0003D3D3D3D3D3D3D3D3D00002000457865BF
:102AB00063206D6F64756C653A20004578746572AB
:102AC0006E616C206D6F64653A2049742069736E85
:102AD000277420636F6E6669677572656400546958
:102AE0006D65725F64656C7461003A0054696D6570
:102AF0002073746172743A20003A0054696D652045
:102B000073746F703A20003A0054696D65207374D5
:102B10006172743A200000455F4D696E56616C75B4
:102B2000654368616E6E656C3A20004D696E566152
:102B30006C75654368616E6E656C3A20004D617816
:102B400056616C75654368616E6E656C3A20004D28
:102B5000696E56616C75654368616E6E656C3A208E
:102B6000000000202056616C75653A200053656EA8
:102B7000736F723A200049742069736E2774206362
:102B80006F6E66696775726564002835292054691F
:102B90006D6572206D6F64652E20506172616D6588
:102BA0007465722035002834292054696D657220BF
:102BB0006D6F64652E20506172616D657465722061
:102BC000340028332920546865726D6F7374617402
:102BD000206D6F64652E204D616E6167656D656E59
:102BE000742061742076616C7565206F662074684E
:102BF000652073656E736F72206973206C657373E3
:102C0000207468616E20455F4D696E56616C756514
:102C10004368616E6E656C002832292054686572C5
:102C20006D6F73746174206D6F64652E204D616EDD
:102C30006167656D656E7420617420657863657386
:102C400073206F6620455F4D696E56616C756543F4
:102C500068616E6E656C2076616C7565002831293F
:102C600020546865726D6F73746174206D6F646554
:102C70002E2050726F706F7274696F6E616C206D70
:102C8000616E6167656D656E7400436F6E74726F1F
:102C90006C6C5F4368616E6E656C3A20006F6666AF
:102CA000006F6E005374617475733A200027203DE5
:102CB0003D3D3D3D3D3D3D3D3D3D003D3D3D3D3D81
:102CC0003D3D3D3D3D3D20436F6E66696720636835
:102CD000616E6E656C20270020002000200020001F
:102CE00020002000200020002000200030002000D4
:102CF0006720007320007320004572726F7273208A
:102D0000697320636C65616E696E67212121002003
:102D1000697320636F6E6669677572696E67206993
:102D20006E20454550524F4D20202020202020204D
:102D300020200053656E736F722000200020002059
:102D40000020002000200020002000200020002083
:102D50000020002000200020002000200020002073
:102D60000020002000200020002000200030002053
:102D7000003D3D3D3D3D3D3D3D3D3D3D3D3D3D3DC0
:102D80003D3D3D3D3D3D3D3D3D3D3D3D3D3D3D3D73
:102D90003D3D3D3D3D3D3D3D00D09DD0B8D187D02E
:102DA000B5D0B3D0BE00D093D180D183D0BFD0BF37
:102DB000D0B0203500D093D180D183D0BFD0BFD048
:102DC000B0203400D093D180D183D0BFD0BFD0B059
:102DD000203300D093D180D183D0BFD0BFD0B020DA
:102DE0003200D093D180D183D0BFD0BFD0B02031BA
:102DF0000009094C454420D0BFD0B0D0BDD0B5D0DB
:102E0000BBD18C3A2000D09ED182D0BAD0BBD18E1B
:102E1000D187D0B5D0BDD0B020D0B3D0BBD0BED03C
:102E2000B1D0B0D0BBD18CD0BDD0BE21212100D03B
:102E300092D0BAD0BBD18ED187D0B5D0BDD0B000A2
:102E4000D092D18BD0BAD0BBD18ED187D0B5D0BDE6
:102E5000D0B0000909D097D0B0D0BFD0B8D181D1BF
:102E60008C20D0BDD0B020534420D0BAD0B0D18077
:102E7000D182D1833A2000D09DD0B8D187D0B5D0AF
:102E8000B3D0BE00D09ED182D0BFD180D0B0D0B25E
:102E9000D0B8D182D18C20D0BFD0BE204750525361
:102EA00000D09ED182D0BFD180D0B0D0B2D0B8D126
:102EB00082D18C20D0A1D09CD0A1000909D092D081
:102EC000BDD0B5D188D0BDD0B8D0B53A2000D0A003
:102ED000D0B5D0B0D0BAD186D0B8D18F20D0BDD0A7
:102EE000B020D0BED188D0B8D0B1D0BAD0B83A20B6
:102EF00000D09AD0BED0BBD0B8D187D0B5D181D1C7
:102F000082D0B2D0BE20D0BED188D0B8D0B1D0BE91
:102F1000D187D0BDD18BD18520D0B8D0B7D0BCD08F
:102F2000B5D180D0B5D0BDD0B8D0B920D0B4D0BE46
:102F300020D180D0B5D0B0D0BAD186D0B8D0B83AF0
:102F40002000D09AD0BED0BBD0B8D187D0B5D18127
:102F5000D182D0B2D0BE20D0BED188D0B8D0B1D02E
:102F6000BED0BA20D0B8D0B7D0BCD0B5D180D0B503
:102F7000D0BDD0B8D18F20D0BFD0BED0BAD0B0D0C5
:102F8000B7D0B0D0BDD0B8D0B93A2000D09AD0BE1A
:102F9000D0BBD0B8D187D0B5D181D182D0B2D0BE8C
:102FA00020D0B8D0B7D0BCD0B5D180D0B5D0BDD0AE
:102FB000B8D0B920D0B4D0BE20D184D0B8D0BAD146
:102FC00081D0B0D186D0B8D0B820D0BFD0BED0BAD2
:102FD000D0B0D0B7D0B0D0BDD0B8D0B93A2000D0A2
:102FE0009DD0B520D0BDD0B0D181D182D180D0BE0E
:102FF000D0B5D0BDD0BE202864656661756C743ACA
:103000002031336D7329003430326D73003130312B
:103010006D730031336D7300D092D180D0B5D0BCC8
:10302000D18F20D0BAD0BED0BDD0B2D0B5D180D152
:1030300082D0B0D186D0B8D0B83A2000D09DD0B5DB
:1030400020D0BDD0B0D181D182D180D0BED0B5D07A
:10305000BDD0BE202864656661756C743A20D0B01E
:10306000D0B2D182D0BE20D183D181D0B8D0BBD054
:10307000B5D0BDD0B8D0B529003178003136780050
:10308000D092D0B5D0BBD0B8D187D0B8D0BDD0B059
:1030900020D183D181D0B8D0BBD0B5D0BDD0B8D1EC
:1030A0008F3A2000D09DD0B520D0BDD0B0D181D1F5
:1030B00082D180D0BED0B5D0BDD0BE202864656698
:1030C00061756C743A20D09BD18ED0BCD0B5D0BD88
:1030D000D18B2900D09BD18ED0BAD181D18B00D099
:1030E0009BD18ED0BCD0B5D0BDD18B00D095D0B403
:1030F000D0B8D0BDD0B8D186D18B20D0B8D0B7D081
:10310000BCD0B5D180D0B5D0BDD0B8D18F3A2000D9
:10311000495220D181D0BFD0B5D0BAD182D1800060
:10312000D09FD0BED0BBD0BDD18BD0B920D181D063
:10313000BFD0B5D0BAD182D18000D092D0B8D0B4AF
:10314000D0B8D0BCD18BD0B920D181D0BFD0B5D030
:10315000BAD182D18000D0A1D0BFD0B5D0BAD182AF
:10316000D18020D0B8D0B7D0BCD0B5D180D0B5D028
:10317000BDD0B8D0B93A2000D097D0BDD0B0D1875B
:10318000D0B5D0BDD0B8D0B520D090D0A6D09F209B
:10319000D0B4D0BBD18F20313030253A2000D09729
:1031A000D0BDD0B0D187D0B5D0BDD0B8D0B520D0AB
:1031B00090D0A6D09F20D0B4D0BBD18F2030253A5C
:1031C0002000D097D0BDD0B0D187D0B5D0BDD0B879
:1031D000D0B520D090D0A6D09F00D09FD180D0BEB7
:1031E000D186D0B5D0BDD182D18B00D095D0B4D00E
:1031F000B8D0BDD0B8D186D18B20D0B8D0B7D0BC94
:10320000D0B5D180D0B5D0BDD0B8D18F3A2000D0C4
:10321000B1D0B8D18200D0A0D0B0D0B7D180D0B5D5
:10322000D188D0B5D0BDD0B8D0B520D0B4D0B0D131
:1032300082D187D0B8D0BAD0B03A2000D092D18B0A
:10324000D0BAD0BBD18ED187D0B5D0BDD0BE006DA5
:10325000730009D097D0B0D0B4D0B5D180D0B6D05B
:10326000BAD0B020D0BFD0BED181D0BBD0B520D095
:10327000B2D0BAD0BBD18ED187D0B5D0BDD0B8D165
:103280008F20D0BFD0BED180D182D0B03A2000D024
:103290009FD0BED180D18220D0BDD0B520D181D0E9
:1032A000BAD0BED0BDD184D0B8D0B3D183D180D074
:1032B000B8D180D0BED0B2D0B0D0BD21212100097C
:1032C000D09FD0BED180D18220D183D0BFD180D039
:1032D000B0D0B2D0BBD0B5D0BDD0B8D18F3A2000DD
:1032E000D092D0BAD0BBD18ED187D0B5D0BDD0BE10
:1032F00000D098D181D0BFD0BED0BBD18CD0B7D0B8
:10330000BED0B2D0B0D0BDD0B8D0B520D0BFD0BE26
:10331000D180D182D0B020D183D0BFD180D0B0D0E5
:10332000B2D0BBD0B5D0BDD0B8D18F3A2000D090AC
:10333000D0B2D182D0BED0BCD0B0D182D0B8D187EB
:10334000D0B5D181D0BAD0B8D0B900D181D0B5D064
:10335000BA0009D098D0BDD182D0B5D180D0B2D03A
:10336000B0D0BB20D0B8D0B7D0BCD0B5D180D0B50C
:10337000D0BDD0B8D18F3A2000D0A0D183D187D092
:10338000BDD0BED0B900D098D0BDD182D0B5D1804B
:10339000D0B2D0B0D0BB20D0B8D0B7D0BCD0B5D18F
:1033A00080D0B5D0BDD0B8D18F20D0BFD0BED0BADC
:1033B000D0B0D0B7D0B0D0BDD0B8D0B93A2000206E
:1033C00000D09ED188D0B8D0B1D0BAD0B820D0BF6C
:1033D000D0BED0BAD0B0D0B7D0B0D0BDD0B8D0B9B0
:1033E0003A200009003A200020D097D0BDD0B0D1BB
:1033F00087D0B5D0BDD0B8D0B55F00D09FD180D038
:10340000B8D0B2D18FD0B7D0BAD0B020D0BA20D0F7
:10341000B3D180D183D0BFD0BFD0B53A2000D098EF
:10342000D0BCD18F3A2000D092D18BD0BAD0BBD1B2
:103430008ED187D0B5D0BD00D092D0BAD0BBD18EBE
:10344000D187D0B5D0BD00D0A1D182D0B0D182D1AA
:1034500083D1813A200027203D3D3D3D3D3D3D3D0E
:103460003D3D003D3D3D3D3D3D3D3D3D3D20D09AF6
:10347000D0BED0BDD184D0B8D0B3D183D180D0B0AC
:10348000D186D0B8D18F20D0B4D0B0D182D187D05E
:10349000B8D0BAD0B0202700D09DD0B0D0BFD18056
:1034A000D18FD0B6D0B5D0BDD0B8D0B520D0B8204F
:1034B000D182D0BED0BA00D0A2D0B5D0BCD0BFD0BF
:1034C000B5D180D0B0D182D183D180D0B02C20D0E2
:1034D000B2D0BBD0B0D0B6D0BDD0BED181D182D118
:1034E0008C20D0B2D0BED0B7D0B4D183D185D0B2E9
:1034F00020D0B820D0B0D182D0BC2E20D0B4D0B053
:10350000D0B2D0BBD0B5D0BDD0B8D0B500D090D15E
:1035100082D0BC2E20D0B4D0B0D0B2D0BBD0B5D0E9
:10352000BDD0B8D0B520D0B820D0B2D0BBD0B0D0AC
:10353000B6D0BDD0BED181D182D18C20D0B2D0BE88
:10354000D0B7D0B4D183D185D0B000D0A2D0B5D07F
:10355000BCD0BFD0B5D180D0B0D182D183D180D002
:10356000B020D0B820D0B0D182D0BC2E20D0B4D0E2
:10357000B0D0B2D0BBD0B5D0BDD0B8D0B500D0A2FD
:10358000D0B5D0BCD0BFD0B5D180D0B0D182D1839E
:10359000D180D0B020D0B820D0B2D0BBD0B0D0B67F
:1035A000D0BDD0BED181D182D18C20D0B2D0BED0FE
:1035B000B7D0B4D183D185D0B000D090D0BDD0B039
:1035C000D0BBD0BED0B3D0BED0B2D0BE20D0B8D049
:1035D000B7D0BCD0B5D180D0B5D0BDD0B8D18F00D8
:1035E000D090D0BDD0B0D0BBD0BED0B3D0BED0B2C2
:1035F000D18BD0B520D0B8D0B7D0BCD0B5D180D089
:10360000B5D0BDD0B8D18F00D0A2D0BED0BAD0B086
:1036100000D0A2D0BED0BA00D09DD0B0D0BFD18053
:10362000D18FD0B6D0B5D0BDD0B8D18F00D09DD07D
:10363000B0D0BFD180D18FD0B6D0B5D0BDD0B8D0AA
:10364000B500D090D182D0BCD0BED181D184D0B5CC
:10365000D180D0BDD0BED0B3D0BE20D0B4D0B0D0F9
:10366000B2D0BBD0B5D0BDD0B8D18F00D090D18270
:10367000D0BCD0BED181D184D0B5D180D0BDD0BE98
:10368000D0B520D0B4D0B0D0B2D0BBD0B5D0BDD0A2
:10369000B8D0B500D09ED181D0B2D0B5D189D0B547
:1036A000D0BDD0B8D18F00D09ED181D0B2D0B5D10D
:1036B00089D0B5D0BDD0B8D0B500D0B2D0BBD0B0D5
:1036C000D0B6D0BDD0BED181D182D0B820D0BFD0AD
:1036D000BED187D0B2D18B00D092D0BBD0B0D0B603
:1036E000D0BDD0BED181D182D18C20D0BFD0BED1AF
:1036F00087D0B2D18B00D092D0BBD0B0D0B6D0BDE5
:10370000D0BED181D182D0B820D0B2D0BED0B7D077
:10371000B4D183D185D0B000D092D0BBD0B0D0B6D8
:10372000D0BDD0BED181D182D18C20D0B2D0BED07C
:10373000B7D0B4D183D185D0B000D0A2D0B5D0BCA1
:10374000D0BFD0B5D180D0B0D182D183D180D18B40
:1037500000D0A2D0B5D0BCD0BFD0B5D180D0B0D130
:1037600082D183D180D0B000D0A2D0B8D0BF20D039
:10377000B8D0B7D0BCD0B5D180D0B5D0BDD0B8D13D
:103780008F3A2000290020284445433A2000307811
:1037900000D090D0B4D180D0B5D1813A2000494E2C
:1037A0004133323231004C4D3735004D41583434BD
:1037B000303039004248313735300054534C3235BF
:1037C00036310000D09FD0BED180D1823A20004156
:1037D0006E616C6F672053656E736F7200494E4166
:1037E00032313900424D5032383000424D45323886
:1037F00030005369373032312C204854553231442F
:1038000000414D32333230003A00D090D0B4D180F4
:10381000D0B5D1813A20004453313842323000D003
:103820009DD0B0D0B8D0BCD0B5D0BDD0BED0B2D075
:10383000B0D0BDD0B8D0B53A2000094E6F20493283
:1038400043206465766963657320666F756E640AEC
:1038500000300009556E6B6E6F776E206572726F67
:103860007220617420616464726573732030780023
:10387000274C4344204F4C4544203132387836346D
:10388000270027424D503138302C20424D503238DD
:10389000302C20424D45323830206261726F6D65A8
:1038A00074726963207072657373757265207365D5
:1038B0006E736F72270027424D503138302C2042F2
:1038C0004D503238302C20424D4532383020626124
:1038D000726F6D657472696320707265737375724F
:1038E000652073656E736F722700274C4344204F29
:1038F0004C4544203132387836342700274453333E
:10390000323331207265616C2D74696D6520636C92
:103910006F636B27204F5220274D50552D3932357C
:10392000302700274144584C33343520496E707598
:103930007420332D41786973204469676974616C20
:1039400020416363656C65726F6D657465722700F5
:10395000274154323443333220454550524F4D278E
:1039600000274C4D3735270027414453313131353D
:10397000204D6F64756C652031362D4269742700C7
:103980002741445331313135204D6F64756C6520CA
:1039900031362D4269742700274144533131313586
:1039A000204D6F64756C652031362D426974272077
:1039B0004F5220275350492D746F2D554152542793
:1039C000002741445331313135204D6F64756C65AA
:1039D0002031362D42697427204F5220274C4D3715
:1039E00035270027424D503138302C20536937306D
:1039F00031332C205369373032302C205369373023
:103A000032312C204854553231442C205348543202
:103A10003127002754534C3235363120416D6269CD
:103A2000656E74204C696768742053656E736F729D
:103A30002700275043463835373420382D426974E3
:103A400020492F4F20457870616E64657227204FA2
:103A50005220274C434D31363032204C43442041D4
:103A600064617074657220270027504346383537EB
:103A70003420382D42697420492F4F2045787061D9
:103A80006E64657227002750434638353734203836
:103A90002D42697420492F4F20457870616E64650E
:103AA000722700275043463835373420382D426975
:103AB0007420492F4F20457870616E64657227002D
:103AC000275043463835373420382D426974204911
:103AD0002F4F20457870616E64657227204F522009
:103AE00027424831373530465649204C696768745B
:103AF0002053656E736F7227002750434638353761
:103B00003420382D42697420492F4F204578706148
:103B10006E646572270027504346383537342038A5
:103B20002D42697420492F4F20457870616E64657D
:103B3000722700275043463835373420382D4269E4
:103B40007420492F4F20457870616E64657227207C
:103B50004F5220274C434D31363032204C434420C5
:103B60004164617074657227200027546F75636823
:103B70002053656E736F7227002742483137353006
:103B8000465649206469676974616C204C696768AE
:103B9000742053656E736F7227204F522027546F25
:103BA0007563682053656E736F720027546F756379
:103BB000682053656E736F72270027546F756368B2
:103BC0002053656E736F722700274C434D3136309A
:103BD00032204C4344204164617074657227002791
:103BE000484D433538383320332D417869732044AC
:103BF00069676974616C20436F6D7061737327002E
:103C0000274144584C33343520496E707574203345
:103C10002D41786973204469676974616C20416340
:103C200063656C65726F6D657465722700274D6FF3
:103C3000746F72204472697665722700274D6F7425
:103C40006F72204472697665722700202D2000096A
:103C500009307800094932432073656E736F7273BF
:103C60003A200069736E277420636F6E666967750A
:103C7000726564002E2E2E646F6E65000909092E90
:103C80002E2E7475726E206F6E2074686520636FBF
:103C90006E74726F6C20706F72742E2E2E00090974
:103CA000092E2E2E7475726E206F666620746865FC
:103CB00020636F6E74726F6C20706F72742E2E2E74
:103CC000002E2E2E0020697320636F6E6E65637464
:103CD000656420746F2076616C7565200009092E7B
:103CE0002E2E746865206368616E6E656C20000915
:103CF000093D3D3D3D3D3D3D3D3D3D3D3D3D3D3D28
:103D00003D3D3D3D3D3D3D3D3D3D3D3D002E2E2E4D
:103D1000D09ED09A0009092E2E2ED0A1D0BED185DA
:103D2000D180D0B0D0BDD18FD0B5D0BC20D0BFD045
:103D3000BED0BBD183D187D0B5D0BDD0BDD18BD0C3
:103D4000B520D0B7D0BDD0B0D187D0B5D0BDD0B818
:103D5000D18F0009093D3D3D3D20D0BED188D0B86E
:103D6000D0B1D0BAD0B02C20D0BFD0BED0BAD0B055
:103D7000D0B7D0B0D0BDD0B8D18F20D0BDD0B52075
:103D8000D181D0BED185D180D0B0D0BDD18FD18EE0
:103D9000D182D181D18F203D3D3D0009092E2E2EAB
:103DA000D09DD0B0D0B8D0BCD0B5D0BDD0BED0B2F0
:103DB000D0B0D0BDD0B8D0B520D0B4D0B0D182D1A1
:103DC00087D0B8D0BAD0B03A200020D0B8D0B72031
:103DD000002E2E2ED098D0B7D0BCD0B5D180D0B583
:103DE000D0BDD0B8D0B520002000092E2E2ED09402
:103DF000D0B0D182D187D0B8D0BA2000494E41335B
:103E0000323231004C4D3735004D4158343430306A
:103E100039004248313735300054534C3235363151
:103E200000416E616C6F6720506F727400494E41A3
:103E300032313900424D5032383000424D4532382F
:103E4000300048545532314400414D323330320055
:103E500044533138423230000909092E2E2E74683D
:103E60006520706F727420646F6573206E6F7420AC
:103E7000737570706F727420616E616C6F67206D06
:103E80006561737572656D656E7473002E2E2E6498
:103E90006F6E65000909092E2E2E6D6561737572AE
:103EA000656D656E7420414E414C4F475F53350040
:103EB0002E2E2E646F6E65000909092E2E2E6D655B
:103EC00061737572656D656E7420414E414C4F474C
:103ED0005F5334002E2E2E646F6E65000909092E83
:103EE0002E2E6D6561737572656D656E7420414E21
:103EF000414C4F475F5333002E2E2E646F6E65008A
:103F00000909092E2E2E6D6561737572656D656EDA
:103F10007420414E414C4F475F5332002E2E2E6489
:103F20006F6E65000909092E2E2E6D65617375721D
:103F3000656D656E7420414E414C4F475F533100B3
:103F40003D3D3D3D3D3D3D3D3D3D3D3D3D3D3D3DA1
:103F50003D3D3D3D3D3D3D3D3D3D3D3D3D3D3D3D91
:103F60003D3D3D3D3D3D3D3D3D3D3D3D3D3D3D00BE
:103F70002000200020200020200020002020002001
:103F8000002D2D2D2D2D2D2D2D2D2D2D2D2D2D2D8E
:103F90002D2D2D2D2D2D2D2D2D2D2D2D2D2D2D2D51
:103FA0002D2D2D2D2D2D2D2D2D2D2D2D2D0020D0D8
:103FB0009DD0B0D0B7D0B2D0B0D0BDD0B8D0B520A1
:103FC000207C2020D098D0B7D0BCD0B5D180D0B53F
:103FD000D0BDD0BDD18BD0B520D0BFD0BED0BAD04F
:103FE000B0D0B7D0B0D0BDD0B8D18F20207C20D0F9
:103FF0009ED188D0B8D0B1D0BAD0B8002E2E2E64C1
:104000006F6E65000909092E2E2E6D65617375723C
:10401000656D656E742048756D6D002E2E2E646F73
:104020006E65000909092E2E2E6D65617375726526
:104030006D656E742054656D70002E2E2E646F6E4B
:1040400065000909092E2E2E6D6561737572656D07
:10405000656E742048756D6D002E2E2E646F6E6532
:10406000000909092E2E2E6D6561737572656D65E7
:104070006E742054656D70004572726F72207365A6
:104080007474696E67204D5452656720746F2068A0
:104090006967682076616C756520666F72206C6F49
:1040A00077206C6967687420656E7669726F6E6DD3
:1040B000656E740053657474696E67204D54526563
:1040C0006720746F20686967682076616C75652069
:1040D000666F72206C6F77206C6967687420656EFC
:1040E0007669726F6E6D656E74004572726F7220C4
:1040F00073657474696E67204D5452656720746FE0
:104100002064656661756C742076616C75652066E7
:104110006F72206E6F726D616C206C6967687420BD
:10412000656E7669726F6E6D656E7400536574743A
:10413000696E67204D5452656720746F2064656610
:1041400061756C742076616C756520666F72206E87
:104150006F726D616C206C6967687420656E76693A
:10416000726F6E6D656E74004572726F722073654A
:104170007474696E67204D5452656720746F206CAB
:104180006F772076616C756520666F72206869674D
:1041900068206C6967687420656E7669726F6E6DF1
:1041A000656E740053657474696E67204D54526572
:1041B0006720746F206C6F772076616C7565206660
:1041C0006F722068696768206C6967687420656E23
:1041D0007669726F6E6D656E74002E2E2E646F6E32
:1041E00065002E2E2EEEF8E8E1EAE020E8EBE8206C
:1041F000EFEEEAE0E7E0EDE8FF20ECE5EDFCF8E5C6
:1042000020EDF3EBFF000909092E2E2E6D65617379
:104210007572656D656E74204C69676874005F30F7
:10422000783563005F30783233002E2E2E646F6E47
:1042300065000909092E2E2E6D6561737572656D15
:10424000656E74205072657373002E2E2E646F6E2F
:1042500065000909092E2E2E6D6561737572656DF5
:10426000656E742048756D6D002E2E2E646F6E6520
:10427000000909092E2E2E6D6561737572656D65D5
:104280006E742054656D70002E2E2E646F6E650066
:104290000909092E2E2E6D6561737572656D656E47
:1042A00074205072657373002E2E2E646F6E65003D
:1042B0000909092E2E2E6D6561737572656D656E27
:1042C000742048756D6D002E2E2E646F6E6500098A
:1042D00009092E2E2E6D6561737572656D656E749C
:1042E0002048756D6D002E2E2E646F6E65000909D5
:1042F000092E2E2E6D6561737572656D656E742065
:1043000054656D70002E2E2E646F6E6500090909CC
:104310002E2E2E6D6561737572656D656E742050FD
:1043200072657373002E2E2E646F6E650009090985
:104330002E2E2E6D6561737572656D656E742048E5
:10434000756D6D002E2E2E646F6E65000909092EA5
:104350002E2E6D6561737572656D656E7420546582
:104360006D70002E2E2E646F6E65000909092E2EC9
:104370002E6D6561737572656D656E742050726522
:104380007373002E2E2E646F6E65000909092E2EA0
:104390002E6D6561737572656D656E742054656D03
:1043A00070002E2E2E646F6E65000909092E2E2EC8
:1043B0006D6561737572656D656E7420507265739D
:1043C00073002E2E2E646F6E65000909092E2E2EA5
:1043D0006D6561737572656D656E742054656D7081
:1043E000004572726F72206F662072656164696E3B
:1043F000672000206F6E2073656E736F72200070EF
:10440000726573737572650074656D706572617441
:10441000757265002000204352433D002020002E8D
:10442000000909543D0020000941646472657373FA
:104430002844454329203D2000200009416464723E
:104440006573732848455829203D2000094453319D
:10445000384232302073656E736F72733A002E2EBD
:104460002E646F6E650053656E736F722000206955
:1044700073206F6666000909092E2E2E6D65617323
:104480007572656D656E742054656D70002E2E2EEC
:104490006572726F72002E2E2E6572726F72002E10
:1044A0002E2E646F6E65000909092E2E2E6D656132
:1044B000737572656D656E742048756D6D002E2E76
:1044C0002E6572726F72002E2E2E646F6E6500095B
:1044D00009092E2E2E6D6561737572656D656E749A
:1044E0002054656D70002E2E2E6572726F72002E34
:1044F0002E2E646F6E65000909092E2E2E6D6561E2
:10450000737572656D656E742048756D6D002E2E25
:104510002E6572726F72002E2E2E646F6E65002EE5
:104520002E2E646F6E65000909092E2E2E6D6561B1
:10453000737572656D656E742054656D70002E2EF6
:104540002E646F6E65000909092E2E2E6D6561734C
:104550007572656D656E742043757272656E740058
:104560002E2E2E646F6E65000909092E2E2E6D65A4
:1045700061737572656D656E7420566F6C746167DA
:1045800065002E2E2E646F6E65000909092E2E2EF1
:104590006D6561737572656D656E742043757272B9
:1045A000656E74002E2E2E646F6E65000909092E4B
:1045B0002E2E6D6561737572656D656E7420566F14
:1045C0006C74616765002E2E2E646F6E650009099C
:1045D000092E2E2E6D6561737572656D656E742082
:1045E0004C69676874005F30783461002E2E2E6449
:1045F0006F6E65000909092E2E2E6D656173757247
:10460000656D656E74204C69676874005F3078343E
:1046100039005F30783239005F3078333900436FCA
:104620006E74726F6C6C6572206973207265626F54
:104630006F74696E6700436F6E74726F6C6C657235
:10464000206973207265626F6F74696E6700264C13
:104650006F673D00436F6E74726F6C6C6572207390
:104660007461727465640022003D3D3D3D3D3D3DF9
:104670003D3D3D3D3D3D3D3D3D3D3D3D3D3D3D3D6A
:104680003D3D3D3D3D3D3D3D3D3D3D3D3D3D3D3D5A
:104690003D3D3D3D3D3D3D3D3D3D3D3D3D3D3D3D4A
:1046A0003D3D3D3D3D3D3D3D3D3D3D3D3D3D002094
:1046B000203D3D3D3D3D3D3D3D3D3D3D3D3D3D0084
:1046C0003D3D3D3D3D3D3D3D3D3D3D3D3D3D204331
:1046D0006F6E74726F6C6C65722073746172746546
:1046E000642C2020003D3D3D3D3D3D3D3D3D3D3D5B
:1046F0003D3D3D3D3D3D3D3D3D3D3D3D3D3D3D3DEA
:104700003D3D3D3D3D3D3D3D3D3D3D3D3D3D3D3DD9
:104710003D3D3D3D3D3D3D3D3D3D3D3D3D3D3D3DC9
:104720003D3D3D3D3D3D3D3D3D3D004D6F64756C26
:10473000652000206572726F72202020002E2E2EC0
:104740006572726F72004D6F64756C652000206435
:104750006F6E65202020002E2E2E646F6E6500097E
:104760002E2E2E4D6F64756C652000264C6F673DB4
:1047700000496E697469616C697A696E6720657851
:104780006563206D6F64756C6573002200496E6906
:104790007469616C697A204D6F64756C65004F4B6C
:1047A00000526573746F72207661726961626C6524
:1047B0007300264C6F673D00526573746F722076EC
:1047C00061726961626C65732065786563206D6FE5
:1047D00064756C6573002200496E697469616C6967
:1047E0007A6174696F6E2045786563204D6F6475DA
:1047F0006C6500264C6F673D00496E697469616C99
:10480000697A6174696F6E2045786563204D6F64C5
:10481000756C65002200496E697469616C697A691A
:104820006E672053656E736F72733A20004C697324
:1048300074206F6620617661696C61626C652073BB
:10484000656E736F72733A2000264C6F673D004CA3
:10485000697374206F6620617661696C61626C6552
:104860002073656E736F7273002200646F6E650053
:10487000094C43442E2E2E00646F6E650009546966
:104880006D652E2E2E00646F6E6500095769726586
:104890002E2E2E00496E697469616C697A617469A3
:1048A0006F6E206F662074686520696E7465726E25
:1048B000616C207065726970686572793A00264C87
:1048C0006F673D00496E697469616C697A617469EA
:1048D0006F6E206F662074686520696E7465726EF5
:1048E000616C207065726970686572790022002EB3
:1048F0002E2E4C4F57004C4F57002E2E2E4F4B0054
:104900004F4B00496E707574205643432E2E2E0077
:10491000496E707574205643432E2E2E20202000A1
:10492000264C6F673D00496E707574205643433ABC
:1049300020002200264C6F673D00436F6E74726F3B
:104940006C6C65722073657475703A204F70657277
:104950006174696F6E207761746368646F670022A9
:1049600000264C6F673D00436F6E74726F6C6C6510
:10497000722073657475703A204F6E20706F776582
:1049800072002200264C6F673D00436F6E74726F99
:104990006C6C65722073657475703A204C6F77206B
:1049A000766F6C746167650022003D3D3D3D3D3D85
:1049B0003D3D3D3D3D3D3D3D3D3D3D3D3D3D3D3D27
:1049C0003D3D3D3D3D3D3D3D3D3D3D3D3D3D3D3D17
:1049D0003D3D3D3D3D3D3D3D3D3D3D3D3D3D003D44
:1049E0003D3D3D3D3D3D3D3D3D3D3D3D3D3D3D3DF7
:1049F00020436F6E74726F6C6C6572207365747592
:104A000070203D3D3D3D3D3D3D3D3D3D3D3D3D3DC0
:104A10003D3D3D003D3D3D3D3D3D3D3D3D3D3D3D03
:104A20003D3D3D3D3D3D3D3D3D3D3D3D3D3D3D3DB6
:104A30003D3D3D3D3D3D3D3D3D3D3D3D3D3D3D3DA6
:104A40003D3D3D3D3D3D3D3D004F706572617469AA
:104A50006F6E207761746368646F67004F70657272
:104A60006174696F6E207761746368646F67004F6B
:104A70006E20706F776572004F6E20706F77657271
:104A8000004C6F7720766F6C74616765004C6F77B0
:104A900020766F6C74616765004B657920494E54D0
:104AA000350000000A0B02090C0D0E080703040173
:104AB00000000000000000000000000000000000F6
:104AC00000000000000000000000000000001211C3
:104AD00010000000000000000000000000000000C6
:104AE0000000000000000000010210202008081053
:104AF000204010204080020102010804020101024E
:104B00000408102040808040201008040201800426
:104B10000201804020100804020108040201010281
:104B20000408102040800102040810204080050580
:104B30000505070508080808020202020A0A080813
:104B40000404040401010101010101010303030341
:104B500003030303040707070C0C0C0C0C0C0C0CD0
:104B60000202020206060606060606060B0B0B0BE1
:104B70000B0B0B0B000020002300260029002C004B
:104B80002F003200000100000301060109010000AE
:104B90002200250028002B002E00310034000201E5
:104BA0000000050108010B0100002100240027007E
:104BB0002A002D003000330001010000040107012C
:104BC0000A01062A45323B36603FBD5F067CFB7D0D
:104BD00059A280A30EA5BEA686A91BABD0AB56AC2E
:104BE000BAAE19B709B8FCB9A5BA4EBB66BF0C2A54
:104BF0006336017E1FB711241FBECFEFD1E2DEBFA7
:104C0000CDBF00E00CBF14E0A0E0B2E0E8E2F5EABE
:104C100001E00BBF02C007900D92A837B107D9F78A
:104C200023E1A8E7B4E001C01D92AE3DB207E1F771
:104C300015E2C7EFD5E200E006C021970109802FF9
:104C4000FE010E948EC8C13ED10780E00807A9F787
:104C50000E947CBB0C9482D20C940000AF92BF9255
:104C6000CF92EF920F931F93CF93DF93182F863736
:104C700051F0873779F468E075E08AE790E10E94A7
:104C8000CCBB21E007C065E275E08AE790E10E94B5
:104C9000CCBB20E030E0C90186589B4F5C01FC0191
:104CA0008081811124C083E3829FE001839FD00D26
:104CB0001124CA58D14F612FCE010E941D4B882369
:104CC00069F084E0C82EE12C01E025E041E063E0DA
:104CD000CE010E94894863E075E002C06DEF74E088
:104CE0008AE790E10E9409BC81E0F5018083DF91B1
:104CF000CF911F910F91EF90CF90BF90AF900895FB
:104D000080917E04811118C065EE74E08AE790E11D
:104D10000E94CCBB83E190E10E943A57811103C00D
:104D200063EC74E002C06EEB74E08AE790E10E94ED
:104D300009BC81E080937E040895CF92DF92EF92C8
:104D40000F931F93CF93DF93182F863751F0873738
:104D500079F464E874E08AE790E10E94CCBB21E03A
:104D600007C061EA74E08AE790E10E94CCBB20E0D2
:104D700030E0C90188589B4F6C01FC018081811192
:104D800024C084E3829FE001839FD00D1124C4528C
:104D9000D14F48E5612FCE010E944351882361F035
:104DA00084E0E82E00E021E041E063E0CE010E94D3
:104DB000524F6FE774E002C069E774E08AE790E160
:104DC0000E9409BC81E0F6018083DF91CF911F91A1
:104DD0000F91EF90DF90CF90089561E674E08AE73D
:104DE00090E10E94CCBB60E484E190E10E945B45CD
:104DF0006CE574E08AE790E10C9409BC0895833275
:104E000019F08C35A1F008956BEC73E08AE790E11E
:104E10000E94CCBB60E18FE69EE00E948946882319
:104E200019F066EC73E012C060EC73E00FC063EA47
:104E300073E08AE790E10E94CCBB60E188E69EE0E7
:104E40000E948946882339F06EE973E08AE790E191
:104E50000C9409BC089568E973E08AE790E10C942A
:104E600009BC08950F931F93CF93DF93182F062F3C
:104E700060E873E08AE790E10E94CCBB1A3451F0FD
:104E80001B3479F460E773E08AE790E10E94CCBBC1
:104E9000C1E007C068E773E08AE790E10E94CCBBFD
:104EA000C0E0D0E0C458DB4F8881811111C0602F71
:104EB000812F0E9479AC811103C064E472E002C0CA
:104EC0006BE672E08AE790E10E9429BC81E088836A
:104ED000DF91CF911F910F910895CF93DF93C62F4C
:104EE000893339F0893441F0893269F460E274E041
:104EF00005C06EE374E002C062E074E08AE790E10E
:104F00000E94CCBB06C063EF73E08AE790E10E9489
:104F100009BC8FE290E10E94F16B882379F1D0E027
:104F2000CE01885F984F38D68230910539F08330B2
:104F3000910551F0019741F460E101C060E08FE21A
:104F400090E10E94156C05C061E08FE290E10E9443
:104F50001D6ACE01805D984F1FD68230910521F0E9
:104F6000039721F060E003C061E001C062E08FE2DE
:104F700090E10E94FE6B6EEE73E002C068EE73E09B
:104F80008AE790E10E9409BCDF91CF910895CF9309
:104F9000DF93C82F2AE0829FC0011124845C9A4FBE
:104FA0000E946CD2D82F8C2F90E08C5F994F0E947A
:104FB0006CD290E0FC013397E830F10548F5882782
:104FC000EE58FF4F8F4F0C948EC86C2F8D2FDF91B2
:104FD000CF9196CE6C2F8D2FDF91CF913FCE6C2F3E
:104FE0008D2FDF91CF91A9CE6C2F8D2FDF91CF9197
:104FF000F4CE6C2F8D2FDF91CF916FCF6C2F8D2F33
:10500000DF91CF91FCCE6C2F8D2FDF91CF912ACFE6
:10501000DF91CF910895982F8FEF890F853038F069
:1050200081E0973031F0983221F080E0089581E0FE
:1050300008950895982F8FEF890F843028F081E02C
:10504000983219F080E0089581E00895982F8FEF4D
:10505000890F823128F081E0983219F080E00895BC
:1050600081E008953A9A429A08953A9A42980895AA
:1050700098B184E0892788B90895399A419A0895AA
:10508000399A4198089598B182E0892788B908959E
:105090003B9A439A08953B9A43980895E6DFF0DFE0
:1050A000FACF98B188E0892788B908950A9A129AA8
:1050B00008950A9A129808953C9A2FEF8BE49DE187
:1050C000215080409040E1F700C00000449A0895CC
:1050D000E4E0F1E0808180688083E5E0F1E08081B8
:1050E000806880830895E7E0F1E0808180648083B8
:1050F000E8E0F1E080818F7B80830895E7E0F1E0D4
:10510000808180648083E8E0F1E080818064808336
:1051100008953D9A459808953D9A459A08959A9A1A
:10512000A29808959A9AA29A08950F9A17980895A6
:105130000F9A179A08950D9A159808950D9A159A31
:1051400008950B9A139808950B9A139A08950C9A40
:10515000149808950C9A149A0895099A119808952C
:10516000099A119A0895389A40980895089A109AC1
:10517000089580B380BB81B381BB0895FACFF9CF86
:10518000F8CFF7CFF6CFF5CFF4CFF3CFF2CFE1E002
:10519000F1E0808188608083E2E0F1E080818860D6
:1051A00080830895E1E0F1E0808188608083E2E01F
:1051B000F1E08081877F808308956F9A779A0895C0
:1051C0006F9A779808956B9A739A08956B9A73986B
:1051D0000895E1E0F1E0808180618083E2E0F1E028
:1051E0008081806180830895E1E0F1E080818061C9
:1051F0008083E2E0F1E080818F7E808308956E9A63
:10520000769A08956E9A76980895E7E0F1E08081A5
:1052100082608083E8E0F1E080818260808308958D
:10522000E7E0F1E0808182608083E8E0F1E0808166
:105230008D7F80830895E1E0F1E08081806280834A
:10524000E2E0F1E08081806280830895E1E0F1E0B6
:10525000808180628083E2E0F1E080818F7D8083C5
:105260000895E7E0F1E0808184608083E8E0F1E088
:105270008081846080830895E7E0F1E0808184602C
:105280008083E8E0F1E080818B7F80830895869AB7
:105290008E9A0895869A8E980895E7E0F1E08081CD
:1052A00088608083E8E0F1E08081877F80830895D3
:1052B0009D9AA59A08959D9AA5980895E1E0F1E038
:1052C000808184608083E2E0F1E08081846080837B
:1052D0000895E1E0F1E0808184608083E2E0F1E024
:1052E00080818B7F80830895989899989A989B984D
:1052F0009C989D98EAE0F1E080818E7F8083808198
:105300008D7F808380818B7F80838081877F808376
:1053100080818F7E808380818F7D808380818F7B61
:10532000808380818F7780835298539854985598C2
:1053300056985798389839983A983B983C983D98A1
:105340003E983F98089809980A980B980C980D98E1
:105350000E98E4E0F1E080818B7F80838081877FFD
:10536000808380818F7E808380818F7D8083808118
:105370008F7B808380818F778083809881988298CB
:1053800083988498859886988798E7E0F1E08081F3
:105390008E7F808380818D7F808380818B7F8083DF
:1053A0008081877F808380818F7E808380818F7DD5
:1053B000808380818F7B808380818F7780836898D2
:1053C00069986A986B986C986D986E986F98E1E000
:1053D000F1E080818E7F808380818D7F80838081DA
:1053E0008B7F80838081877F808380818F7E808395
:1053F00080818F7D808380818F77808380818F778C
:1054000080832498259826982798089560E772E06D
:1054100085ED95E00C941FC285ED95E00C94B4C128
:105420000F931F93CF938091DB05882319F160E2DE
:1054300073E080E090E00E94E4BF0DED15E0CFE165
:10544000F80161918F0170E04AE050E08AE790E155
:105450000E94EDBC6EEF76E08AE790E10E94CCBB43
:10546000C73221F48AE790E10E9406BCCF5FC832C0
:1054700039F7D9CFCF911F910F91089590E0FC019A
:105480007F97E930F10508F58827E658FF4F8F4FE1
:105490000C948EC86AEE76E01AC066ED76E017C00E
:1054A00062EC76E014C06EEA76E011C06AE976E05C
:1054B0000EC066E876E00BC062E776E008C06EE5F5
:1054C00076E005C06AE476E002C06FE376E08AE742
:1054D00090E10C94CCBB90E0FC017F97E930F105A2
:1054E00080F58827ED57FF4F8F4F0C948EC883B1FE
:1054F00023C083B186FB882780F991E0892708952E
:1055000083B18095881F8827881F089580910301A3
:1055100082FB882780F9F1CF809103018295817009
:10552000ECCF8091030183FB882780F9E6CF80913F
:105530000301E0CF8091030185FB882780F9DDCF4F
:10554000089580E00895CF93E82FA82FB0E0AA0F28
:10555000BB1FAC51BA4F862F90E08D939C938E2F3A
:1055600090E0FC013197E832F10508F0A3C2C42FA6
:105570008827E457FF4F8F4F0C948EC8423099F024
:10558000433009F499C2413009F084C28091D305B7
:105590008150823028F08091D405882309F489C293
:1055A00065E376E01AC0613011F4F1DD82C2FADD04
:1055B00080C24230B9F0433009F480C2413009F072
:1055C00069C28091D3058150823028F08091D40542
:1055D000882309F46EC26BE276E08AE790E10E94CC
:1055E000CCBB67C2613011F4E8DD63C2E9DD61C2A2
:1055F000423099F0433009F463C2413009F04AC2A5
:105600008091D3058150823028F08091D405882381
:1056100009F44FC261E276E0E0CF613011F4D3DDEE
:1056200048C2D4DD46C2423099F0433009F44AC240
:10563000413009F02FC28091D3058150823028F08B
:105640008091D405882309F434C267E176E0C5CFA0
:10565000613011F4BEDD2DC2C7DD2BC2423099F09E
:10566000433009F431C2413009F014C28091D305AE
:105670008150823028F08091D405882309F419C222
:105680006DE076E0AACF613011F4B9DD12C2BADD67
:1056900010C2423099F0433009F418C2413009F089
:1056A000F9C18091D3058150823028F08091D405D2
:1056B000882309F4FEC163E076E08FCF613011F4F6
:1056C000A4DDF7C1ADDDF5C1423099F0433009F4F6
:1056D00015C2413009F0DEC18091D305815082307E
:1056E00028F08091D405882309F4E3C169EF75E0BF
:1056F00074CF613011F49FDDDCC1A8DDDAC1423026
:1057000099F0433009F4E4C1413009F0C3C18091FC
:10571000D3058150823028F08091D405882309F484
:10572000C8C16FEE75E059CF613011F49ADDC1C187
:10573000A3DDBFC14230A9F0433009F4C9C14130F3
:10574000A9F48091D3058150823020F08091D40556
:10575000882361F065EE75E08AE790E10E94CCBB9A
:1057600005C0613011F493DD01C094DD60ED75E09A
:105770008AE790E10E94CCBB8DC1423099F0433062
:1057800009F4A8C1413009F085C18091D305815049
:10579000823028F08091D405882309F48AC160EC16
:1057A00075E01BCF7ADD85C1423099F0433009F4B2
:1057B00093C1413009F06EC18091D3058150823090
:1057C00028F08091D405882309F473C169EB75E052
:1057D00004CF613011F49DDC6CC19EDC6AC14230A3
:1057E00099F0433009F47AC1413009F053C18091F6
:1057F000D3058150823028F08091D405882309F4A4
:1058000058C162EB75E0E9CE613011F488DC51C11A
:1058100089DC4FC1423099F0433009F461C1413015
:1058200009F038C18091D3058150823028F08091F1
:10583000D405882309F43DC16BEA75E0CECE613012
:1058400011F473DC36C174DC34C1423099F043305A
:1058500009F448C1413009F01DC18091D305815040
:10586000823028F08091D405882309F422C164EAAB
:1058700075E0B3CE613011F45EDC1BC15FDC19C191
:10588000423099F0433009F42FC1413009F002C190
:105890008091D3058150823028F08091D4058823EF
:1058A00009F407C16DE975E098CE613011F449DC67
:1058B00000C14ADCFEC0423099F0433009F416C101
:1058C000413009F0E7C08091D3058150823028F043
:1058D0008091D405882309F4ECC066E975E07DCE9B
:1058E000613011F434DCE5C035DCE3C0423099F0BE
:1058F000433009F4FDC0413009F0CCC08091D3059C
:105900008150823028F08091D405882309F4D1C0D9
:105910006FE875E062CE613011F41FDCCAC020DC94
:10592000C8C0423099F0433009F4E4C0413009F076
:10593000B1C08091D3058150823028F08091D40588
:10594000882309F4B6C068E875E047CE613011F4E9
:105950000ADCAFC00BDCADC0423099F0433009F433
:10596000CBC0413009F096C08091D3058150823080
:1059700028F08091D405882309F49BC06EE775E078
:105980002CCE613011F402DC94C0FFDB92C04230B7
:1059900099F0433009F4B2C0413009F07BC08091E6
:1059A000D3058150823028F08091D405882309F4F2
:1059B00080C064E775E011CE613011F4E5DB79C099
:1059C000E2DB77C0423099F0433009F499C04130AE
:1059D00009F060C08091D3058150823028F0809119
:1059E000D405882309F465C06AE675E0F6CD613018
:1059F00011F4C8DB5EC0C5DB5CC0423099F04330B7
:105A000009F480C0413009F045C08091D305815030
:105A1000823028F08091D405882309F44AC060E6DA
:105A200075E0DBCD613011F4ABDB43C0A8DB41C0D6
:105A3000423089F0433009F467C0413059F5809114
:105A4000D3058150823020F08091D405882389F1DC
:105A500066E575E0C2CD613011F490DB2AC089DBC8
:105A600028C0423089F0433009F44EC0413091F4EF
:105A70008091D3058150823020F08091D405882315
:105A8000C1F062E475E0A9CD613011F411DC11C000
:105A900012DC0FC0C43069F48091D305815082308C
:105AA00020F08091D405882321F08AE790E10E94BC
:105AB00006BC2BC08FEF29C08DE027C086E025C033
:105AC0008AE023C084E021C08DE31FC08EE31DC0A7
:105AD0008FE31BC086E319C080E217C08FE115C0B9
